:100000000C9464000C949C000C9481000C9481006E
:100010000C9481000C9481000C9481000C9481005C
:100020000C9481000C9481000C9481000C9481004C
:100030000C9481000C9481000C9481000C9481003C
:100040000C9481000C9481000C9481000C9481002C
:100050000C9481000C9481000C9481000C9481001C
:100060000C9481000C94810009021200010100A08F
:100070001909040000000000000012011001FF0037
:100080000008C016DC050701010200010E0355003F
:10009000530042006100730070001C03770077007A
:1000A00077002E00660069007300630068006C0032
:1000B0002E0064006500040309040D0C0B0A0908F6
:1000C000070605040302010011241FBECFEFD8E08C
:1000D000DEBFCDBF11E0A0E0B1E0E6EBFCE102C085
:1000E00005900D92A630B107D9F721E0A6E0B1E066
:1000F00001C01D92A235B207E1F70E94C00C0C941A
:10010000590E0C940000A82FB92F80E090E041E038
:1001100050EA609530E009C02D9182279795879528
:1001200010F084279527305EC8F36F5FA8F3089519
:10013000EADF8D939D930895CF93CFB7CF93DF934D
:10014000C3954F9BE9F74F9B0BC04F9B09C04F9B3B
:1001500007C04F9B05C04F9B03C04F9B01C089C088
:100160006F93C0912F01DD27C95CDE4F2F9365E5AA
:100170004F9B03C02F916F91E6CF0F931F934F9327
:1001800020E040E15F9309B1047807FB27F93F9332
:1001900050E03BE039C0147840642F77012F5F5F57
:1001A0001EC0406819B114782F7752501FC04064A8
:1001B00009B12F770478D1F15F5F00C023C040629E
:1001C00019B12F77147891F15F5F00C025C00478D2
:1001D0001027515012F45D5F0000115027952C3FFD
:1001E00019B1C8F614780127015027952C3FC8F69D
:1001F0004227499309B1047810274F73115027956E
:100200002C3FA8F64695469519B1147879F0012748
:10021000015027952C3F98F66B5A60F3315009B185
:10022000B0F600C011E01CBB002717C03B50319551
:10023000C31BD04011E01CBB0881033CF9F00B3418
:10024000E9F020912D011981110F1213EDCF09361C
:1002500051F10D3211F0013E39F7009335013F9114
:100260005F914F911F910F912F916F91CCB3C0FD72
:1002700067CFDF91CF91CFBFCF91189520913501F6
:10028000222369F310913301112339F534303AF107
:100290003093330120932E0110912F013BE0311B4D
:1002A00030932F011CC0009133010130B4F40AE5F2
:1002B0003091300134FD14C000933001C2E2D1E02E
:1002C00013C0052710E000C000000BB91AC00527B5
:1002D00010E0221F1DC010E021C04AE502C032ED2F
:1002E000432FC4E1D0E032E01AB114685F9A0BB139
:1002F0001AB954E820E865E320FF05270BB92795D4
:1003000017951C3FF0F66695B8F7B1F720FF052763
:100310000BB9279517951C3FD0F62795179517FF12
:10032000052700001C3F0BB9B0F629913A9519F743
:100330000B7710913401110FC651D0400BB911F059
:1003400010932D0111E01CBB00681AB11B77402FE0
:100350004B7754E05A95F1F70BB91AB94BB97FCFE7
:10036000259A23982B9A50E219D05A95E9F70895C7
:10037000AC0188E606D0842F04D089E602D0852F10
:1003800000C010D028E030E0382780FB869507D0E9
:100390002A95D1F730FB03D001D0089568942398B3
:1003A0002B9A16F02B98239AE0915001F09151016D
:1003B0003197F0F72D9AE3B1E3FBE0915001F09112
:1003C00051013197F0F72D98089520ECE7DF46F4BE
:1003D0002A95E1F780E02AE1E5DF2A95E9F7DECF0B
:1003E00028E030E0DBDF869587F938272A95D1F7BA
:1003F000D5DF27F9322772F3D1DFD0CFDB01742F9D
:10040000B7DF84E2BEDFE1DF8D937A95D1F70895FF
:10041000DB01742FADDF83EFB4DF8DE1B2DF84E663
:10042000B0DF8D91AEDF82E7ACDFCFDF8078D9F728
:100430007A9589F70895CF93DF93609133016350E4
:1004400067FD91C080912F01CCE0D0E0C81BD1099D
:10045000C95CDE4F80912E018D3209F0C2C0683038
:1004600009F07FC083EC809322018AE580933001FC
:10047000109206018881807679F0CE010E9457069D
:100480008F3F09F466C09F81911169C09E819817C2
:1004900008F065C0892F63C02A8110922B019981D1
:1004A00091110AC010922C012BE231E082E03093CE
:1004B000320120933101E7CF953029F420933401A4
:1004C0002BE231E0F4CF963099F59B81913059F4CD
:1004D0008AE790E0909332018093310182E190E4C9
:1004E00090930601D0CF923019F488E690E0F2CFD5
:1004F0009330A9F7211108C086EB90E09093320168
:100500008093310184E0EBCF213041F48AE990E01F
:1005100090933201809331018CE1E1CF2230F9F6E2
:100520008CE890E090933201809331018EE0D7CF38
:10053000983059F0993019F420933601C1CF81E0F9
:100540009A3009F4BDCF80E0BBCF26E331E081E0F3
:10055000AECF988197FD8E8190E8909306018093AD
:100560000701109233018091300184FF2DC0C091AA
:100570000701CF3F49F16C2FC93008F068E08C2F9C
:10058000861B809307018091220198E88927809338
:100590002201CC2361F02091060127FF35C083E2C0
:1005A00091E00E94CC08C82F893008F054C06C2F0D
:1005B00083E291E00E949800CC5FCC3019F08FEF7D
:1005C00080930701C093300184E199B1947831F4AC
:1005D0008150D9F71092340110922D01DF91CF9103
:1005E00008958091060187FFBCCFCE010E943A0A90
:1005F0008F3F21F48EE180933001B3CF882309F43B
:10060000B0CF10920701ADCF8091310190913201AE
:1006100026FF17C0FC01A3E2B1E0262F280F34917A
:100620003D9331962E13FBCF2FEF260F30E02F5F37
:100630003F4F820F931F9093320180933101C62F59
:10064000B6CFA3E2B1E0FC01262F280F31913D93F4
:100650002E13FCCFE9CF8FEF80930701CEE1B2CF0D
:100660008AE5809330018FEF80930701E9E6F0E09F
:10067000808182608083E89A08958EBD0DB407FE64
:10068000FDCF8EB50895DC01CB0121E1B695A7958C
:10069000979587952A95D1F7209101012817D9F0D0
:1006A00080930101E0910901F0910A018DE409951F
:1006B000E0910901F0910A0180E00995E0910901BA
:1006C000F0910A01809101010995E0910901F091F1
:1006D0000A0180E00994089580914E018CBD8091BB
:1006E0004D018DBD08958823B1F0883050F12DE380
:1006F00033E030930A012093090110924D0191E0FB
:1007000090934F018A30B9F040F48830C1F08930BD
:10071000A1F081E507C08BE0EACF8C3031F08D305D
:10072000C1F780E580934E01089581E580934E01E5
:1007300090934D01089582E5F9CF82E5F3CF83E5EB
:10074000F1CF2BEC33E030930A0120930901843080
:10075000A1F030F48230A9F0833089F08AEF06C02E
:10076000863039F040F08730C9F784E080934F013C
:10077000089588E0FBCF80E1F9CF8FE1F7CF8FE3D9
:10078000F5CF8DE7F3CF26B590914F0186B5821B4B
:100790008917E0F308951F93CF93DF93182F2D98B7
:1007A000D8E0C0E017FF16C02B9A110F0E94C303B8
:1007B0002D9A0E94C30383B182958170CC0FC82B00
:1007C0002D980E94C303D15069F78C2FDF91CF91F0
:1007D0001F9108952B98E9CF84B18C6284B9249835
:1007E0002A982D9881E00E940B062A9A81E00E94A7
:1007F0000B062A988091090190910A018D5393402C
:1008000011F40E946C038FEF80930101089584B16D
:100810008C6284B98091090190910A018D539340B3
:1008200011F40E946C038FEF809301012A9A0895BE
:1008300084B1837D84B985B1837D85B91092180117
:100840000895CF93C82F809100018C1739F06C2F39
:1008500080E190E00E94470EC0930001CF9108957F
:1008600080E190E00E943F0E9FEF980F9D3018F4BA
:10087000809308010895109208010895DF92EF9285
:10088000FF920F931F93CF93DF93809108018823EA
:10089000E9F10E947303D3E02A9A8AE00E940B06D2
:1008A0002A9884E60E940B06E0910901F0910A0162
:1008B0008CEA0995E0910901F0910A0183E5099517
:1008C000E0910901F0910A0180E00995182FE0916B
:1008D0000901F0910A0180E00995C82F133579F4D8
:1008E00081110DC080910801809318018C2FDF9138
:1008F000CF911F910F91FF90EF90DF9008958AE0C4
:100900000E940B06D15041F6109208010AEB10E04C
:100910009DE0E92EE00EF801D4918D2F0E94730323
:1009200083E0F82E2A9A8AE00E940B062A9884E631
:100930000E940B06E0910901F0910A018CEA0995E9
:10094000E0910901F0910A0183E50995E09109011F
:10095000F0910A0180E00995D82EE0910901F0910B
:100960000A0180E00995C82FF3E5DF120AC0811162
:1009700008C0D0931801D09308018D2F0E94210444
:10098000B5CF8AE00E940B06FA94F110CBCF0F5F2F
:100990001F4FE012C0CF1092180189E00E9473032C
:1009A000C1E0A4CFCF92DF92EF92FF926B017C0166
:1009B000DC01CB0112970097A640B10518F4C701DE
:1009C0000E9443038C2D880F880F880F8870E09158
:1009D0000901F0910A0180620995D701C60129E059
:1009E000B695A795979587952A95D1F7E091090136
:1009F000F0910A010995D701C601B695A79597957B
:100A00008795E0910901F0910A010995E0910901AA
:100A1000F0910A0180E0FF90EF90DF90CF90099471
:100A2000CF92DF92EF92FF92CF93DF936B017C0125
:100A3000D42FC22FDC01CB0112970097A640B1053D
:100A400018F4C7010E9443038C2D880F880F880F6C
:100A50008870E0910901F0910A0180640995E091A4
:100A60000901F0910A01D701C60129E0B695A795C1
:100A7000979587952A95D1F70995E0910901F0910D
:100A80000A01D701C601B695A7959795879509954F
:100A9000E0910901F0910A018D2F0995C11108C05B
:100AA00080E0DF91CF91FF90EF90DF90CF9008959D
:100AB000DF3F71F0CEE181E00E940B06C701B60175
:100AC0000E94D2048D1761F3C15049F481E0E9CF4F
:100AD000C701B6010E94D2048F3F61F7E1CFC53153
:100AE00050F784E0CB3040F382E0E6CFCF92DF9244
:100AF000EF92FF92CF936B017C01DC01CB01129747
:100B00000097A640B10518F4C7010E944303E09185
:100B10000901F0910A018CE40995E0910901F09135
:100B20000A01D701C60129E0B695A7959795879543
:100B30002A95D1F70995E0910901F0910A01D701B1
:100B4000C601B695A795979587950995E0910901F6
:100B5000F0910A0180E00995C9E181E00E940B064D
:100B6000C701B6010E94D2048F3F81F4C15039F40D
:100B700081E0CF91FF90EF90DF90CF900895C0314A
:100B800060F784E0C63050F382E0E8CF80E0F1CF38
:100B9000CF93DF93EC01E0910901F0910A0180EA23
:100BA0000995E0910901F0910A018D2F0995E091D5
:100BB0000901F0910A018C2F0995E0910901F0914A
:100BC0000A0180E0DF91CF9109941F93CF93DF93C7
:100BD000D82F192FC62FE0910901F0910A0180EC5E
:100BE0000995E0910901F0910A01812F0995E091A1
:100BF0000901F0910A018D2F0995E0910901F09109
:100C00000A018C2F09958BE00E940B0680E0DF9192
:100C1000CF911F91089526B596B5921B9035E0F3BC
:100C20008150C9F70895262FFC0142815381052E7A
:100C3000000C660B770B40931301509314016093E3
:100C4000150170931601868197819093120180930C
:100C500011012093190108950F931F93522F209192
:100C6000170121110FC0FC0102811381012E000C1C
:100C7000220B330B009313011093140120931501E1
:100C800030931601242F30E030930E0120930D0194
:100C900050FD40931001FC018681978190931201D1
:100CA00080931101609319011F910F910895CF92C4
:100CB000DF92EF92FF920F931F93CF938C01DC0191
:100CC0001196CC911197C130A1F4809118010E9426
:100CD00073031092170140980E94EC030E943E0497
:100CE00080931A018AE191E090933201809331015F
:100CF0008BC0C23349F4809118010E94730340985D
:100D00000E940704C0E0EECFC33379F42A98FC01B7
:100D10008281809304018681978190931201809350
:100D20001101C0931901CFEFDDCFC43389F42A98A4
:100D300012968C9112978093040116968D919C9136
:100D4000909312018093110182E380931901EBCFFC
:100D5000C63421F440980E94FC0CD4CFC73419F457
:100D60000E94010DCFCFC83419F40E94160DCACFCE
:100D7000CA3441F4FC0182810E942B0D80931A0138
:100D8000C1E0B0CFCB3429F412968C910E945C0D57
:100D9000F5CFCC3409F078C0FC01838191E081115A
:100DA00001C090E090930C01D80112969C9112978B
:100DB00090930301882309F45FC0823071F5149683
:100DC000CD90DC900D2C000CEE08FF08C0921301B2
:100DD000D0921401E0921501F09216010E94010DCB
:100DE000C0910301C114D104F1E0EF06F10408F051
:100DF000CE608C2F0E942B0D8823D1F00E94160DFF
:100E00008EEF80931A01C1E08C2FCF911F910F912B
:100E1000FF90EF90DF90CF900895C12CD12C7601F8
:100E20008130A1F6F801C480D12CF12CE12CCECF79
:100E3000C114D10481E0E806F10420F08D2D0E9458
:100E40002B0D07C0AFEFCA16D104E104F10409F07D
:100E5000A8F78C2D0E942B0D0E94010D8C2F816014
:100E60000E942B0DD80116968D919C9190931201A2
:100E70008093110186E369CF0E94010D61E0F801C2
:100E800082810E948A0DEECFCD34E1F5FC01938181
:100E900081E0911101C080E080930C01D80112968D
:100EA0008C9112978093030114968C9114978093E0
:100EB0000201992381F09230D9F415969C91092E64
:100EC000000CAA0BBB0B8093130190931401A09309
:100ED0001501B0931601F801868197819093120154
:100EE0008093110185E38093190110920B011BCFB0
:100EF000913021F490E0B0E0A0E0E5CF80E090E018
:100F0000DC01E1CFCD3571F414968C911497809368
:100F10000F0116968D919C9190931201809311016F
:100F20008AE313CFCC3561F4FC01848180930F01F7
:100F300086819781909312018093110189E305CFF7
:100F4000CE3549F40E94E50DC82F813009F0C1C0AB
:100F500080931A01C7CECF3519F40E94F80D0ECF39
:100F6000CA3509F047C040980E949B0DD8011296DF
:100F70008C91129713963C91139714962C91149779
:100F800015969C911597809313013093140120932B
:100F900015019093160116966C916F710E94AC0D1D
:100FA000F801868182958695877086838823A9F0CB
:100FB0000E94CD0D80931A01D80116968C91823033
:100FC00020F00E94CD0D80931B01F80186818330B3
:100FD00020F00E94CD0D80931C01D80116968C91B3
:100FE000843020F00E94CD0D80931D010E94A90D38
:100FF000C4E078CEC23029F40E941804419A409A85
:1010000081CEC33041F5E0910901F0910A011296B9
:101010008C91099580931A01E0910901F0910A01E0
:10102000D80113968C91099580931B01E0910901D9
:10103000F0910A01D80114968C91099580931C01B6
:10104000E0910901F0910A01D80115968C9109955A
:1010500080931D01CDCF62E0C43009F48CC063E001
:10106000C73009F488C0C53019F40E943E0486CE0A
:10107000C63049F4FC0125812F70448161E0C8012C
:101080000E942C0650CEC83021F420E040E064E0FD
:10109000F6CFC93089F481E080931701F80182818D
:1010A0009381A481B5818093130190931401A0933F
:1010B0001501B093160126CECA3089F412968C9190
:1010C0008F3F51F46FEF80E190E00E94470E109245
:1010D000080110921A0154CE80931801FACFC4313E
:1010E00041F410921A018091180180931B01C2E013
:1010F000F9CDCB30A1F4FC01828193819093510111
:10110000809350012A9A229A83E00E940B062A9823
:10111000409880E10E940B060E94B001F3CDCC30D4
:10112000C1F480EC0E94C10180E00E94C1018AE00C
:101130000E940B062A9A85E00E940B062A9885E0F9
:101140000E940B0684B1837D84B985B1837D85B906
:10115000D9CDCD3019F40E94E50110CECE3029F45E
:1011600012968C910E94C101B4CF65E0CF3019F086
:10117000C03129F466E0C8010E941306D4CDCF37F0
:1011800009F0C0CD89E180931A0181E880931B01A9
:1011900010921C018FE05CCFAF92BF92CF92DF9292
:1011A000EF92FF920F931F93CF93DF93EC01809107
:1011B00019019EEF980F923048F0853039F0833353
:1011C00029F0893319F0863309F050C170E000919D
:1011D0001101109112016017710708F48B01F02EB4
:1011E000419880911901853061F5402FBE018091B1
:1011F0001301909114010E94FE01809113019091BE
:101200001401A0911501B0911601800F911FA11D2D
:10121000B11D8093130190931401A0931501B09315
:1012200016018091110190911201801B910B9093F6
:10123000120180931101892B09F063C010921901EA
:1012400060C0833361F5EC2ECC2EDD2E8C2D8E19F3
:101250008F15B8F08091110190911201801B910BB4
:101260009093120180931101892B09F04AC080915B
:101270000401882319F32A9A25E02A95F1F7000042
:10128000DDCFE0910901F0910A0180E00995F601B6
:1012900081936F01F5E0FA95F1F70000D7CF86331F
:1012A00009F05CC080910C01D12CC12C5801811136
:1012B00011C081E0A81AB108CF1488F481E0AC1401
:1012C000BD0409F080E00E945C0D89932FEFC21AE3
:1012D000D20AF2CFE1E0AE1AB108CF1400F180914A
:1012E000110190911201801B910B90931201809338
:1012F0001101892B31F40E94160D109219011092E0
:101300000C01419A40988F2DDF91CF911F910F9141
:10131000FF90EF90DF90CF90BF90AF90089581E065
:10132000AC14BD0409F080E00E945C0D89938091AB
:10133000130190911401A0911501B091160101962D
:10134000A11DB11D8093130190931401A093150169
:10135000B0931601FFEFCF1ADF0ABFCF893309F52B
:10136000EC2ECC2EDD2E8C2D8E198F1580F08091D9
:10137000110190911201801B910B909312018093A7
:101380001101892B09F0BDCF0E94A90D57CF0E94F2
:10139000CD0DF60181936F01F5E0FA95F1F70000AC
:1013A000E2CF9EEF980F923008F060C0D12CC12C94
:1013B000EE24EA94823009F053C0EC2ECC2EDD2EC0
:1013C0008C2D8E198F1508F02CCF60911301709120
:1013D000140180911501909116010E94D204F6012A
:1013E00081936F018091130190911401A0911501D7
:1013F000B09116010196A11DB11D80931301909328
:101400001401A0931501B0931601DACF8091130156
:1014100090911401A0911501B09116015E01AC0CE0
:10142000BD1C0097F1E0AF07B105E8F40E94C805C4
:10143000F50180838091130190911401A091150111
:10144000B09116010196A11DB11D809313019093D7
:101450001401A0931501B0931601FFEFCF1ADF0A14
:10146000CF14A0F2DECEF501E082E4CF419AFF2452
:10147000FA9449CF7F928F929F92AF92BF92CF9270
:10148000DF92EF92FF920F931F93CF93DF938C0124
:1014900080911901811112C0CFEF419A40988C2F91
:1014A000DF91CF911F910F91FF90EF90DF90CF9040
:1014B000BF90AF909F908F907F900895813051F0B2
:1014C000982F9D7F943031F0982F977F923311F0B1
:1014D000853311F74198C0901101D0901201E62E8A
:1014E000F12CCE14DF0408F47601CE2D8091190181
:1014F000863051F54E2DB801809113019091140161
:101500000E9408028091130190911401A09115018D
:10151000B09116018E0D9F1DA11DB11D8093130169
:1015200090931401A0931501B093160180911101BD
:10153000909112018E199F099093120180931101CD
:10154000892BD1F0C0E0A9CF823311F5D02F6801EB
:101550008C2D8D1B8C1798F08091110190911201A8
:101560008E199F099093120180931101892B51F7D5
:101570008091040181112A9A10921901E2C0E09130
:101580000901F0910A01D6018D916D010995E0CF15
:10159000853309F0EBC080910C0181111BC0D02F65
:1015A00068018C2D8D1B8C1708F4CDC08091110122
:1015B000909112018E199F0990931201809311014D
:1015C000892B09F0BFCF809102018130A9F60E94DA
:1015D000160DD2CF60911301709114018091150105
:1015E00090911601D0E461157105B1E08B0791056A
:1015F00008F0D0E88D2E912CB12CA12CA5019401DE
:101600000E941D0ED61BDC1708F4CD2FCC151D042F
:1016100011F008F0CC2D80910B0181113AC00E948D
:10162000010D8091030140911301509114016091CB
:1016300015017091160141155105E1E06E07710524
:1016400048F09FE076956795579547959A95D1F71D
:101650004E70842B0E942B0D81117FC0809113014D
:1016600090911401A0911501B09116010097F1E03D
:10167000AF07B10588F0892F0E942B0D81116DC035
:10168000809113010E942B0D811167C081E080932E
:101690000B01D02F780121C08F3F9105A105B10525
:1016A00089F380F3E8CFD7018D917D010E942B0D46
:1016B000811153C08091130190911401A0911501E3
:1016C000B09116010196A11DB11D80931301909355
:1016D0001401A0931501B09316018E2D8D1B8C174C
:1016E00010F380911101909112018C1B910990933C
:1016F000120180931101892B89F06091130170917F
:1017000014018091150190911601A50194010E9488
:101710001D0E672B682B692B09F0BFCE0E94160D9A
:10172000EFE1FEE43197F1F700C000008091110174
:1017300090911201892B09F0B0CE109219011092EC
:101740000C01C1E0AACED6018D916D010E942B0D36
:10175000882309F426CFCEEFA0CE0E94160D10925A
:10176000190110920C0110920B01F5CF8A3369F523
:10177000D12CC12C18C0D0910F01DD2389F0D930B4
:1017800008F0D8E06D2FF801EC0DFD1D80810E945E
:10179000AC0D8111DDC080910F018D1B80930F0175
:1017A000BFEFCB1ADB0ACC1630F380911101909178
:1017B00012018E199F099093120180931101892BB8
:1017C00009F0C0CE0E94A90DD7CE813089F08430B7
:1017D00009F062CE8091130190911401A09115013E
:1017E000B09116010097A140B10510F0CCEF55CE95
:1017F00080910D0190910E01812C912C5401009744
:1018000091F088249924881A990AB12CA12C40912E
:1018100013015091140160911501709116018422F9
:101820009522A622B722D1E0892B09F0D0E0702EB4
:1018300068018C2D87198C17B8F180911101909156
:1018400012018E199F099093120180931101892B27
:1018500009F078CE80910D0190910E01009709F466
:101860008BCE209110012817190609F485CE00911E
:1018700013011091140120911501309116010150AE
:10188000110921093109919581959109B0E0A0E0F4
:10189000BC01CD0160237123822393230E9476052E
:1018A000882309F469CE34C0D6014D916D01809131
:1018B000130190911401A0911501B091160120918E
:1018C0001901213071F42D2FBC01CD010E941005AA
:1018D000882359F080911901813009F087CFCBEF2F
:1018E000DCCD642F0E94E505F3CF80910D0190912E
:1018F0000E01892BC9F08091100181508093100155
:10190000811112C0C501B4010E947605882311F02F
:10191000CAEFC3CD80910D0190910E01880E991EE2
:10192000A11CB11C809310018091130190911401AE
:10193000A0911501B09116010196A11DB11D8093D2
:10194000130190931401A0931501B093160171CF68
:10195000CDEFA3CDA0E8B0E01C92E1E8F0E010826A
:1019600080818860808380818260808388EE93E0BC
:1019700090938900809388008C9180648C93089563
:101980001BB88BB18B778BB98AB184688AB92FE782
:1019900038E381E0215030408040E1F700C0000092
:1019A0008AB18B778AB914B8219A93E097B93A989B
:1019B00088B18C6388B940982FEF34E38CE02150D4
:1019C00030408040E1F700C00000409A41982FEF7E
:1019D00034E38CE0215030408040E1F700C000004B
:1019E000419A95BD0E9430040E94AA0C0E943003C7
:1019F00078940E941B02FDCF24982C9A23982B9A4E
:101A0000089524982C9A23982B9A8AE18A95F1F7C5
:101A100000C0249A2C988AE18A95F1F700C0239A95
:101A20002B988AE18A95F1F700C00895239A2B98A4
:101A3000249A2C988AE08A95F1F700C023982B9A73
:101A40008AE08A95F1F700C024982C9A8AE18A9559
:101A5000F1F700C0089598E0239A2B982AE02A9580
:101A6000F1F700C087FF25C024982C9A2AE02A9518
:101A7000F1F700C023982B9A2AE12A95F1F700C0CC
:101A8000880F915049F7239A2B9824982C9A8AE032
:101A90008A95F1F700C023982B9A2AE12A95F1F74D
:101AA00000C083B1239A2B9882958F7080958170A6
:101AB0000895249A2C98DACF282F24982C9A98E00D
:101AC00080E0239A2B983AE13A95F1F700C02398E9
:101AD0002B9A3AE13A95F1F700C0880F1C99816082
:101AE000915079F7239A2B98211111C0249A2C98A0
:101AF0009AE09A95F1F700C023982B9A3AE03A952C
:101B0000F1F700C0239A2B9824982C9A08952498D2
:101B10002C9AEECF880F613009F481600C942B0D64
:101B20002D98089584B18C6284B924980E94900DF8
:101B30002B982A9808952A982D980E94C3032A9AD0
:101B40002B9A0E94C3032D9A0E94C3032D980C94D4
:101B5000C3032A980C94900DCF93DF93D82F615034
:101B6000770BC1E001C0CC0F6A95EAF7C11104C040
:101B700080E0DF91CF9108950E94900D8C2F8D23EE
:101B800051F02B9A0E94C3032D9A0E94C3030E9416
:101B9000900DC695EBCF2B98F5CFCF93DF93D8E080
:101BA000C0E00E94900D0E94C3032D9A83B18295DC
:101BB0008170CC0FC82B0E94C3030E94900DD1509E
:101BC00081F78C2FDF91CF910895CF930E94920DD2
:101BD0002A9A85E38A95F1F700000E94C303C3B1F6
:101BE0000E94A90DC295C17081E08C27CF91089504
:101BF000CF930E94920D2A9A85E38A95F1F700000F
:101C000068E080EC0E94AC0DC0E00E94900D0E9444
:101C1000C3032D9A0E94C3031C9908C0CA5F0E9487
:101C2000900D0E94A90D8C2FCF9108950E94900DC8
:101C3000CF5FC73051F7CFEFF4CFA1E21A2EAA1B26
:101C4000BB1BFD010DC0AA1FBB1FEE1FFF1FA2176C
:101C5000B307E407F50720F0A21BB30BE40BF50B69
:101C6000661F771F881F991F1A9469F760957095F2
:101C7000809590959B01AC01BD01CF010895F99924
:101C8000FECF92BD81BDF89A992780B50895262F81
:101C9000F999FECF92BD81BDF89A019700B4021662
:101CA00039F01FBA20BD0FB6F894FA9AF99A0FBE10
:061CB0000895F894FFCF37
:061CB600FFFF01A0010088
:00000001FF
