:100000000C9464000C949C000C9481000C9481006E
:100010000C9481000C9481000C9481000C9481005C
:100020000C9481000C9481000C9481000C9481004C
:100030000C9481000C9481000C9481000C9481003C
:100040000C9481000C9481000C9481000C9481002C
:100050000C9481000C9481000C9481000C9481001C
:100060000C9481000C94810009021200010100A08F
:100070001909040000000000000012011001FF0037
:100080000008C016DC050701010200010E0355003F
:10009000530042006100730070001C03770077007A
:1000A00077002E00660069007300630068006C0032
:1000B0002E0064006500040309040D0C0B0A0908F6
:1000C000070605040302010011241FBECFEFD8E08C
:1000D000DEBFCDBF11E0A0E0B1E0E6E6FCE102C08A
:1000E00005900D92A430B107D9F721E0A4E0B1E06A
:1000F00001C01D92A235B207E1F70E94B40C0C9426
:10010000310E0C940000A82FB92F80E090E041E060
:1001100050EA609530E009C02D9182279795879528
:1001200010F084279527305EC8F36F5FA8F3089519
:10013000EADF8D939D930895CF93CFB7CF93DF934D
:10014000C3954F9BE9F74F9B0BC04F9B09C04F9B3B
:1001500007C04F9B05C04F9B03C04F9B01C089C088
:100160006F93C0912E01DD27CA5CDE4F2F9365E5AA
:100170004F9B03C02F916F91E6CF0F931F934F9327
:1001800020E040E15F9309B1047807FB27F93F9332
:1001900050E03BE039C0147840642F77012F5F5F57
:1001A0001EC0406819B114782F7752501FC04064A8
:1001B00009B12F770478D1F15F5F00C023C040629E
:1001C00019B12F77147891F15F5F00C025C00478D2
:1001D0001027515012F45D5F0000115027952C3FFD
:1001E00019B1C8F614780127015027952C3FC8F69D
:1001F0004227499309B1047810274F73115027956E
:100200002C3FA8F64695469519B1147879F0012748
:10021000015027952C3F98F66B5A60F3315009B185
:10022000B0F600C011E01CBB002717C03B50319551
:10023000C31BD04011E01CBB0881033CF9F00B3418
:10024000E9F020912C011981110F1213EDCF09361D
:1002500051F10D3211F0013E39F7009334013F9115
:100260005F914F911F910F912F916F91CCB3C0FD72
:1002700067CFDF91CF91CFBFCF91189520913401F7
:10028000222369F310913201112339F534303AF108
:100290003093320120932D0110912E013BE0311B50
:1002A00030932E011CC0009132010130B4F40AE5F4
:1002B00030912F0134FD14C000932F01C1E2D1E031
:1002C00013C0052710E000C000000BB91AC00527B5
:1002D00010E0221F1DC010E021C04AE502C032ED2F
:1002E000432FC4E1D0E032E01AB114685F9A0BB139
:1002F0001AB954E820E865E320FF05270BB92795D4
:1003000017951C3FF0F66695B8F7B1F720FF052763
:100310000BB9279517951C3FD0F62795179517FF12
:10032000052700001C3F0BB9B0F629913A9519F743
:100330000B7710913301110FC651D0400BB911F05A
:1003400010932C0111E01CBB00681AB11B77402FE1
:100350004B7754E05A95F1F70BB91AB94BB97FCFE7
:10036000259A23982B9A50E219D05A95E9F70895C7
:10037000AC0188E606D0842F04D089E602D0852F10
:1003800000C010D028E030E0382780FB869507D0E9
:100390002A95D1F730FB03D001D0089568942398B3
:1003A0002B9A16F02B98239AE0915001F09151016D
:1003B0003197F0F72D9AE3B1E3FBE0915001F09112
:1003C00051013197F0F72D98089520ECE7DF46F4BE
:1003D0002A95E1F780E02AE1E5DF2A95E9F7DECF0B
:1003E00028E030E0DBDF869587F938272A95D1F7BA
:1003F000D5DF27F9322772F3D1DFD0CFDB01742F9D
:10040000B7DF84E2BEDFE1DF8D937A95D1F70895FF
:10041000DB01742FADDF83EFB4DF8DE1B2DF84E663
:10042000B0DF8D91AEDF82E7ACDFCFDF8078D9F728
:100430007A9589F70895CF93DF93609132016350E5
:1004400067FD91C080912E01CCE0D0E0C81BD1099E
:10045000CA5CDE4F80912D018D3209F0C2C0683038
:1004600009F07FC083EC809321018AE580932F01FE
:10047000109204018881807679F0CE010E941906DD
:100480008F3F09F466C09F81911169C09E819817C2
:1004900008F065C0892F63C02A8110922A019981D2
:1004A00091110AC010922B012AE231E082E03093D0
:1004B000310120933001E7CF953029F420933301A7
:1004C0002AE231E0F4CF963099F59B81913059F4CE
:1004D0008AE790E0909331018093300182E190E4CB
:1004E00090930401D0CF923019F488E690E0F2CFD7
:1004F0009330A9F7211108C086EB90E09093310169
:100500008093300184E0EBCF213041F48AE990E020
:1005100090933101809330018CE1E1CF2230F9F6E4
:100520008CE890E090933101809330018EE0D7CF3A
:10053000983059F0993019F420933501C1CF81E0FA
:100540009A3009F4BDCF80E0BBCF25E331E081E0F4
:10055000AECF988197FD8E8190E8909304018093AF
:1005600005011092320180912F0184FF2DC0C091AE
:100570000501CF3F49F16C2FC93008F068E08C2F9E
:10058000861B809305018091210198E8892780933B
:100590002101CC2361F02091040127FF35C082E2C4
:1005A00091E00E948E08C82F893008F054C06C2F4B
:1005B00082E291E00E949800CC5FCC3019F08FEF7E
:1005C00080930501C0932F0184E199B1947831F4AF
:1005D0008150D9F71092330110922C01DF91CF9105
:1005E00008958091040187FFBCCFCE010E94240AA8
:1005F0008F3F21F48EE180932F01B3CF882309F43C
:10060000B0CF10920501ADCF8091300190913101B2
:1006100026FF17C0FC01A2E2B1E0262F280F34917B
:100620003D9331962E13FBCF2FEF260F30E02F5F37
:100630003F4F820F931F9093310180933001C62F5B
:10064000B6CFA2E2B1E0FC01262F280F31913D93F5
:100650002E13FCCFE9CF8FEF80930501CEE1B2CF0F
:100660008AE580932F018FEF80930501E9E6F0E0A2
:10067000808182608083E89A08958EBD0DB407FE64
:10068000FDCF8EB5089580914D018CBD80914C01B8
:100690008DBD08958823B1F0883050F12DE333E00B
:1006A000309308012093070110924C0191E0909340
:1006B0004E018A30B9F040F48830C1F08930A1F0A1
:1006C00081E507C08BE0EACF8C3031F08D30C1F787
:1006D00080E580934D01089581E580934D019093CD
:1006E0004C01089582E5F9CF82E5F3CF83E5F1CFA0
:1006F00023EE33E030930801209307018430A1F00A
:1007000030F48230A9F0833089F08AEF06C0863059
:1007100039F040F08730C9F784E080934E010895A6
:1007200088E0FBCF80E1F9CF8FE1F7CF8FE3F5CF02
:100730008DE7F3CF0F931F93CF93DF93C82F0E94C2
:100740004A0311E0DFE3C83010F41FE0DAEFC3E042
:100750002A9A812F0E94CD052A988D2F0E94CD05BF
:10076000E0910701F09108018CEA0995E0910701F9
:10077000F091080183E50995E0910701F0910801E6
:1007800080E00995082FE0910701F091080180E0D1
:100790000995033511F4882349F08FE19EE4019710
:1007A000F1F700C00000C15099F681E0DF91CF91D0
:1007B0001F910F91089526B590914E0186B5821B29
:1007C0008917E0F308951F93CF93DF93182F2D9887
:1007D000D8E0C0E017FF16C02B9A110F0E94DB0370
:1007E0002D9A0E94DB0383B182958170CC0FC82BB8
:1007F0002D980E94DB03D15069F78C2FDF91CF91A8
:100800001F9108952B98E9CF84B18C6284B9249804
:100810002A982D9881E00E94CD052A9A81E00E94B5
:10082000CD052A9880910701909108018D5393403E
:1008300011F40E9443038FEF80930001089584B167
:100840008C6284B980910701909108018D53934087
:1008500011F40E9443038FEF809300012A9A0895B8
:1008600084B1837D84B985B1837D85B910921701E8
:1008700008950F931F93CF93DF93809106018823F0
:1008800079F00E949A03811109C09091060190931A
:100890001701DF91CF911F910F91089510920601DA
:1008A00080911701CAEBD0E00C2F035F882331F051
:1008B000DF91CF911F910F910C949A03FE01149137
:1008C000812F0E949A03811105C010931701109384
:1008D0000601DFCF21960C13F1CF109217018AE0A9
:1008E0000E944A0381E0D5CF0F931F938B019C0197
:1008F00022503109011511052640310550F5DC0162
:10090000CB0121E1B695A795979587952A95D1F7C3
:10091000209100012817E9F080930001E091070180
:10092000F09108018DE40995E0910701F09108012B
:1009300080E00995E0910701F091080180910001A4
:100940000995E0910701F091080180E01F910F9156
:1009500009941F910F910895CF92DF92EF92FF9229
:100960006B017C010E9474048C2D880F880F880F06
:100970008870E0910701F091080180620995D70124
:10098000C60129E0B695A795979587952A95D1F741
:10099000E0910701F09108010995D701C601B695CC
:1009A000A79597958795E0910701F0910801099522
:1009B000E0910701F091080180E0FF90EF90DF9057
:1009C000CF900994CF92DF92EF92FF92CF93DF9373
:1009D0006B017C01D42FC22F0E9474048C2D880FD0
:1009E000880F880F8870E0910701F09108018064FA
:1009F0000995D701C60129E0B695A79597958795E2
:100A00002A95D1F7E0910701F09108010995D701E6
:100A1000C601B695A79597958795E0910701F09146
:100A200008010995E0910701F09108018D2F0995C2
:100A3000C11108C080E0DF91CF91FF90EF90DF906F
:100A4000CF900895DF3F71F0CEE181E00E94CD05A7
:100A5000C701B6010E94AC048D1761F3C15049F47F
:100A600081E0E9CFC701B6010E94AC048F3F61F776
:100A7000E1CFC53150F784E0CB3040F382E0E6CFE0
:100A8000CF92DF92EF92FF92CF936B017C010E9495
:100A90007404E0910701F09108018CE40995D701F5
:100AA000C60129E0B695A795979587952A95D1F720
:100AB000E0910701F09108010995D701C601B695AB
:100AC000A79597958795E0910701F0910801099501
:100AD000E0910701F091080180E00995C9E181E00A
:100AE0000E94CD05C701B6010E94AC048F3F81F47E
:100AF000C15039F481E0CF91FF90EF90DF90CF901B
:100B00000895C03160F784E0C63050F382E0E8CF4A
:100B100080E0F1CFCF93DF93EC01E0910701F091FA
:100B2000080180EA0995E0910701F09108018D2FF5
:100B30000995E0910701F09108018C2F0995E0914A
:100B40000701F091080180E0DF91CF9109941F9394
:100B5000CF93DF93D82F192FC62FE0910701F09183
:100B6000080180EC0995E0910701F0910801812FBF
:100B70000995E0910701F09108018D2F0995E09109
:100B80000701F09108018C2F09958BE00E94CD059B
:100B900080E0DF91CF911F91089526B596B5921B05
:100BA0009035E0F38150C9F70895262FFC0142816A
:100BB0005381052E000C660B770B40931201509366
:100BC00013016093140170931501868197819093AE
:100BD0001101809310012093180108950F931F9322
:100BE000522F2091160121110FC0FC0102811381A7
:100BF000012E000C220B330B0093120110931301F2
:100C00002093140130931501242F30E030930D010F
:100C100020930C0150FD40930F01FC0186819781C8
:100C20009093110180931001609318011F910F910F
:100C30000895CF92DF92EF92FF920F931F93CF937D
:100C40008C01DC011196CC911197C130F1F48091A7
:100C500017010E944A031092160140980E94040452
:100C60000E94390480930B01882321F00E943004F4
:100C70001092060180910B018093190189E191E0A6
:100C800090933101809330018BC0C23349F480913D
:100C900017010E944A0340980E941F04C0E0EECF53
:100CA000C33379F42A98FC01828180930301868101
:100CB00097819093110180931001C0931801CFEF99
:100CC000DDCFC43389F42A9812968C9112978093C1
:100CD000030116968D919C919093110180931001C0
:100CE00082E380931801EBCFC63421F440980E9430
:100CF000EE0CD4CFC73419F40E94F30CCFCFC83414
:100D000019F40E94080DCACFCA3441F4FC01828153
:100D10000E941D0D80931901C1E0B0CFCB3429F49E
:100D200012968C910E944E0DF5CFCC3409F078C00C
:100D3000FC01838191E0811101C090E090930A0150
:100D4000D80112969C91129790930201882309F47E
:100D50005FC0823071F51496CD90DC900D2C000CA4
:100D6000EE08FF08C0921201D0921301E092140124
:100D7000F09215010E94F30CC0910201C114D1043C
:100D8000F1E0EF06F10408F0CE608C2F0E941D0DFB
:100D90008823D1F00E94080D8EEF80931901C1E0E5
:100DA0008C2FCF911F910F91FF90EF90DF90CF90FC
:100DB0000895C12CD12C76018130A1F6F801C480B0
:100DC000D12CF12CE12CCECFC114D10481E0E80666
:100DD000F10420F08D2D0E941D0D07C0AFEFCA1643
:100DE000D104E104F10409F0A8F78C2D0E941D0D37
:100DF0000E94F30C8C2F81600E941D0DD801169665
:100E00008D919C91909311018093100186E369CF9D
:100E10000E94F30C61E0F80182810E947C0DEECF0C
:100E2000CD34E1F5FC01938181E0911101C080E0B6
:100E300080930A01D80112968C9112978093020137
:100E400014968C91149780930101992381F092302C
:100E5000D9F415969C91092E000CAA0BBB0B80931C
:100E6000120190931301A0931401B0931501F8019E
:100E700086819781909311018093100185E380937F
:100E80001801109209011BCF913021F490E0B0E0DD
:100E9000A0E0E5CF80E090E0DC01E1CFCD3571F45A
:100EA00014968C91149780930E0116968D919C91B7
:100EB00090931101809310018AE313CFCC3561F434
:100EC000FC01848180930E018681978190931101AA
:100ED0008093100189E305CFCE3549F40E94D70DE8
:100EE000C82F813009F0BAC080931901C7CECF3521
:100EF00019F40E94EA0D0ECFCA3509F047C0409898
:100F00000E948D0DD80112968C91129713963C91E8
:100F1000139714962C91149715969C91159780937E
:100F2000120130931301209314019093150116962A
:100F30006C916F710E949E0DF80186818295869555
:100F4000877086838823A9F00E94BF0D80931901C2
:100F5000D80116968C91823020F00E94BF0D8093AC
:100F60001A01F8018681833020F00E94BF0D809322
:100F70001B01D80116968C91843020F00E94BF0D81
:100F800080931C010E949B0DC4E078CEC23029F4EE
:100F90000E943004419A409A81CEC33041F5E091DD
:100FA0000701F091080112968C910995809319011F
:100FB000E0910701F0910801D80113968C910995F1
:100FC00080931A01E0910701F0910801D80114966D
:100FD0008C91099580931B01E0910701F091080124
:100FE000D80115968C91099580931C01CDCF62E0B4
:100FF000C43009F482C063E0C73009F47EC0C53054
:1010000019F40E94390486CEC63049F4FC012581CA
:101010002F70448161E0C8010E94EE0550CEC830B7
:1010200021F420E040E064E0F6CFC93089F481E0AB
:1010300080931601F80182819381A481B581809308
:10104000120190931301A0931401B093150126CEC1
:10105000CA3039F412968C918093170110921901BD
:101060005BCEC43141F41092190180911701809335
:101070001A01C2E003CECB30A1F4FC01828193813E
:1010800090935101809350012A9A229A83E00E9402
:10109000CD052A98409880E10E94CD050E94B001BC
:1010A000FDCDCC30C1F480EC0E94C10180E00E94F3
:1010B000C1018AE00E94CD052A9A85E00E94CD05F3
:1010C0002A9885E00E94CD0584B1837D84B985B1DD
:1010D000837D85B9E3CDCD3019F40E94E5011ACEA8
:1010E000CE3029F412968C910E94C101B7CF65E0F1
:1010F000CF3019F0C03129F466E0C8010E94D5054F
:10110000DECDCF3709F0CACD89E18093190181E89E
:1011100080931A0110921B018FE066CF8F929F92ED
:10112000AF92BF92CF92DF92EF92FF920F931F93F5
:10113000CF93DF93EC01809118019EEF980F9230CE
:1011400048F0853039F0833329F0893319F086333C
:1011500009F076C170E00091100110911101601743
:10116000710708F48B01F02E4198809118018530A9
:1011700049F5402FBE0180911201909113010E9408
:10118000FE018091120190911301A0911401B09180
:101190001501800F911FA11DB11D80931201909325
:1011A0001301A0931401B093150180911001909147
:1011B0001101801B910B9093110180931001892BD9
:1011C00001F162C0833371F5EC2ECC2EDD2E8C2D17
:1011D0008E198F15C8F08091100190911101801B1C
:1011E000910B9093110180931001892B09F04CC051
:1011F00080910301882329F02A9A25E02A95F1F7A6
:1012000000001092180140C0E0910701F091080120
:1012100080E00995F60181936F01F5E0FA95F1F709
:101220000000D5CF863309F05EC080910A01D12C31
:10123000C12C5801811111C081E0A81AB108CF1446
:1012400088F481E0AC14BD0409F080E00E944E0DEA
:1012500089932FEFC21AD20AF2CFE1E0AE1AB10899
:10126000CF1410F18091100190911101801B910B0E
:101270009093110180931001892B31F40E94080D85
:101280001092180110920A01419A40988F2DDF9117
:10129000CF911F910F91FF90EF90DF90CF90BF9073
:1012A000AF909F908F90089581E0AC14BD0409F039
:1012B00080E00E944E0D899380911201909113015C
:1012C000A0911401B09115010196A11DB11D80934B
:1012D000120190931301A0931401B0931501FFEF35
:1012E000CF1ADF0ABDCF893309F5EC2ECC2EDD2EC7
:1012F0008C2D8E198F1580F0809110019091110125
:10130000801B910B9093110180931001892B09F0A0
:10131000BBCF0E949B0D75CF0E94BF0DF60181933C
:101320006F01F5E0FA95F1F70000E2CF9EEF980F1C
:10133000923008F085C0C0901001D09011010C15BA
:101340001D0508F46801FC2C10E000E0EE24EA948E
:10135000823009F06FC0EC2E0C2F1D2F2FEF902F35
:101360009E199F1538F080911001909111018C19F0
:101370009D0921CF60911201709113018091140198
:10138000909115014B015C0131E1B694A7949794BB
:1013900087943A95D1F728110E9474046091120144
:1013A0007091130180911401909115010E94AC0479
:1013B000F80181938F018091120190911301A09106
:1013C0001401B09115010196A11DB11D8093120168
:1013D00090931301A0931401B0931501282DBFCF52
:1013E0008091120190911301A0911401B091150107
:1013F0005E01A00EB11E8115F0E19F07A105B105A8
:10140000E0F40E948A05F501808380911201909199
:101410001301A0911401B09115010196A11DB11DF8
:101420008093120190931301A0931401B0931501BE
:101430000F5F1F4F0F15A0F296CFF501E082E5CFA9
:10144000419AFF24FA9422CF8F929F92AF92BF923B
:10145000CF92DF92EF92FF920F931F93CF93DF9380
:101460008C0180911801882309F466C2813059F0FB
:10147000982F9D7F943039F0982F977F923319F0F1
:10148000853309F059C24198C0901001D0901101E4
:10149000E62EF12CCE14DF0408F47601CE2D8091D7
:1014A00018018630C9F54E2DB80180911201909136
:1014B00013010E9408028091120190911301A091E2
:1014C0001401B09115018E0D9F1DA11DB11D8093BA
:1014D000120190931301A0931401B0931501809110
:1014E0001001909111018E199F0990931101809321
:1014F0001001892B49F1C0E0419A40988C2FDF916F
:10150000CF911F910F91FF90EF90DF90CF90BF9000
:10151000AF909F908F900895823311F5D02F68017E
:101520008C2D8D1B8C1798F08091100190911101DA
:101530008E199F099093110180931001892BD9F680
:101540008091030181112A9A10921801E2C0E09162
:101550000701F0910801D6018D916D010995E0CF49
:10156000853309F0EBC080910A0181111BC0D02F97
:1015700068018C2D8D1B8C1708F4CDC08091100153
:10158000909111018E199F09909311018093100180
:10159000892B09F0B0CF809101018130A9F60E941A
:1015A000080DD2CF60911201709113018091140146
:1015B00090911501D0E461157105B1E08B0791059B
:1015C00008F0D0E88D2E912CB12CA12CA50194010E
:1015D0000E940F0ED61BDC1708F4CD2FCC151D046E
:1015E00011F008F0CC2D8091090181113AC00E94C0
:1015F000F30C80910201409112015091130160910E
:1016000014017091150141155105E1E06E07710556
:1016100048F09FE076956795579547959A95D1F74D
:101620004E70842B0E941D0D81117FC0809112018C
:1016300090911301A0911401B09115010097F1E070
:10164000AF07B10588F0892F0E941D0D81116DC073
:10165000809112010E941D0D811167C081E080936D
:101660000901D02F780121C08F3F9105A105B10557
:1016700089F380F3E8CFD7018D917D010E941D0D84
:10168000811153C08091120190911301A091140116
:10169000B09115010196A11DB11D80931201909387
:1016A0001301A0931401B09315018E2D8D1B8C177F
:1016B00010F380911001909111018C1B910990936E
:1016C000110180931001892B89F0609112017091B2
:1016D00013018091140190911501A50194010E94BC
:1016E0000F0E672B682B692B09F006CF0E94080D9F
:1016F000EFE1FEE43197F1F700C0000080911001A6
:1017000090911101892B09F0F7CE109218011092D7
:101710000A01C1E0F1CED6018D916D010E941D0D2F
:10172000882309F426CFCEEFE7CE0E94080D109251
:10173000180110920A0110920901F5CF8A3369F558
:10174000D12CC12C18C0D0910E01DD2389F0D930E5
:1017500008F0D8E06D2FF801EC0DFD1D80810E948E
:101760009E0D8111E7C080910E018D1B80930E01AB
:10177000BFEFCB1ADB0ACC1630F3809110019091A9
:1017800011018E199F099093110180931001892BEB
:1017900009F0B1CE0E949B0DD7CED02F68018130C9
:1017A00009F469C0843009F0C7C08091120190919A
:1017B0001301A0911401B091150168010097A14097
:1017C000B10508F4B2C0CCEF97CEF60141916F019C
:1017D0006091120170911301809114019091150193
:1017E00020910C0130910D01232B39F421E00E944E
:1017F000E204882369F1CBEF7FCE20E00E94E2046F
:101800008111F9CF80910F01815080930F018111D7
:101810001FC060910C0170910D0171956195710966
:1018200090E080E0009112011091130120911401C9
:101830003091150160237123822393230E94400578
:10184000882311F0CAEF58CE80910C0180930F01CC
:101850008091120190911301A0911401B091150192
:101860000196A11DB11D8093120190931301A093C5
:101870001401B09315018C2D8D1B8C1708F4A5CF86
:1018800080911001909111018E199F09909311017F
:1018900080931001892B09F02ECE80910C0190913C
:1018A0000D01009709F450CE20910F012817190659
:1018B00009F44ACE009112011091130120911401F4
:1018C0003091150101501109210931099195819536
:1018D0009109B0E0A0E0BC01CD0160237123822317
:1018E00093230E944005882309F42ECEABCFD60166
:1018F0006D916D0180911201909113010E94A705D5
:10190000811161CF8091120190911301A091140176
:10191000B09115010196A11DB11D80931201909304
:101920001301A0931401B09315018C2D8D1B8C17FE
:10193000F0F2D5CDCDEFE0CDCFEFDECDA0E8B0E039
:101940001C92E1E8F0E010828081886080838081D1
:101950008260808388EE93E0909389008093880072
:101960008C9180648C9308951BB88BB18B778BB965
:101970008AB184688AB92FEF30E782E02150304085
:101980008040E1F700C000008AB18B778AB914B8B3
:10199000219A93E097B93A9888B18C6388B94098B6
:1019A0002FEF31EE84E0215030408040E1F700C05D
:1019B0000000409A41982FEF31EE84E021503040F2
:1019C0008040E1F700C00000419A95BD0E949E0C46
:1019D0000E94300378940E941B02FDCF24982C9A19
:1019E00023982B9A089524982C9A23982B9A8AE16D
:1019F0008A95F1F700C0249A2C988AE18A95F1F72C
:101A000000C0239A2B988AE18A95F1F700C00895C7
:101A1000239A2B98249A2C988AE08A95F1F700C093
:101A200023982B9A8AE08A95F1F700C024982C9A83
:101A30008AE18A95F1F700C0089598E0239A2B98DF
:101A40002AE02A95F1F700C087FF25C024982C9A38
:101A50002AE02A95F1F700C023982B9A2AE12A95CB
:101A6000F1F700C0880F915049F7239A2B982498DA
:101A70002C9A8AE08A95F1F700C023982B9A2AE1E4
:101A80002A95F1F700C083B1239A2B9882958F7025
:101A9000809581700895249A2C98DACF282F249865
:101AA0002C9A98E080E0239A2B983AE13A95F1F746
:101AB00000C023982B9A3AE13A95F1F700C0880FBD
:101AC0001C998160915079F7239A2B98211111C0AC
:101AD000249A2C989AE09A95F1F700C023982B9AB3
:101AE0003AE03A95F1F700C0239A2B9824982C9A63
:101AF000089524982C9AEECF880F613009F4816004
:101B00000C941D0D2D98089584B18C6284B924988D
:101B10000E94820D2B982A9808952A982D980E9449
:101B2000DB032A9A2B9A0E94DB032D9A0E94DB0387
:101B30002D980C94DB032A980C94820DCF93DF939D
:101B4000D82F6150770BC1E001C0CC0F6A95EAF73E
:101B5000C11104C080E0DF91CF9108950E94820DF1
:101B60008C2F8D2351F02B9A0E94DB032D9A0E941B
:101B7000DB030E94820DC695EBCF2B98F5CFCF9358
:101B8000DF93D8E0C0E00E94820D0E94DB032D9A13
:101B900083B182958170CC0FC82B0E94DB030E9419
:101BA000820DD15081F78C2FDF91CF910895CF9383
:101BB0000E94840D2A9A85E38A95F1F700000E941D
:101BC000DB03C3B10E949B0DC295C17081E08C27DD
:101BD000CF910895CF930E94840D2A9A85E38A9528
:101BE000F1F7000068E080EC0E949E0DC0E00E94CA
:101BF000820D0E94DB032D9A0E94DB031C9908C012
:101C0000CA5F0E94820D0E949B0D8C2FCF91089578
:101C10000E94820DCF5FC73051F7CFEFF4CFA1E222
:101C20001A2EAA1BBB1BFD010DC0AA1FBB1FEE1F56
:101C3000FF1FA217B307E407F50720F0A21BB30BA1
:101C4000E40BF50B661F771F881F991F1A9469F71D
:101C500060957095809590959B01AC01BD01CF0179
:061C60000895F894FFCF87
:041C6600FF01A001D9
:00000001FF
