:1000000063C0000098C000007CC000007AC00000FF
:1000100078C0000076C0000074C0000072C000000C
:1000200070C000006EC000006CC000006AC000001C
:1000300068C0000066C0000064C0000062C000002C
:1000400060C000005EC000005CC000005AC000003C
:1000500058C0000056C0000054C0000052C000004C
:1000600050C000004EC0000009021200010100A0B3
:100070001909040000000000000012011001FF0037
:100080000008C016DC050701010200010E0355003F
:10009000530042006100730070001C03770077007A
:1000A00077002E00660069007300630068006C0032
:1000B0002E0064006500040309040D0C0B0A0908F6
:1000C000070605040302010011241FBECFEFD8E08C
:1000D000DEBFCDBF11E0A0E0B1E0E0E1FCE102C095
:1000E00005900D92A430B107D9F721E0A4E0B1E06A
:1000F00001C01D92A235B207E1F70E94990C0C9441
:10010000060E7ECFA82FB92F80E090E041E050EAA4
:10011000609530E009C02D9182279795879510F062
:1001200084279527305EC8F36F5FA8F30895EADF50
:100130008D939D930895CF93CFB7CF93DF93C395BE
:100140004F9BE9F74F9B0BC04F9B09C04F9B07C0CC
:100150004F9B05C04F9B03C04F9B01C089C06F934D
:10016000C0912E01DD27CA5CDE4F2F9365E54F9BC2
:1001700003C02F916F91E6CF0F931F934F9320E011
:1001800040E15F9309B1047807FB27F93F9350E002
:100190003BE039C0147840642F77012F5F5F1EC0A9
:1001A000406819B114782F7752501FC0406409B1CC
:1001B0002F770478D1F15F5F00C023C0406219B18E
:1001C0002F77147891F15F5F00C025C00478102765
:1001D000515012F45D5F0000115027952C3F19B16A
:1001E000C8F614780127015027952C3FC8F64227FE
:1001F000499309B1047810274F73115027952C3F6C
:10020000A8F64695469519B1147879F00127015062
:1002100027952C3F98F66B5A60F3315009B1B0F630
:1002200000C011E01CBB002717C03B503195C31B19
:10023000D04011E01CBB0881033CF9F00B34E9F01D
:1002400020912C011981110F1213EDCF093651F1B4
:100250000D3211F0013E39F7009334013F915F9167
:100260004F911F910F912F916F91CCB3C0FD67CF2C
:10027000DF91CF91CFBFCF911895209134012223E8
:1002800069F310913201112339F534303AF130938A
:10029000320120932D0110912E013BE0311B309350
:1002A0002E011CC0009132010130B4F40AE53091F6
:1002B0002F0134FD14C000932F01C1E2D1E013C01F
:1002C000052710E000C000000BB91AC0052710E098
:1002D000221F1DC010E021C04AE502C032ED432FAD
:1002E000C4E1D0E032E01AB114685F9A0BB11AB9D8
:1002F00054E820E865E320FF05270BB927951795FB
:100300001C3FF0F66695B8F7B1F720FF05270BB94B
:10031000279517951C3FD0F62795179517FF0527AA
:1003200000001C3F0BB9B0F629913A9519F70B77ED
:1003300010913301110FC651D0400BB911F0109339
:100340002C0111E01CBB00681AB11B77402F4B77C2
:1003500054E05A95F1F70BB91AB94BB97FCF259AEA
:1003600023982B9A50E218D05A95E9F70895AC01DA
:1003700088E606D0842F04D089E602D0852F00C0FD
:100380000FD028E030E0382780FB869506D02A95EC
:10039000D1F730FB02D000C0689423982B9A16F056
:1003A0002B98239AE0915001F09151013197F0F789
:1003B0002D9AE3B1E3FBE0915001F09151013197A7
:1003C000F0F72D98089520ECE7DF46F42A95E1F741
:1003D00080E02AE1E5DF2A95E9F7DECF28E030E08A
:1003E000DBDF869587F938272A95D1F7D5DF27F9FE
:1003F000322772F3D1DFD0CFDB01742FB8DF84E274
:10040000BFDFE1DF8D937A95D1F70895DB01742F7B
:10041000AEDF83EFB5DF8DE1B3DF84E6B1DF8D9131
:10042000AFDF82E7ADDFCFDF8078D9F77A9589F744
:100430000895CF93DF9360913201635067FD90C0C0
:1004400080912E01CCE0D0E0C81BD109CA5CDE4F00
:1004500080912D018D3209F0BFC0683009F07EC057
:1004600083EC809321018AE580932F01109204018F
:100470008881807671F0CE01CCD38F3F09F466C0BD
:100480009F81911169C09E81981708F065C0892FDE
:1004900063C02A8110922A01998191110AC0109299
:1004A0002B012AE231E082E03093310120933001C8
:1004B000E7CF953029F4209333012AE231E0F4CFDD
:1004C000963099F59B81913059F48AE790E09093AA
:1004D00031018093300182E190E490930401D0CF08
:1004E000923019F488E690E0F2CF9330A9F7211109
:1004F00008C086EB90E0909331018093300184E056
:10050000EBCF213041F48AE990E090933101809360
:1005100030018CE1E1CF2230F9F68CE890E0909345
:100520003101809330018EE0D7CF983059F0993067
:1005300019F420933501C1CF81E09A3009F4BDCF81
:1005400080E0BBCF25E331E081E0AECF988197FD1D
:100550008E8190E8909304018093050110923201FE
:1005600080912F0184FF2BC0C0910501CF3F39F14D
:100570006C2FC93008F068E08C2F861B8093050132
:100580008091210198E8892780932101CC2359F09B
:100590002091040127FF32C082E291E085D5C82F67
:1005A000893008F052C06C2F82E291E0C0DDCC5F50
:1005B000CC3019F08FEF80930501C0932F0184E1B7
:1005C00099B1947831F48150D9F710923301109297
:1005D0002C01DF91CF9108958091040187FFBECF58
:1005E000CE0129D78F3F21F48EE180932F01B6CF22
:1005F000882309F4B3CF10920501B0CF8091300168
:100600009091310126FF17C0FC01A2E2B1E0262F34
:10061000280F34913D9331962E13FBCF2FEF260FE9
:1006200030E02F5F3F4F820F931F909331018093F3
:100630003001C62FB8CFA2E2B1E0FC01262F280F6F
:1006400031913D932E13FCCFE9CF8FEF80930501BD
:10065000CEE1B3CF8AE580932F018FEF8093050120
:10066000E9E6F0E0808182608083E89A08958EBD9B
:100670000DB407FEFDCF8EB5089580914D018CBD60
:1006800080914C018DBD08958823B1F0883050F1E0
:1006900027E333E0309308012093070110924C01C7
:1006A00091E090934E018A30B9F040F48830C1F067
:1006B0008930A1F081E507C08BE0EACF8C3031F0C2
:1006C0008D30C1F780E580934D01089581E58093D9
:1006D0004D0190934C01089582E5F9CF82E5F3CF67
:1006E00083E5F1CF2AED33E0309308012093070131
:1006F0008430A1F030F48230A9F0833089F08AEFA1
:1007000006C0863039F040F08730C9F784E0809326
:100710004E01089588E0FBCF80E1F9CF8FE1F7CF5C
:100720008FE3F5CF8DE7F3CF0F931F93CF93DF9335
:10073000C82FAADF11E0DFE3C83010F41FE0DAEFC2
:10074000C3E02A9A812F19D22A988D2F16D2E091D0
:100750000701F09108018CEA0995E0910701F091F9
:10076000080183E50995E0910701F091080180E017
:100770000995082FE0910701F091080180E00995A3
:10078000033511F4882349F08FE19EE40197F1F7D6
:1007900000C00000C150A9F681E0DF91CF911F9108
:1007A0000F91089526B590914E0186B5821B891749
:1007B000E0F308951F93CF93DF93182F2D98D8E07F
:1007C000C0E017FF13C02B9A110FECDF2D9AEADF60
:1007D00083B182958170CC0FC82B2D98E3DFD15067
:1007E00081F78C2FDF91CF911F9108952B98ECCF3B
:1007F00084B18C6284B924982A982D9881E0BDD167
:100800002A9A81E0BAD12A98809107019091080133
:100810008753934009F431DF8FEF809300010895EF
:1008200084B18C6284B9809107019091080187534B
:10083000934009F422DF8FEF809300012A9A0895F4
:1008400084B1837D84B985B1837D85B91092170108
:1008500008950F931F93CF93DF9380910601882310
:1008600071F062DF811109C0909106019093170128
:10087000DF91CF911F910F91089510920601809101
:100880001701CAEBD0E00C2F035F882329F0DF911A
:10089000CF911F910F9148CFFE011491812F44DF1A
:1008A000811105C01093170110930601E1CF219625
:1008B0000C13F2CF109217018AE0E6DE81E0D8CF68
:1008C0000F931F938B019C012250310901151105D3
:1008D0002640310550F5DC01CB0121E1B695A79505
:1008E000979587952A95D1F7209100012817E9F06F
:1008F00080930001E0910701F09108018DE40995D2
:10090000E0910701F091080180E00995E09107016D
:10091000F0910801809100010995E0910701F091A3
:10092000080180E01F910F9109941F910F91089584
:10093000CF92DF92EF92FF926B017C01862F880F9E
:10094000880F880F8870E0910701F091080180629C
:100950000995D701C60129E0B695A7959795879582
:100960002A95D1F7E0910701F09108010995D70187
:10097000C601B695A79597958795E0910701F091E7
:1009800008010995E0910701F091080180E0FF90CE
:10099000EF90DF90CF900994CF92DF92EF92FF9289
:1009A0006B017C018DDFC701B601FF90EF90DF90F6
:1009B000CF90BECFCF92DF92EF92FF92CF93DF9393
:1009C0006B017C01D42FC22F7BDF8C2D880F880F09
:1009D000880F8870E0910701F09108018064099503
:1009E000D701C60129E0B695A795979587952A95D1
:1009F000D1F7E0910701F09108010995D701C601EF
:100A0000B695A79597958795E0910701F091080114
:100A10000995E0910701F09108018D2F0995C11109
:100A200008C080E0DF91CF91FF90EF90DF90CF90F2
:100A30000895DF3F61F0CEE181E09FD0C701B601AC
:100A4000ABDF8D1771F3C15041F481E0EBCFC701EB
:100A5000B601A2DF8F3F79F7E4CFC53168F784E0B4
:100A6000CB3058F382E0E9CFCF92DF92EF92FF9242
:100A7000CF936B017C0124DFE0910701F091080125
:100A80008CE40995D701C60129E0B695A7959795FD
:100A900087952A95D1F7E0910701F0910801099512
:100AA000D701C601B695A79597958795E09107015F
:100AB000F09108010995E0910701F091080180E0AB
:100AC0000995C9E181E059D0C701B60165DF8F3FC3
:100AD00081F4C15039F481E0CF91FF90EF90DF9025
:100AE000CF900895C03170F784E0C63060F382E0A3
:100AF000EACF80E0F1CFCF93DF93EC01E0910701E3
:100B0000F091080180EA0995E0910701F091080150
:100B10008D2F0995E0910701F09108018C2F09951F
:100B2000E0910701F091080180E0DF91CF910994F5
:100B30001F93CF93DF93D82F192FC62FE091070172
:100B4000F091080180EC0995E0910701F09108010E
:100B5000812F0995E0910701F09108018D2F0995EA
:100B6000E0910701F09108018C2F09958BE005D0E9
:100B700080E0DF91CF911F91089526B596B5921B25
:100B80009035E0F38150C9F70895262FFC0142818A
:100B90005381052E000C660B770B40931201509386
:100BA00013016093140170931501868197819093CE
:100BB0001101809310012093180108950F931F9342
:100BC000522F2091160121110FC0FC0102811381C7
:100BD000012E000C220B330B009312011093130112
:100BE0002093140130931501242F30E030930D0130
:100BF00020930C0150FD40930F01FC0186819781E9
:100C00009093110180931001609318011F910F912F
:100C10000895CF92DF92EF92FF920F931F93CF939D
:100C20008C01DC011196CC911197C130E9F48091CF
:100C300017012ADD109216014098DADD0ADE809352
:100C40000B01882309F4DBC110920601F9DD8091C4
:100C50000B01809319018C2FCF911F910F91FF9061
:100C6000EF90DF90CF900895C23339F4809117014F
:100C70000BDD4098D5DDC0E039C0C33379F42A9844
:100C8000FC018281809303018681978190931101F9
:100C900080931001C0931801CFEF28C0C43389F4AA
:100CA0002A9812968C9112978093030116968D9133
:100CB0009C91909311018093100182E3809318011D
:100CC000EBCFC63419F440986DD6D5CFC73411F4A4
:100CD0006ED6D1CFC83411F47FD6CDCFCA3469F4E3
:100CE000FC0182818ED680931901C1E089E191E0F7
:100CF0009093310180933001AECFCB3421F4129622
:100D00008C91B0D6F0CFCC3409F067C0FC01838160
:100D100091E0811101C090E090930A01D8011296F0
:100D20009C91129790930201882309F450C082305D
:100D300019F51496CD90DC900D2C000CEE08FF08F0
:100D4000C0921201D0921301E0921401F0921501A9
:100D50002ED6C0910201C114D104F1E0EF06F104D6
:100D600008F0CE608C2F4DD6882389F035D68EEFD3
:100D700080931901C1E06FCFC12CD12C7601813055
:100D8000F9F6F801C480D12CF12CE12CD9CFC11493
:100D9000D10481E0E806F10418F08D2D32D607C0A9
:100DA000AFEFCA16D104E104F10409F0B0F78C2DBD
:100DB00028D6FDD58C2F816024D6D80116968D912A
:100DC0009C91909311018093100186E377CFEFD52A
:100DD00061E0F801828174D6F0CFCD34E1F5FC01F9
:100DE000938181E0911101C080E080930A01D801D4
:100DF00012968C9112978093020114968C911497FD
:100E000080930101992381F09230D9F415969C9139
:100E1000092E000CAA0BBB0B8093120190931301B7
:100E2000A0931401B0931501F801868197819093E6
:100E300011018093100185E380931801109209013C
:100E40002BCF913021F490E0B0E0A0E0E5CF80E03E
:100E500090E0DC01E1CFCD3571F414968C911497BC
:100E600080930E0116968D919C9190931101809321
:100E700010018AE323CFCC3561F4FC018481809397
:100E80000E0186819781909311018093100189E36F
:100E900015CFCE3541F468D6C82F813009F0AFC0E8
:100EA0008093190123CFCF3511F46FD61CCFCA35EB
:100EB00009F040C0409813D6D80112968C91129731
:100EC00013963C91139714962C91149715969C9118
:100ED000159780931201309313012093140190937E
:100EE000150116966C916F710AD6F801868182956C
:100EF000869587708683882391F020D68093190188
:100F0000D80116968C91823018F018D680931A0169
:100F1000F8018681833018F011D680931B01D80127
:100F200016968C91843018F009D680931C01E5D573
:100F3000C4E0DCCEC23021F483DC419A409A9BCEDF
:100F4000C33041F5E0910701F091080112968C91B0
:100F5000099580931901E0910701F0910801D801EA
:100F600013968C91099580931A01E0910701F091F5
:100F70000801D80114968C91099580931B01E0918A
:100F80000701F0910801D80115968C91099580937D
:100F90001C01CECF62E0C43009F476C063E0C730F4
:100FA00009F472C0C53011F454DC9DCEC63041F452
:100FB000FC0125812F70448161E0C801FFDD6CCE0A
:100FC000C83021F420E040E064E0F7CFC93089F474
:100FD00081E080931601F80182819381A481B5811B
:100FE0008093120190931301A0931401B093150103
:100FF00042CECA3039F412968C9180931701109228
:10100000190173CEC43141F4109219018091170176
:1010100080931A01C2E06ACECB3089F4FC01828150
:10102000938190935101809350012A9A229A83E0F0
:10103000A4DD2A98409880E1A0DD91D91CCECC3067
:1010400099F480EC9DD980E09BD98AE096DD2A9ABC
:1010500085E093DD2A9885E090DD84B1837D84B9B5
:1010600085B1837D85B907CECD3011F4ACD93BCEA7
:10107000CE3021F412968C9183D9C1CF65E0CF3068
:1010800019F0C03121F466E0C8017FDD05CECF370D
:1010900009F0F1CD89E18093190181E880931A016B
:1010A00010921B018FE073CFAF92BF92CF92DF926D
:1010B000EF92FF920F931F93CF93DF93EC018091F8
:1010C00018019EEF980F923048F0853039F0833345
:1010D00029F0893319F0863309F09EC170E0009140
:1010E0001001109111016017710708F48B01F02EA7
:1010F000419880911801853059F5402FBE018091AB
:1011000012019091130178D98091120190911301ED
:10111000A0911401B0911501800F911FA11DB11D67
:101120008093120190931301A0931401B0931501C1
:101130008091100190911101801B910B90931101EE
:1011400080931001892B09F061C0109218015EC0D4
:10115000833361F5EC2ECC2EDD2E8C2D8E198F1560
:10116000B8F08091100190911101801B910B909328
:10117000110180931001892B09F048C0809103016F
:10118000882319F32A9A25E02A95F1F70000DDCF8C
:10119000E0910701F091080180E00995F601819343
:1011A0006F01F5E0FA95F1F70000D7CF863309F02B
:1011B0004EC080910A01D12CC12C5801811110C060
:1011C00081E0A81AB108CF1480F481E0AC14BD040A
:1011D00009F080E047D489932FEFC21AD20AF3CFE7
:1011E000E1E0AE1AB108CF14A0F080911001909107
:1011F0001101801B910B9093110180931001892B99
:1012000029F4EAD31092180110920A01419A4098E9
:1012100006C181E0AC14BD0409F080E023D48993B9
:101220008091120190911301A0911401B0911501C8
:101230000196A11DB11D8093120190931301A093FB
:101240001401B0931501FFEFCF1ADF0ACCCF893319
:10125000F1F4EC2ECC2EDD2E8C2D8E198F1570F026
:101260008091100190911101801B910B90931101BD
:1012700080931001892B51F640D467CF5FD4F601DB
:1012800081936F01F5E0FA95F1F70000E5CF823028
:1012900009F090C08091120190911301A091140166
:1012A000B09115010197A109B109800F911FA11DEE
:1012B000B11D0097A240B10508F07AC0EC2ECC2EEB
:1012C000DD2E8C2D8E198F1508F032CF6091120112
:1012D00070911301809114019091150129DBF601A1
:1012E00081936F018091120190911301A0911401DB
:1012F000B09115010196A11DB11D8093120190932B
:101300001301A0931401B0931501DBCF609112017A
:10131000709113018091140190911501D1DA4091DF
:101320001201509113016091140170911501DF2C8D
:10133000DE18DB01CA0188279927AE7F1296841B2D
:10134000950BA60BB70B4D2D50E070E060E04817F1
:1013500059076A077B0708F0D82E5E01AE0CB11C56
:10136000C12CCD1004C0EC0CEF1480F2E1CE6091E2
:101370001201709113018091140190911501D8DA36
:10138000F50181935F018091120190911301A09169
:101390001401B09115010196A11DB11D8093120198
:1013A00090931301A0931401B0931501C394D9CF66
:1013B000E12CDACF833081F5EC2ECC2EDD2E8C2D76
:1013C0008E198F1508F0B4CE8091120190911301FF
:1013D000A0911401B09115018115E0E19E07A105CE
:1013E000B105C0F488DBF60181936F018091120191
:1013F00090911301A0911401B09115010196A11DC6
:10140000B11D8093120190931301A0931401B09326
:101410001501D5CF8FEFE7CF419AFF24FA948F2D96
:10142000DF91CF911F910F91FF90EF90DF90CF90C0
:10143000BF90AF9008958F929F92AF92BF92CF923C
:10144000DF92EF92FF920F931F93CF93DF938C0164
:1014500080911801882309F454C2813059F0982FE3
:101460009D7F943039F0982F977F923319F0853310
:1014700009F047C24198C0901001D0901101E62EAA
:10148000F12CCE14DF0408F47601CE2D80911801E2
:101490008630C9F54E2DB80180911201909113014B
:1014A0000E9406028091120190911301A0911401F3
:1014B000B09115018E0D9F1DA11DB11D80931201CC
:1014C00090931301A0931401B09315018091100122
:1014D000909111018E199F09909311018093100131
:1014E000892B49F1C0E0419A40988C2FDF91CF9130
:1014F0001F910F91FF90EF90DF90CF90BF90AF9032
:101500009F908F900895823311F5D02F68018C2D14
:101510008D1B8C1798F080911001909111018E19FC
:101520009F099093110180931001892BD9F6809126
:10153000030181112A9A10921801D9C0E091070184
:10154000F0910801D6018D916D010995E0CF8533A9
:1015500009F0E0C080910A0181111AC0D02F680102
:101560008C2D8D1B8C1708F4C4C0809110019091B4
:1015700011018E199F099093110180931001892BFD
:1015800009F0B0CF809101018130A9F625D2D3CFE7
:1015900060911201709113018091140190911501D5
:1015A000D0E461157105B1E08B07910508F0D0E832
:1015B0008D2E912CB12CA12CA501940105D3D61B05
:1015C000DC1708F4CD2FCC151D0411F008F0CC2D3C
:1015D00080910901811136C0EAD1809102014091C8
:1015E0001201509113016091140170911501411580
:1015F0005105E1E06E07710548F09FE0769567952B
:10160000579547959A95D1F74E70842BFAD1811151
:1016100079C08091120190911301A0911401B091B1
:1016200015010097F1E0AF07B10578F0892FE9D1F6
:10163000811168C080911201E4D1811163C081E001
:1016400080930901D02F780120C08F3F9105A1051B
:10165000B10591F388F3EACFD7018D917D01D1D106
:10166000811150C08091120190911301A091140139
:10167000B09115010196A11DB11D809312019093A7
:101680001301A0931401B09315018E2D8D1B8C179F
:1016900018F380911001909111018C1B9109909386
:1016A000110180931001892B81F0609112017091DA
:1016B00013018091140190911501A501940184D228
:1016C000672B682B692B09F00ECF86D1EFE1FEE482
:1016D0003197F1F700C00000809110019091110145
:1016E000892B09F000CF1092180110920A01C1E075
:1016F000FACED6018D916D0184D1882309F430CFC3
:10170000CEEFF1CE69D11092180110920A01109219
:101710000901F6CF8A3359F5D12CC12C17C0D091CD
:101720000E01DD2381F0D93008F0D8E06D2FF801EB
:10173000EC0DFD1D8081E3D18111E1C080910E018E
:101740008D1B80930E01BFEFCB1ADB0ACC1638F34A
:1017500080911001909111018E199F0990931101B0
:1017600080931001892B09F0BDCEC7D1E4CED02FD4
:101770006801813009F466C0843009F0C2C08091EC
:10178000120190911301A0911401B091150168010B
:101790000097A140B10508F4ADC0CCEFA4CEF6018E
:1017A00041916F01609112017091130180911401B8
:1017B0009091150120910C0130910D01232B31F4F2
:1017C00021E0F8D8882359F1CBEF8DCE20E0F2D874
:1017D0008111FACF80910F01815080930F01811107
:1017E0001EC060910C0170910D0171956195710998
:1017F00090E080E0009112011091130120911401FA
:101800003091150160237123822393232DD98823DE
:1018100011F0CAEF68CE80910C0180930F01809186
:10182000120190911301A0911401B091150101963C
:10183000A11DB11D8093120190931301A093140177
:10184000B09315018C2D8D1B8C1708F4A8CF8091B7
:101850001001909111018E199F09909311018093AD
:101860001001892B09F03ECE80910C0190910D0161
:10187000009709F460CE20910F012817190609F48A
:101880005ACE009112011091130120911401309150
:10189000150101501109210931099195819591098D
:1018A000B0E0A0E0BC01CD0160237123822393232B
:1018B000DBD8882309F43FCEACCFD6016D916D0102
:1018C000809112019091130133D9811166CF8091DB
:1018D000120190911301A0911401B091150101968C
:1018E000A11DB11D8093120190931301A0931401C7
:1018F000B09315018C2D8D1B8C17F8F2E7CDCDEF31
:10190000F2CDCFEFF0CDA0E8B0E01C92E1E8F0E03E
:10191000108280818860808380818260808388EEED
:1019200093E090938900809388008C9180648C93DD
:1019300008951BB88BB18B778BB98AB184688AB94B
:101940002FEF30E782E0215030408040E1F700C0C7
:1019500000008AB18B778AB914B8219A93E097B9BD
:101960003A9888B18C6388B940982FEF31EE84E0C3
:10197000215030408040E1F700C00000409A41987B
:101980002FEF31EE84E0215030408040E1F700C07D
:101990000000419A95BDB7DF0E942A0378940E9407
:1019A0001902FDCF24982C9A23982B9A08952498F5
:1019B0002C9A23982B9A8AE18A95F1F700C0249AF1
:1019C0002C988AE18A95F1F700C0239A2B988AE136
:1019D0008A95F1F700C00895239A2B98249A2C98A1
:1019E0008AE08A95F1F700C023982B9A8AE08A95BD
:1019F000F1F700C024982C9A8AE18A95F1F700C08B
:101A0000089598E0239A2B982AE02A95F1F700C0D0
:101A100087FF25C024982C9A2AE02A95F1F700C068
:101A200023982B9A2AE12A95F1F700C0880F91504C
:101A300049F7239A2B9824982C9A8AE08A95F1F7F3
:101A400000C023982B9A2AE12A95F1F700C083B1B0
:101A5000239A2B9882958F70809581700895249A8F
:101A60002C98DACF282F24982C9A98E080E0239A9B
:101A70002B983AE13A95F1F700C023982B9A3AE176
:101A80003A95F1F700C0880F1C998160915079F761
:101A9000239A2B98211111C0249A2C989AE09A9598
:101AA000F1F700C023982B9A3AE03A95F1F700C07D
:101AB000239A2B9824982C9A089524982C9AEECF48
:101AC000880F613009F481609CCF2D98089584B10E
:101AD0008C6284B92498F9DF2B982A9808952A9863
:101AE0002D980E94D2032A9A2B9A0E94D2032D9AF3
:101AF0000E94D2032D980C94D2032A98E6CFCF935C
:101B0000DF93D82F6150770BC1E001C0CC0F6A95ED
:101B1000EAF7C11104C080E0DF91CF910895D5DFCD
:101B20008C2F8D2349F02B9A0E94D2032D9A0E946C
:101B3000D203CBDFC695EDCF2B98F6CFCF93DF93B3
:101B4000D8E0C0E0C2DF0E94D2032D9A83B1829513
:101B50008170CC0FC82B0E94D203B7DFD15091F710
:101B60008C2FDF91CF910895CF93B1DF2A9A85E32F
:101B70008A95F1F700000E94D203C3B1BEDFC2957F
:101B8000C17081E08C27CF910895CF93A0DF2A9A6E
:101B900085E38A95F1F7000068E080ECB0DFC0E0F3
:101BA00094DF0E94D2032D9A0E94D2031C9906C092
:101BB000CA5F8BDFA2DF8C2FCF91089586DFCF5FC6
:101BC000C73071F7CFEFF6CFA1E21A2EAA1BBB1BCD
:101BD000FD010DC0AA1FBB1FEE1FFF1FA217B307F9
:101BE000E407F50720F0A21BB30BE40BF50B661F0F
:101BF000771F881F991F1A9469F7609570958095D3
:101C000090959B01AC01BD01CF010895F894FFCFE1
:041C1000FF01A0012F
:00000001FF
