:100000000C9463000C949B000C9480000C94800072
:100010000C9480000C9480000C9480000C94800060
:100020000C9480000C9480000C9480000C94800050
:100030000C9480000C9480000C9480000C94800040
:100040000C9480000C9480000C9480000C94800030
:100050000C9480000C9480000C9480000C94800020
:100060000C9480000C94800009021200010100A091
:100070001909040000000000000012011001FF0037
:100080000008C016DC050701010200010E0355003F
:10009000530042006100730070001C03770077007A
:1000A00077002E00660069007300630068006C0032
:1000B0002E0064006500040309040C0B0A090807FC
:1000C00006050403020111241FBECFEFD8E0DEBFF6
:1000D000CDBF11E0A0E0B1E0EEE3FCE102C005908D
:1000E0000D92A430B107D9F721E0A4E0B1E001C03E
:1000F0001D92A035B207E1F70E94A00C0C941D0ED2
:100100000C940000A82FB92F80E090E041E050EA65
:10011000609530E009C02D9182279795879510F062
:1001200084279527305EC8F36F5FA8F30895EADF50
:100130008D939D930895CF93CFB7CF93DF93C395BE
:100140004F9BE9F74F9B0BC04F9B09C04F9B07C0CC
:100150004F9B05C04F9B03C04F9B01C089C06F934D
:10016000C0912C01DD27CC5CDE4F2F9365E54F9BC2
:1001700003C02F916F91E6CF0F931F934F9320E011
:1001800040E15F9309B1047807FB27F93F9350E002
:100190003BE039C0147840642F77012F5F5F1EC0A9
:1001A000406819B114782F7752501FC0406409B1CC
:1001B0002F770478D1F15F5F00C023C0406219B18E
:1001C0002F77147891F15F5F00C025C00478102765
:1001D000515012F45D5F0000115027952C3F19B16A
:1001E000C8F614780127015027952C3FC8F64227FE
:1001F000499309B1047810274F73115027952C3F6C
:10020000A8F64695469519B1147879F00127015062
:1002100027952C3F98F66B5A60F3315009B1B0F630
:1002200000C011E01CBB002717C03B503195C31B19
:10023000D04011E01CBB0881033CF9F00B34E9F01D
:1002400020912A011981110F1213EDCF093651F1B6
:100250000D3211F0013E39F7009332013F915F9169
:100260004F911F910F912F916F91CCB3C0FD67CF2C
:10027000DF91CF91CFBFCF911895209132012223EA
:1002800069F310913001112339F534303AF130938C
:10029000300120932B0110912C013BE0311B309356
:1002A0002C011CC0009130010130B4F40AE53091FA
:1002B0002D0134FD14C000932D01CFE1D1E013C016
:1002C000052710E000C000000BB91AC0052710E098
:1002D000221F1DC010E021C04AE502C032ED432FAD
:1002E000C4E1D0E032E01AB114685F9A0BB11AB9D8
:1002F00054E820E865E320FF05270BB927951795FB
:100300001C3FF0F66695B8F7B1F720FF05270BB94B
:10031000279517951C3FD0F62795179517FF0527AA
:1003200000001C3F0BB9B0F629913A9519F70B77ED
:1003300010913101110FC651D0400BB911F010933B
:100340002A0111E01CBB00681AB11B77402F4B77C4
:1003500054E05A95F1F70BB91AB94BB97FCF259AEA
:1003600023982B9A50E219D05A95E9F70895AC01D9
:1003700088E606D0842F04D089E602D0852F00C0FD
:1003800010D028E030E0382780FB869507D02A95EA
:10039000D1F730FB03D001D00895689423982B9AAD
:1003A00016F02B98239AE0914E01F0914F0131976E
:1003B000F0F72D9AE3B1E3FBE0914E01F0914F018C
:1003C0003197F0F72D98089520ECE7DF46F42A9551
:1003D000E1F780E02AE1E5DF2A95E9F7DECF28E0C2
:1003E00030E0DBDF869587F938272A95D1F7D5DF0E
:1003F00027F9322772F3D1DFD0CFDB01742FB7DFBB
:1004000084E2BEDFE1DF8D937A95D1F70895DB01B9
:10041000742FADDF83EFB4DF8DE1B2DF84E6B0DFB0
:100420008D91AEDF82E7ACDFCFDF8078D9F77A95A8
:1004300089F70895CF93DF9360913001635067FD92
:1004400091C080912C01CCE0D0E0C81BD109CC5CDC
:10045000DE4F80912B018D3209F0C2C0683009F067
:100460007FC083EC80931F018AE580932D01109259
:1004700004018881807679F0CE010E9441068F3F89
:1004800009F466C09F81911169C09E81981708F098
:1004900065C0892F63C02A8110922801998191112A
:1004A0000AC01092290128E231E082E030932F0146
:1004B00020932E01E7CF953029F42093310128E2D3
:1004C00031E0F4CF963099F59B81913059F48AE769
:1004D00090E090932F0180932E0182E190E490931D
:1004E0000401D0CF923019F488E690E0F2CF933037
:1004F000A9F7211108C086EB90E090932F0180931B
:100500002E0184E0EBCF213041F48AE990E0909312
:100510002F0180932E018CE1E1CF2230F9F68CE897
:1005200090E090932F0180932E018EE0D7CF9830EA
:1005300059F0993019F420933301C1CF81E09A30FA
:1005400009F4BDCF80E0BBCF23E331E081E0AECF43
:10055000988197FD8E8190E8909304018093050126
:100560001092300180912D0184FF2DC0C0910501B2
:10057000CF3F49F16C2FC93008F068E08C2F861B03
:100580008093050180911F0198E8892780931F01BE
:10059000CC2361F02091040127FF35C080E291E077
:1005A0000E94AC08C82F893008F054C06C2F80E23C
:1005B00091E00E949700CC5FCC3019F08FEF8093D0
:1005C0000501C0932D0184E199B1947831F48150F3
:1005D000D9F71092310110922A01DF91CF9108953D
:1005E0008091040187FFBCCFCE010E941A0A8F3F81
:1005F00021F48EE180932D01B3CF882309F4B0CF8D
:1006000010920501ADCF80912E0190912F0126FF10
:1006100017C0FC01A0E2B1E0262F280F34913D93D2
:1006200031962E13FBCF2FEF260F30E02F5F3F4F79
:10063000820F931F90932F0180932E01C62FB6CF68
:10064000A0E2B1E0FC01262F280F31913D932E133B
:10065000FCCFE9CF8FEF80930501CEE1B2CF8AE5E1
:1006600080932D018FEF80930501E9E6F0E0808112
:1006700082608083E89A08958EBD0DB407FEFDCF99
:100680008EB50895DC01CB0121E1B695A79597952C
:1006900087952A95D1F7209100012817D9F08093EA
:1006A0000001E0910601F09107018DE40995E091C8
:1006B0000601F091070180E00995E0910601F091B3
:1006C0000701809100010995E0910601F091070171
:1006D00080E00994089580914B018CBD80914A017E
:1006E0008DBD08958823B1F0883050F12CE333E0BC
:1006F000309307012093060110924A0191E09093F4
:100700004C018A30B9F040F48830C1F08930A1F052
:1007100081E507C08BE0EACF8C3031F08D30C1F736
:1007200080E580934B01089581E580934B01909380
:100730004A01089582E5F9CF82E5F3CF83E5F1CF51
:100740002AEC33E030930701209306018430A1F0B6
:1007500030F48230A9F0833089F08AEF06C0863009
:1007600039F040F08730C9F784E080934C01089558
:1007700088E0FBCF80E1F9CF8FE1F7CF8FE3F5CFB2
:100780008DE7F3CF26B590914C0186B5821B891772
:10079000E0F308951F93CF93DF93182F2D98D8E09F
:1007A000C0E017FF16C02B9A110F0E94C2032D9AAA
:1007B0000E94C20383B182958170CC0FC82B2D9803
:1007C0000E94C203D15069F78C2FDF91CF911F9106
:1007D00008952B98E9CF84B18C6284B924982A9823
:1007E0002D9881E00E94F5052A9A81E00E94F50586
:1007F0002A9880910601909107018C53934011F43F
:100800000E946B038FEF80930001089584B18C6286
:1008100084B980910601909107018C53934011F4A3
:100820000E946B038FEF809300012A9A089584B190
:10083000837D84B985B1837D85B9109215010895B2
:10084000EF92FF920F931F93CF93DF938091150147
:100850008823E9F10E947203C3E08091150186307C
:1008600080F1883088F181E0DFE32A9A0E94F50563
:100870002A988D2F0E94F505E0910601F09107015D
:100880008CEA0995E0910601F091070183E509954D
:10089000E0910601F091070180E00995D82FE091E1
:1008A0000601F091070180E00995D33519F48823FA
:1008B00009F44CC08FE00E94F505C15071F681E04B
:1008C00045C08FE0DAEFD1CF88E0DDE7CECFCAEBCD
:1008D000D0E0EC2E8CE0E80EFE011491812F0E94F6
:1008E000720303E09AEFF92E8FE0163040F02FE309
:1008F000F22E81E0183018F48DE7F82E88E02A9A5D
:100900000E94F5052A988F2D0E94F505E0910601B9
:10091000F09107018CEA0995E0910601F091070139
:1009200083E50995E0910601F091070180E00995C2
:10093000F82EE0910601F091070180E00995F3E5BA
:10094000FF120BC0811109C010931501DF91CF91E7
:100950001F910F91FF90EF9008958FE00E94F50591
:10096000015009F0BFCF2196EC12B6CF10921501BD
:1009700080E00E947203A3CFCF92DF92EF92FF92AA
:100980006B017C01DC01CB0112970097A640B105F9
:1009900018F4C7010E9442038C2D880F880F880F1E
:1009A0008870E0910601F091070180620995D701F6
:1009B000C60129E0B695A795979587952A95D1F711
:1009C000E0910601F09107010995D701C601B6959E
:1009D000A79597958795E0910601F09107010995F4
:1009E000E0910601F091070180E0FF90EF90DF9029
:1009F000CF900994CF92DF92EF92FF92CF93DF9343
:100A00006B017C01D42FC22FDC01CB011297009720
:100A1000A640B10518F4C7010E9442038C2D880F2F
:100A2000880F880F8870E0910601F09107018064BB
:100A30000995E0910601F0910701D701C60129E06F
:100A4000B695A795979587952A95D1F70995E09141
:100A50000601F0910701D701C601B695A7959795B4
:100A600087950995E0910601F09107018D2F099571
:100A7000C11108C080E0DF91CF91FF90EF90DF902F
:100A8000CF900895DF3F71F0CEE181E00E94F5053F
:100A9000C701B6010E94BC048D1761F3C15049F42F
:100AA00081E0E9CFC701B6010E94BC048F3F61F726
:100AB000E1CFC53150F784E0CB3040F382E0E6CFA0
:100AC000CF92DF92EF92FF92CF936B017C01DC011A
:100AD000CB0112970097A640B10518F4C7010E94F8
:100AE0004203E0910601F09107018CE40995E09141
:100AF0000601F0910701D701C60129E0B695A79537
:100B0000979587952A95D1F70995E0910601F0917F
:100B10000701D701C601B695A795979587950995C1
:100B2000E0910601F091070180E00995C9E181E0BB
:100B30000E94F505C701B6010E94BC048F3F81F4F5
:100B4000C15039F481E0CF91FF90EF90DF90CF90CA
:100B50000895C03160F784E0C63050F382E0E8CFFA
:100B600080E0F1CFCF93DF93EC01E0910601F091AB
:100B7000070180EA0995E0910601F09107018D2FA8
:100B80000995E0910601F09107018C2F0995E091FC
:100B90000601F091070180E0DF91CF9109941F9346
:100BA000CF93DF93D82F192FC62FE0910601F09134
:100BB000070180EC0995E0910601F0910701812F72
:100BC0000995E0910601F09107018D2F0995E091BB
:100BD0000601F09107018C2F09958BE00E94F50525
:100BE00080E0DF91CF911F91089526B596B5921BB5
:100BF0009035E0F38150C9F70895262FFC0142811A
:100C00005381052E000C660B770B40931001509317
:100C10001101609312017093130186819781909363
:100C20000F0180930E012093160108950F931F93D7
:100C3000522F2091140121110FC0FC010281138158
:100C4000012E000C220B330B0093100110931101A5
:100C50002093120130931301242F30E030930B01C5
:100C600020930A0150FD40930D01FC01868197817C
:100C700090930F0180930E01609316011F910F91C5
:100C80000895CF92DF92EF92FF920F931F93CF932D
:100C90008C01DC011196CC911197C130A1F48091A7
:100CA00015010E9472031092140140980E94EB03F8
:100CB0000E9420048093170187E191E090932F0117
:100CC00080932E018BC0C23349F4809115010E949C
:100CD000720340980E940604C0E0EECFC33379F45B
:100CE0002A98FC01828180930301868197819093E9
:100CF0000F0180930E01C0931601CFEFDDCFC433F7
:100D000089F42A9812968C91129780930301169673
:100D10008D919C9190930F0180930E0182E38093BB
:100D20001601EBCFC63421F440980E94DA0CD4CFE0
:100D3000C73419F40E94DF0CCFCFC83419F40E94D5
:100D4000F40CCACFCA3441F4FC0182810E94090D1F
:100D500080931701C1E0B0CFCB3429F412968C9167
:100D60000E943A0DF5CFCC3409F078C0FC018381A4
:100D700091E0811101C090E090930901D801129691
:100D80009C91129790930201882309F45FC08230EE
:100D900071F51496CD90DC900D2C000CEE08FF0838
:100DA000C0921001D0921101E0921201F092130151
:100DB0000E94DF0CC0910201C114D104F1E0EF06E2
:100DC000F10408F0CE608C2F0E94090D8823D1F029
:100DD0000E94F40C8EEF80931701C1E08C2FCF910D
:100DE0001F910F91FF90EF90DF90CF900895C12C4D
:100DF000D12C76018130A1F6F801C480D12CF12CE0
:100E0000E12CCECFC114D10481E0E806F10420F03A
:100E10008D2D0E94090D07C0AFEFCA16D104E10461
:100E2000F10409F0A8F78C2D0E94090D0E94DF0C37
:100E30008C2F81600E94090DD80116968D919C918E
:100E400090930F0180930E0186E369CF0E94DF0C1F
:100E500061E0F80182810E94680DEECFCD34E1F5AA
:100E6000FC01938181E0911101C080E08093090130
:100E7000D80112968C9112978093020114968C914E
:100E8000149780930101992381F09230D9F415963B
:100E90009C91092E000CAA0BBB0B80931001909320
:100EA0001101A0931201B0931301F801868197817B
:100EB00090930F0180930E0185E3809316011092A9
:100EC00008011BCF913021F490E0B0E0A0E0E5CF25
:100ED00080E090E0DC01E1CFCD3571F414968C9187
:100EE000149780930C0116968D919C9190930F010D
:100EF00080930E018AE313CFCC3561F4FC01848129
:100F000080930C018681978190930F0180930E014D
:100F100089E305CFCE3549F40E94C30DC82F813037
:100F200009F0BAC080931701C7CECF3519F40E94DB
:100F3000D60D0ECFCA3509F047C040980E94790DF2
:100F4000D80112968C91129713963C911397149690
:100F50002C91149715969C911597809310013093BE
:100F60001101209312019093130116966C916F71E9
:100F70000E948A0DF8018681829586958770868306
:100F80008823A9F00E94AB0D80931701D801169613
:100F90008C91823020F00E94AB0D80931801F801F3
:100FA0008681833020F00E94AB0D80931901D80117
:100FB00016968C91843020F00E94AB0D80931A011C
:100FC0000E94870DC4E078CEC23029F40E94170435
:100FD000419A409A81CEC33041F5E0910601F091EB
:100FE000070112968C91099580931701E0910601F3
:100FF000F0910701D80113968C91099580931801FF
:10100000E0910601F0910701D80114968C910995A1
:1010100080931901E0910601F0910701D80115961E
:101020008C91099580931A01CDCF62E0C43009F408
:1010300082C063E0C73009F47EC0C53019F40E9455
:10104000200486CEC63049F4FC0125812F704481EE
:1010500061E0C8010E94160650CEC83021F420E09D
:1010600040E064E0F6CFC93089F481E08093140158
:10107000F80182819381A481B581809310019093BE
:101080001101A0931201B093130126CECA3039F496
:1010900012968C9180931501109217015BCEC4318A
:1010A00041F4109217018091150180931801C2E05C
:1010B00003CECB30A1F4FC018281938190934F0148
:1010C00080934E012A9A229A83E00E94F5052A987D
:1010D000409880E10E94F5050E94AF01FDCDCC3023
:1010E000C1F480EC0E94C00180E00E94C0018AE04F
:1010F0000E94F5052A9A85E00E94F5052A9885E068
:101100000E94F50584B1837D84B985B1837D85B95D
:10111000E3CDCD3019F40E94E4011ACECE3029F48B
:1011200012968C910E94C001B7CF65E0CF3019F0C4
:10113000C03129F466E0C8010E94FD05DECDCF373D
:1011400009F0CACD89E18093170181E880931801E5
:10115000109219018FE066CFAF92BF92CF92DF92CB
:10116000EF92FF920F931F93CF93DF93EC01809147
:1011700016019EEF980F923048F0853039F0833396
:1011800029F0893319F0863309F050C170E00091DD
:101190000E0110910F016017710708F48B01F02EFA
:1011A000419880911601853061F5402FBE018091F4
:1011B0001001909111010E94FD0180911001909108
:1011C0001101A0911201B0911301800F911FA11D77
:1011D000B11D8093100190931101A0931201B0935F
:1011E000130180910E0190910F01801B910B909340
:1011F0000F0180930E01892B09F063C01092160134
:1012000060C0833361F5EC2ECC2EDD2E8C2D8E1933
:101210008F15B8F080910E0190910F01801B910BFA
:1012200090930F0180930E01892B09F04AC08091A1
:101230000301882319F32A9A25E02A95F1F7000083
:10124000DDCFE0910601F091070180E00995F601FC
:1012500081936F01F5E0FA95F1F70000D7CF86335F
:1012600009F05CC080910901D12CC12C5801811179
:1012700011C081E0A81AB108CF1488F481E0AC1441
:10128000BD0409F080E00E943A0D89932FEFC21A45
:10129000D20AF2CFE1E0AE1AB108CF1400F180918A
:1012A0000E0190910F01801B910B90930F01809381
:1012B0000E01892B31F40E94F40C10921601109249
:1012C0000901419A40988F2DDF91CF911F910F9185
:1012D000FF90EF90DF90CF90BF90AF90089581E0A6
:1012E000AC14BD0409F080E00E943A0D899380910E
:1012F000100190911101A0911201B091130101967A
:10130000A11DB11D8093100190931101A0931201B2
:10131000B0931301FFEFCF1ADF0ABFCF893309F56E
:10132000EC2ECC2EDD2E8C2D8E198F1580F0809119
:101330000E0190910F01801B910B90930F018093F0
:101340000E01892B09F0BDCF0E94870D57CF0E9457
:10135000AB0DF60181936F01F5E0FA95F1F700000E
:10136000E2CF9EEF980F923008F060C0D12CC12CD4
:10137000EE24EA94823009F053C0EC2ECC2EDD2E00
:101380008C2D8E198F1508F02CCF60911001709163
:10139000110180911201909113010E94BC04F60189
:1013A00081936F018091100190911101A091120120
:1013B000B09113010196A11DB11D8093100190936E
:1013C0001101A0931201B0931301DACF80911001A3
:1013D00090911101A0911201B09113015E01AC0C2A
:1013E000BD1C0097F1E0AF07B105E8F40E94B2051B
:1013F000F50180838091100190911101A09112015B
:10140000B09113010196A11DB11D8093100190931D
:101410001101A0931201B0931301FFEFCF1ADF0A5D
:10142000CF14A0F2DECEF501E082E4CF419AFF2492
:10143000FA9449CF7F928F929F92AF92BF92CF92B0
:10144000DF92EF92FF920F931F93CF93DF938C0164
:1014500080911601811112C0CFEF419A40988C2FD4
:10146000DF91CF911F910F91FF90EF90DF90CF9080
:10147000BF90AF909F908F907F900895813051F0F2
:10148000982F9D7F943031F0982F977F923311F0F1
:10149000853311F74198C0900E01D0900F01E62ED0
:1014A000F12CCE14DF0408F47601CE2D80911601C4
:1014B000863051F54E2DB8018091100190911101A7
:1014C0000E9407028091100190911101A0911201D8
:1014D000B09113018E0D9F1DA11DB11D80931001B0
:1014E00090931101A0931201B093130180910E010A
:1014F00090910F018E199F0990930F0180930E0117
:10150000892BD1F0C0E0A9CF823311F5D02F68012B
:101510008C2D8D1B8C1798F080910E0190910F01EE
:101520008E199F0990930F0180930E01892B51F71B
:101530008091030181112A9A10921601E2C0E09174
:101540000601F0910701D6018D916D010995E0CF5B
:10155000853309F0EBC08091090181111BC0D02FA8
:1015600068018C2D8D1B8C1708F4CDC080910E0165
:1015700090910F018E199F0990930F0180930E0196
:10158000892B09F0BFCF809101018130A9F60E941B
:10159000F40CD2CF60911001709111018091120171
:1015A00090911301D0E461157105B1E08B079105AD
:1015B00008F0D0E88D2E912CB12CA12CA50194011E
:1015C0000E94FB0DD61BDC1708F4CD2FCC151D0493
:1015D00011F008F0CC2D8091080181113AC00E94D1
:1015E000DF0C809102014091100150911101609136
:1015F00012017091130141155105E1E06E0771056B
:1016000048F09FE076956795579547959A95D1F75D
:101610004E70842B0E94090D81117FC080911001B2
:1016200090911101A0911201B09113010097F1E086
:10163000AF07B10588F0892F0E94090D81116DC097
:10164000809110010E94090D811167C081E0809393
:101650000801D02F780121C08F3F9105A105B10568
:1016600089F380F3E8CFD7018D917D010E94090DA8
:10167000811153C08091100190911101A09112012C
:10168000B09113010196A11DB11D8093100190939B
:101690001101A0931201B09313018E2D8D1B8C1795
:1016A00010F380910E0190910F018C1B9109909382
:1016B0000F0180930E01892B89F0609110017091C8
:1016C00011018091120190911301A50194010E94D2
:1016D000FB0D672B682B692B09F0BFCE0E94F40C21
:1016E000EFE1FEE43197F1F700C0000080910E01B8
:1016F00090910F01892B09F0B0CE10921601109233
:101700000901C1E0AACED6018D916D010E94090D9B
:10171000882309F426CFCEEFA0CE0E94F40C1092BD
:1017200016011092090110920801F5CF8A3369F56C
:10173000D12CC12C18C0D0910C01DD2389F0D930F7
:1017400008F0D8E06D2FF801EC0DFD1D80810E949E
:101750008A0D8111DDC080910C018D1B80930C01DD
:10176000BFEFCB1ADB0ACC1630F380910E019091BB
:101770000F018E199F0990930F0180930E01892B01
:1017800009F0C0CE0E94870DD7CE813089F0843019
:1017900009F062CE8091100190911101A091120187
:1017A000B09113010097A140B10510F0CCEF55CED8
:1017B00080910A0190910B01812C912C540100978A
:1017C00091F088249924881A990AB12CA12C40916F
:1017D0001001509111016091120170911301842246
:1017E0009522A622B722D1E0892B09F0D0E0702EF5
:1017F00068018C2D87198C17B8F180910E0190919A
:101800000F018E199F0990930F0180930E01892B70
:1018100009F078CE80910A0190910B01009709F4AC
:101820008BCE20910D012817190609F485CE009161
:1018300010011091110120911201309113010150FA
:10184000110921093109919581959109B0E0A0E034
:10185000BC01CD0160237123822393230E94600584
:10186000882309F469CE34C0D6014D916D01809171
:10187000100190911101A0911201B09113012091DA
:101880001601213071F42D2FBC01CD010E94FA0404
:10189000882359F080911601813009F087CFCBEF72
:1018A000DCCD642F0E94CF05F3CF80910A01909187
:1018B0000B01892BC9F080910D01815080930D019E
:1018C000811112C0C501B4010E946005882311F086
:1018D000CAEFC3CD80910A0190910B01880E991E29
:1018E000A11CB11C80930D018091100190911101F8
:1018F000A0911201B09113010196A11DB11D809319
:10190000100190931101A0931201B093130171CFB4
:10191000CDEFA3CDA0E8B0E01C92E1E8F0E01082AA
:1019200080818860808380818260808388EE93E0FC
:1019300090938900809388008C9180648C930895A3
:101940001BB88BB18B778BB98AB184688AB92FE7C2
:1019500038E381E0215030408040E1F700C00000D2
:101960008AB18B778AB914B8219A93E097B93A98DB
:1019700088B18C6388B940982FEF34E38CE0215014
:1019800030408040E1F700C00000409A41982FEFBE
:1019900034E38CE0215030408040E1F700C000008B
:1019A000419A95BD0E948A0C0E942F0378940E9450
:1019B0001A02FDCF24982C9A23982B9A08952498E4
:1019C0002C9A23982B9A8AE18A95F1F700C0249AE1
:1019D0002C988AE18A95F1F700C0239A2B988AE126
:1019E0008A95F1F700C00895239A2B98249A2C9891
:1019F0008AE08A95F1F700C023982B9A8AE08A95AD
:101A0000F1F700C024982C9A8AE18A95F1F700C07A
:101A1000089598E0239A2B982AE02A95F1F700C0C0
:101A200087FF25C024982C9A2AE02A95F1F700C058
:101A300023982B9A2AE12A95F1F700C0880F91503C
:101A400049F7239A2B9824982C9A8AE08A95F1F7E3
:101A500000C023982B9A2AE12A95F1F700C083B1A0
:101A6000239A2B9882958F70809581700895249A7F
:101A70002C98DACF282F24982C9A98E080E0239A8B
:101A80002B983AE13A95F1F700C023982B9A3AE166
:101A90003A95F1F700C0880F1C998160915079F751
:101AA000239A2B98211111C0249A2C989AE09A9588
:101AB000F1F700C023982B9A3AE03A95F1F700C06D
:101AC000239A2B9824982C9A089524982C9AEECF38
:101AD000880F613009F481600C94090D2D980895E8
:101AE00084B18C6284B924980E946E0D2B982A9838
:101AF00008952A982D980E94C2032A9A2B9A0E9430
:101B0000C2032D9A0E94C2032D980C94C2032A98F6
:101B10000C946E0DCF93DF93D82F6150770BC1E0FB
:101B200001C0CC0F6A95EAF7C11104C080E0DF91D3
:101B3000CF9108950E946E0D8C2F8D2351F02B9A1A
:101B40000E94C2032D9A0E94C2030E946E0DC69588
:101B5000EBCF2B98F5CFCF93DF93D8E0C0E00E9476
:101B60006E0D0E94C2032D9A83B182958170CC0FB5
:101B7000C82B0E94C2030E946E0DD15081F78C2F9A
:101B8000DF91CF910895CF930E94700D2A9A85E33B
:101B90008A95F1F700000E94C203C3B10E94870D2D
:101BA000C295C17081E08C27CF910895CF930E9498
:101BB000700D2A9A85E38A95F1F7000068E080ECC1
:101BC0000E948A0DC0E00E946E0D0E94C2032D9AF1
:101BD0000E94C2031C9908C0CA5F0E946E0D0E9439
:101BE000870D8C2FCF9108950E946E0DCF5FC73067
:101BF00051F7CFEFF4CFA1E21A2EAA1BBB1BFD01B8
:101C00000DC0AA1FBB1FEE1FFF1FA217B307E407DB
:101C1000F50720F0A21BB30BE40BF50B661F771F33
:101C2000881F991F1A9469F7609570958095909513
:0E1C30009B01AC01BD01CF010895F894FFCFD8
:041C3E00FF01A00101
:00000001FF
