:100000000C946D000C94A5000C948A000C948A004A
:100010000C948A000C948A000C948A000C948A0038
:100020000C948A000C948A000C948A000C948A0028
:100030000C948A000C948A000C948A000C948A0018
:100040000C948A000C948A000C948A000C948A0008
:100050000C948A000C948A000C948A000C948A00F8
:100060000C948A000C948A0009021200010100A07D
:100070001909040000000000000012011001FF0037
:100080000008C016DC050701010200010E0355003F
:10009000530042006100730070001C03770077007A
:1000A00077002E00660069007300630068006C0032
:1000B0002E0064006500040309040408101F3F7D3E
:1000C000FA0001000100005051515252530D0C0B27
:1000D0000A09080706050403020111241FBECFEF19
:1000E000D8E0DEBFCDBF11E0A0E0B1E0E8E8FAE182
:1000F00002C005900D92A430B107D9F721E0A4E029
:10010000B1E001C01D92A535B207E1F70E94BB0B1B
:100110000C94420D0C940000A82FB92F80E090E0C1
:1001200041E050EA609530E009C02D918227979513
:10013000879510F084279527305EC8F36F5FA8F38A
:100140000895EADF8D939D930895CF93CFB7CF9312
:10015000DF93C3954F9BE9F74F9B0BC04F9B09C0A3
:100160004F9B07C04F9B05C04F9B03C04F9B01C0D7
:1001700089C06F93C0913301DD27C55CDE4F2F939B
:1001800065E54F9B03C02F916F91E6CF0F931F93AF
:100190004F9320E040E15F9309B1047807FB27F912
:1001A0003F9350E03BE039C0147840642F77012F33
:1001B0005F5F1EC0406819B114782F7752501FC07E
:1001C000406409B12F770478D1F15F5F00C023C08C
:1001D000406219B12F77147891F15F5F00C025C09C
:1001E00004781027515012F45D5F000011502795DC
:1001F0002C3F19B1C8F614780127015027952C3FE0
:10020000C8F64227499309B1047810274F7311505B
:1002100027952C3FA8F64695469519B1147879F0A4
:100220000127015027952C3F98F66B5A60F3315007
:1002300009B1B0F600C011E01CBB002717C03B504D
:100240003195C31BD04011E01CBB0881033CF9F081
:100250000B34E9F0209131011981110F1213EDCF08
:10026000093651F10D3211F0013E39F70093390191
:100270003F915F914F911F910F912F916F91CCB34F
:10028000C0FD67CFDF91CF91CFBFCF91189520915F
:100290003901222369F310913701112339F53430E4
:1002A0003AF13093370120933201109133013BE052
:1002B000311B309333011CC0009137010130B4F47D
:1002C0000AE53091340134FD14C000933401C6E2D4
:1002D000D1E013C0052710E000C000000BB91AC020
:1002E000052710E0221F1DC010E021C04AE502C012
:1002F00032ED432FC4E1D0E032E01AB114685F9AC6
:100300000BB11AB954E820E865E320FF05270BB9C3
:10031000279517951C3FF0F66695B8F7B1F720FFC3
:1003200005270BB9279517951C3FD0F627951795EC
:1003300017FF052700001C3F0BB9B0F629913A952D
:1003400019F70B7710913801110FC651D0400BB936
:1003500011F01093310111E01CBB00681AB11B773A
:10036000402F4B7754E05A95F1F70BB91AB94BB9B6
:100370007FCF2D98259A23982B9A50E22DD05A950D
:10038000E9F708952AD028E03327382780FB86959F
:1003900025D02A95D1F730FB21D01ED01DD008954D
:1003A00020EC1AD04EF42A95E1F780E02AE115D02E
:1003B0002A95E9F711D0089528E0332788270CD033
:1003C000869587F938272A95D1F706D027F932275D
:1003D00072F302D001D008956894E89416F42B9A31
:1003E00001C02B9806D02D9AE3B1E3FB02D02D98E3
:1003F0000895E0915201F09153013197F0F708957B
:10040000AC0188E6BFDF842FBDDF89E6BBDF852F27
:10041000B9DF0895CF93DF9360913701635067FD93
:1004200091C080913301CCE0D0E0C81BD109C55CFC
:10043000DE4F809132018D3209F0C2C0683009F080
:100440007FC083EC809326018AE58093340110926B
:1004500004018881807679F0CE010E94E3058F3F08
:1004600009F466C09F81911169C09E81981708F0B8
:1004700065C0892F63C02A8110922F019981911143
:100480000AC0109230012FE231E082E03093360151
:1004900020933501E7CF953029F4209338012FE2DE
:1004A00031E0F4CF963099F59B81913059F48AE789
:1004B00090E0909336018093350182E190E490932F
:1004C0000401D0CF923019F488E690E0F2CF933057
:1004D000A9F7211108C086EB90E090933601809334
:1004E000350184E0EBCF213041F48AE990E090932C
:1004F0003601809335018CE1E1CF2230F9F68CE8AA
:1005000090E090933601809335018EE0D7CF9830FC
:1005100059F0993019F420933A01C1CF81E09A3013
:1005200009F4BDCF80E0BBCF2AE331E081E0AECF5C
:10053000988197FD8E8190E8909304018093050146
:10054000109237018091340184FF2DC0C0910501C4
:10055000CF3F49F16C2FC93008F068E08C2F861B23
:10056000809305018091260198E8892780932601D0
:10057000CC2361F02091040127FF35C087E291E090
:100580000E942908C82F893008F054C06C2F87E2D8
:1005900091E00E94A100CC5FCC3019F08FEF8093E6
:1005A0000501C093340184E199B1947831F481500C
:1005B000D9F71092380110923101DF91CF9108954F
:1005C0008091040187FFBCCFCE010E94B1098F3F0B
:1005D00021F48EE180933401B3CF882309F4B0CFA6
:1005E00010920501ADCF809135019091360126FF23
:1005F00017C0FC01A7E2B1E0262F280F34913D93EC
:1006000031962E13FBCF2FEF260F30E02F5F3F4F99
:10061000820F931F9093360180933501C62FB6CF7A
:10062000A7E2B1E0FC01262F280F31913D932E1354
:10063000FCCFE9CF8FEF80930501CEE1B2CF8AE501
:10064000809334018FEF80930501E9E6F0E080812B
:1006500082608083E89A08958EBD0DB407FEFDCFB9
:100660008EB50895809107018CBD809106018DBDE6
:100670000895811105C080910101811101C08DE0B3
:100680009FEF980F9D30D8F08DE080931C012CE2F5
:1006900033E030930A012093090191E0909308011F
:1006A0008D508630F8F4E7ECF0E0E491E093070138
:1006B000E1ECF0E0E491E09306010C9432038093C6
:1006C0001C01883020F725EC33E030930A01209399
:1006D00009018750873060F4EAEBF0E0E491E093A1
:1006E0000801089581E58093070190930601E5CF05
:1006F00080E38093080108950F931F93CF93DF93B6
:10070000C82F0E94390311E0DFE3C83010F41FE066
:10071000DAEFC3E02A9A812F0E9466052A988D2F6E
:100720000E946605E0910901F0910A018CEA0995A1
:10073000E0910901F0910A0183E50995E091090131
:10074000F0910A0180E00995082FE0910901F091EC
:100750000A0180E00995033511F4882349F08FE1FF
:100760009EE40197F1F700C00000C15099F681E0C6
:10077000DF91CF911F910F91089526B590910801B7
:1007800086B5821B8917E0F308951F93CF93DF93FB
:10079000182F2D98D8E0C0E017FF16C02B9A110F24
:1007A0000E94BD032D9A0E94BD0383B18295817082
:1007B000CC0FC82B2D980E94BD03D15069F78C2F08
:1007C000DF91CF911F9108952B98E9CF84B18C626E
:1007D00084B924982A982D9881E00E9466052A9A67
:1007E00081E00E9466052A988091090190910A0192
:1007F0008C52934011F40E9432038FEF80930001DA
:10080000089584B18C6284B98091090190910A01A4
:100810008C52934011F40E9432038FEF80930001B9
:100820002A9A089584B1837D84B985B1837D85B981
:100830000895FF920F931F93CF93DF93EDECF0E0B9
:10084000C49180910C01882379F0C0911C018C2FF8
:100850000E947C03811117C0C0930101DF91CF91E9
:100860001F910F91FF90089580910101882359F005
:100870000E947C03811105C09091010190931C019D
:10088000EDCF109201010DEC10E08DE0F82EF00E8E
:10089000F801D491CD1750F08D2F0E947C03811167
:1008A00005C0D0931C01D0930101D8CF0F5F1F4F1B
:1008B000F012EECF81E0D2CFCF93C82FC6958091B2
:1008C00000018C17D9F0C0930001E0910901F0916B
:1008D0000A018DE40995E0910901F0910A0180E097
:1008E0000995E0910901F0910A018C2F0995E09199
:1008F0000901F0910A0180E0CF910994CF91089508
:10090000CF93DF93EC01880F880F880F8870E091F8
:100910000901F0910A0180620995E0910901F091C5
:100920000A018D2F86950995CE0196958795E091C0
:100930000901F0910A010995E0910901F0910A017C
:1009400080E0DF91CF9109940F931F93CF93DF93B2
:100950008C01D62FC42F880F880F880F8870E091E4
:100960000901F0910A0180640995E0910901F09173
:100970000A01812F86950995C80196958795E09182
:100980000901F0910A010995E0910901F0910A012C
:100990008D2F0995C11106C080E0DF91CF911F9185
:1009A0000F910895C8010E948004C0E18D17A1F342
:1009B00081E00E946605C8010E9480048D1761F3E2
:1009C000C15011F481E0E9CFCB3090F784E0C8301A
:1009D00080F382E0EECF0F931F93CF938C01E091D1
:1009E0000901F0910A018CE40995E0910901F09167
:1009F0000A01812F86950995C80196958795E09102
:100A00000901F0910A010995E0910901F0910A01AB
:100A100080E00995C9E181E00E946605C8010E9455
:100A200080048F3F71F4C15029F481E0CF911F9170
:100A30000F910895C03178F784E0C63068F382E002
:100A4000EBCF80E0F3CFCF93DF93EC01E09109018E
:100A5000F0910A0180EA0995E0910901F0910A01FB
:100A60008D2F0995E0910901F0910A018C2F0995CC
:100A7000E0910901F0910A0180E0DF91CF910994A2
:100A80001F93CF93DF93D82F192FC62FE091090121
:100A9000F0910A0180EC0995E0910901F0910A01B9
:100AA000812F0995E0910901F0910A018D2F099597
:100AB000E0910901F0910A018C2F09958CE00E94C8
:100AC000660580E0DF91CF911F91089526B596B518
:100AD000921B9035E0F38150C9F70895262F30918D
:100AE0000B0131110FC0FC0142815381052E000C16
:100AF000660B770B409318015093190160931A010C
:100B000070931B01FC01868197819093170180935C
:100B1000160120931D010895FC0182819381909319
:100B20001301809312018481809314018581809345
:100B3000110186819781909317018093160110927D
:100B4000100160931D0108950F931F93CF93DF93BE
:100B5000EB018A010E9400020C0F1D1FC017D10774
:100B600029F4DF91CF911F910F91089584E20E94A3
:100B7000C2010E94D0018993F1CF0F931F93CF93AD
:100B8000DF93EB018A010E9400020C0F1D1FC017AA
:100B9000D10729F4DF91CF911F910F91089583EF31
:100BA0000E94C2018DE10E94C20184E60E94C2013E
:100BB00089910E94C20182E70E94C2010E94D00175
:100BC00087FDF9CFE4CFEF92FF920F931F93CF935E
:100BD000DF938C01EEE1F1E088E0DF011D928A9560
:100BE000E9F7F801C181C13029F580911C010E940B
:100BF000390310920B0140980E94E6030E941904E9
:100C000080930D01882321F00E94120410920101AB
:100C100080910D0180931E018EE191E09093360149
:100C2000809335018C2FDF91CF911F910F91FF9011
:100C3000EF900895C23349F480911C010E9439035A
:100C400040980E940104C0E0E7CFC33371F42A98B2
:100C5000828180930201868197819093170180930E
:100C60001601C0931D01CFEFD7CFC43371F42A987A
:100C700082818093020186819781909317018093EE
:100C8000160182E380931D01EECFC63421F4409813
:100C90000E94F50BD8CFC93419F40E94FA0BD3CFB8
:100CA000CA3419F40E940F0CCECFCC3431F48281B7
:100CB0000E94240C80931E016EC0CB3421F48281EB
:100CC0000E94550CF7CFC73429F50E94FA0B60E05B
:100CD000D80112968C910E94830CF801858180FFC7
:100CE00003C084810E94240CD80113968C910E9429
:100CF000240C0E94FA0B61E0F80182810E94830CAF
:100D0000D80116968D919C919093170180931601AE
:100D100086E3B8CFC83421F50E94FA0B60E0F801F1
:100D200082810E94830CD80115968C911597C82F4B
:100D300080FF04C014968C910E94240CF8018381DA
:100D40000E94240CC695C170C0935401D801169618
:100D50008D919C91909317018093160185E392CF1A
:100D6000CD3429F4828187FF16C081E0A3CF6AE3E6
:100D7000CD3519F0CC3529F469E3C8010E948C0502
:100D800072CFCE3551F40E94060D91E0811101C061
:100D900090E090931E01C1E03FCFCF3519F40E943F
:100DA000190D88CFCA35A1F540980E94960CD8013C
:100DB00012966D917D918D919C911597609318017C
:100DC0007093190180931A0190931B0116964C9110
:100DD0004F710E94A00CF801C681C295C695C770DC
:100DE000C6838EE1E82E81E0F82E10E0C11711F0E5
:100DF000143039F40E949D0CC53008F40DCFC4E0C6
:100E00000BCF0E94E20CD7018D937D011F5FEECFC7
:100E1000C23021F40E941204419A15CFC33089F5E3
:100E2000E0910901F0910A01D80112968C9109957F
:100E300080931E01E0910901F0910A01D8011396F7
:100E40008C91099580931F01E0910901F0910A01AD
:100E5000D80114968C91099580932001E0910901A5
:100E6000F0910A01D80115968C9109958093210182
:100E70001092220110922301109224011092250158
:100E8000BECFC53019F40E94190414CF62E0C430FB
:100E900009F4CEC063E0C73009F4CAC0C63041F5DA
:100EA00080910B0181110EC082819381092E000C6B
:100EB000AA0BBB0B8093180190931901A0931A0100
:100EC000B0931B01D80114968C91149715969C91A0
:100ED000159780930E0190930F018093150116963C
:100EE0008D919C91909317018093160181E0CACE59
:100EF000C83001F580910B0181110EC08281938170
:100F0000092E000CAA0BBB0B8093180190931901BA
:100F1000A0931A01B0931B0110920F0110920E01C1
:100F2000D80116968D919C9190931701809316018C
:100F300084E0A8CEC930A1F481E080930B016281E6
:100F40007381848195816093180170931901809356
:100F50001A0190931B010E945C0410921E011BCF8A
:100F6000CA3061F4828180931C01811103C0109208
:100F70000C0111CF81E080930C010DCFC131B1F490
:100F800080911C0180931F018091010180932001B9
:100F900080910801809321018091000180932201BA
:100FA00080911D0180932301C6E036CECB30A9F499
:100FB00082819381909353018093520110920B018F
:100FC0002A9A229A83E00E9466052A98409880E136
:100FD0000E9466050E94B90136CECC30C1F480EC87
:100FE0000E94C20180E00E94C2018AE00E94660560
:100FF0002A9A85E00E9466052A9885E00E94660587
:1010000084B1837D84B985B1837D85B91CCECD3013
:1010100019F40E94D0014ECECE3021F482810E947C
:10102000C2019BCF65E0CF3019F0C03129F466E0F2
:10103000C8010E946E0517CECF3709F004CE83E1B8
:1010400080931E0181E880931F018FEC8093210122
:10105000D6CE7F928F929F92AF92BF92CF92DF9225
:10106000EF92FF920F931F93CF93DF938C018091A8
:101070001D019EEF980F923048F0853039F0833390
:1010800029F0893319F0863309F059C170E0E090F6
:101090001601F09017016E157F0508F47B01BE2C38
:1010A000419880911D01853069F5A701B8018091B3
:1010B0001801909119010E94A40580911801909146
:1010C0001901A0911A01B0911B018E0D9F1DA11D48
:1010D000B11D8093180190931901A0931A01B09348
:1010E0001B0180911601909117018E199F09909311
:1010F000170180931601892B11F410921D01419A5A
:10110000409820C1833329F5C80109C0EC01E09162
:101110000901F0910A0180E009958993CE01282FF9
:10112000201B2B1598F380911601909117018E19B1
:101130009F099093170180931601892B01F78091E5
:1011400002018823D1F22A9A85E08A95F1F70000FE
:10115000D4CF863349F5C0901601D0901701CE1434
:10116000DF0408F47601BE2CE6018C2D8C1B8B1558
:1011700060F0CE18DF08D0921701C0921601CD287A
:1011800009F0BDCF0E940F0CB8CF219748019FEF07
:10119000891A990A81E0209709F080E00E94550C95
:1011A000F80180838401E1CF893309F050C0809138
:1011B0001001811128C0809111018370846090E03A
:1011C000B0E0A0E02091140104C0880F991FAA1F6D
:1011D000BB1F2A95D2F78090120190901301B12C79
:1011E000A12C882A992AAA2ABB2A0E94960C4091EF
:1011F00014014D5FC501B4010E94A00C0E94FB0CBC
:1012000081E080931001C0901601D0901701EC147A
:10121000FD0408F46701BC2CC801282F201B2B15E6
:1012200080F080911601909117018C199D0990937F
:10123000170180931601892B09F061CF0E949D0C44
:101240005CCFEC010E94E20C8993CE01E6CF8230A4
:1012500009F04AC08090180190901901A0901A01DD
:10126000B0901B01C0911601D0911701EC16FD063C
:1012700008F4E7017C2EC501B4010E945C047501ED
:1012800064017A948FEF78121CC08C0E9D1EA11CF5
:10129000B11C8092180190921901A0921A01B0928B
:1012A0001B0180911601909117018C1B9D0B90934F
:1012B000170180931601892B11F410921D01BC2E89
:1012C0001ECFC6010E948004F80181938F01FFEFB9
:1012D000CF1ADF0AEF0AFF0AC114D10491F6C70141
:1012E000B6010E945C04CDCF833049F5C091160150
:1012F000D0911701EC16FD0608F4E701FC2EFA94D4
:10130000FFEFFF1671F28091180190911901A091E1
:101310001A01B0911B01AC01BD014F5F5F4F6F4FD0
:101320007F4F409318015093190160931A017093F5
:101330001B010E942305F80181938F01E0CF419AA0
:10134000BB24BA948B2DDF91CF911F910F91FF9009
:10135000EF90DF90CF90BF90AF909F908F907F9055
:1013600008958F929F92AF92BF92CF92DF92EF92A9
:10137000FF921F93CF93DF93EC0180911D0188238F
:1013800009F4E1C1813059F0982F9D7F943039F0F4
:10139000982F977F923319F0853309F0D4C170E00C
:1013A000E0901601F09017016E157F0508F47B019F
:1013B000419810911D011630C1F5A701BE01809121
:1013C0001801909119010E94BD058091180190911A
:1013D0001901A0911A01B0911B018E0D9F1DA11D35
:1013E000B11D8093180190931901A0931A01B09335
:1013F0001B0180911601909117018E199F099093FE
:10140000170180931601892B41F110E0419A409A0F
:10141000812FDF91CF911F91FF90EF90DF90CF90C0
:10142000BF90AF909F908F900895123319F51E2DA5
:10143000CE01282F2C1B211798F080911601909136
:1014400017018E199F099093170180931601892B1C
:10145000E1F68091020181112A9A10921D01D5CFE7
:10146000E0910901F0910A01DC018D916D0109956E
:10147000C601DFCF153349F5C0901601D090170192
:10148000EC14FD0408F467011C2DCE01282F2C1B41
:101490002117A0F080911601909117018C199D09D8
:1014A0009093170180931601892B09F0AECF80919C
:1014B0005401882391F20E940F0CCFCFFC0181913F
:1014C0007F010E94240CC701E1CF1A3309F053C0F9
:1014D00080911001811126C0809111018370846078
:1014E00090E0B0E0A0E02091140104C0880F991FA3
:1014F000AA1FBB1F2A95D2F780901201909013016A
:10150000B12CA12C882A992AAA2ABB2A0E94960CBF
:10151000409114014D5FC501B4010E94A00C81E00F
:1015200080931001C0901601D0901701EC14FD04B7
:1015300008F467011C2DCE01282F2C1B211780F0E9
:1015400080911601909117018C199D0990931701B4
:1015500080931601892B09F058CF0E949D0C7DCFF6
:10156000DC016D917D0170E090E080E048E00E9438
:10157000A00CC701E1CF113009F0AAC0809018017A
:1015800090901901A0901A01B0901B01C501B401FF
:101590000E945C0480910E0190910F016E01CE0CAF
:1015A000DF1C892B09F453C0CC16DD0609F452C0A8
:1015B00040E06991C4010E94A404811130C0FFEF92
:1015C0008F1A9F0AAF0ABF0A80911501815080933C
:1015D0001501811174C080910E0190910F019195B8
:1015E00081959109940121503109822393230E940E
:1015F000EB04882309F45FC010921D01809218014A
:1016000090921901A0921A01B0921B011AEFFECE1E
:1016100041E06991C4010E94A404882361F0109202
:101620001D018092180190921901A0921A01B092A6
:101630001B011BEFEBCEEFEF8E1A9E0AAE0ABE0A1D
:101640008114910421F4C501B4010E945C04CC15FD
:10165000DD05F1F68092180190921901A0921A010D
:10166000B0921B0180911601909117018E199F096C
:101670009093170180931601892B09F0C6CE109222
:101680001D0180910E0190910F01009709F4BECECB
:10169000209115012817190609F4B8CE21E0821A05
:1016A0009108919581959109882199210E94EB04D7
:1016B0008111ACCFABCE80910E01809315018114C6
:1016C000910409F071CFC501B4010E945C046CCF94
:1016D0006E01CE0CDF1C143011F11FEF97CE699113
:1016E00080911801909119010E944005882321F0F2
:1016F00010921D011CEF8ACE809118019091190162
:10170000A0911A01B0911B010196A11DB11D8093FA
:10171000180190931901A0931A01B0931B01CC15E5
:10172000DD05E9F680911601909117018E199F0948
:101730009093170180931601892B09F066CE1092C1
:101740001D0111E063CE1FEF63CEA0E8B0E01C9254
:10175000E1E8F0E01082808188608083808182608F
:10176000808388EE93E090938900809388008C9129
:1017700080648C9308951BB88BB18B778BB98AB139
:1017800084688AB92FEF30E782E0215030408040F2
:10179000E1F700C000008AB18B778AB914B8219AAA
:1017A00093E097B93A9888B18C6388B940982FEF45
:1017B00031EE84E0215030408040E1F700C000006D
:1017C000409A41982FEF31EE84E021503040804024
:1017D000E1F700C00000419A95BD0E94A50B0E9450
:1017E0001F0378940E940A02FDCF24982C9A239814
:1017F0002B9A089524982C9A23982B9A85E18A9500
:10180000F1F70000249A2C9885E18A95F1F7000001
:10181000239A2B9885E18A95F1F700000895239A81
:101820002B98249A2C988AE08A95F1F700C0239887
:101830002B9A8AE08A95F1F700C024982C9A85E1CA
:101840008A95F1F70000089598E0239A2B982AE0F2
:101850002A95F1F700C087FF25C024982C9A2AE02A
:101860002A95F1F700C023982B9A25E12A95F1F7E4
:101870000000880F915049F7239A2B9824982C9AAE
:101880008AE08A95F1F700C023982B9A25E12A95E2
:10189000F1F7000083B1239A2B9882958F70809581
:1018A00081700895249A2C98DACF282F24982C9AA6
:1018B00098E080E0239A2B9835E13A95F1F7000003
:1018C00023982B9A35E13A95F1F70000880F1C997F
:1018D0008160915079F7239A2B98211111C0249A95
:1018E0002C989AE09A95F1F700C023982B9A3AE049
:1018F0003A95F1F700C0239A2B9824982C9A0895D2
:1019000024982C9AEECF880F613009F481600C94F2
:10191000240C2D9A08952D98089584B18C6284B971
:1019200024980E948B0C2B982A9808952A982D9819
:101930000E94BD032A9A0C94BD032A980C948B0C28
:101940008F929F92AF92BF92CF92DF92EF92FF92CF
:101950004B015C014150550BC12CD12C7601C39435
:1019600004C0CC0CDD1CEE1CFF1C4A95D2F7C11440
:10197000D104E104F10451F480E0FF90EF90DF9096
:10198000CF90BF90AF909F908F9008950E948B0C46
:10199000D701C60188219921AA21BB21892B8A2B35
:1019A0008B2B71F02B9A0E94BD030E94890C0E9420
:1019B000BD030E948B0CF694E794D794C794D7CFBD
:1019C0002B98F1CFCF93DF93D8E0C0E00E948B0C2F
:1019D0000E94BD030E94890C83B182958170CC0F57
:1019E000C82B0E94BD030E948B0CD15079F78C2F1D
:1019F000DF91CF9108950E948B0C0E94BD030E943D
:101A0000890C0E94BD0383B10C948B0CCF930E9470
:101A10008D0C2A9A85E38A95F1F700000E94BD0398
:101A2000C3B10E949D0CC295C17081E08C27CF91FB
:101A30000895CF930E948D0C2A9A85E38A95F1F739
:101A4000000048E060EC70E080E090E00E94A00CB4
:101A5000C0E00E948B0C0E94BD030E94890C0E9472
:101A6000BD031C9908C0CA5F0E948B0C0E949D0C8C
:101A70008C2FCF9108950E948B0CCF5FC73049F710
:081A8000CFEFF4CFF894FFCF83
:041A8800FF0D01004D
:00000001FF
