:100000000C9464000C949C000C9481000C9481006E
:100010000C9481000C9481000C9481000C9481005C
:100020000C9481000C9481000C9481000C9481004C
:100030000C9481000C9481000C9481000C9481003C
:100040000C9481000C9481000C9481000C9481002C
:100050000C9481000C9481000C9481000C9481001C
:100060000C9481000C94810009021200010100A08F
:100070001909040000000000000012011001FF0037
:100080000008C016DC050701010200010E0355003F
:10009000530042006100730070001C03770077007A
:1000A00077002E00660069007300630068006C0032
:1000B0002E006400650004030904100E0C0A0908F0
:1000C000070605040302010011241FBECFEFD8E08C
:1000D000DEBFCDBF11E0A0E0B1E0E8E1FCE102C08D
:1000E00005900D92A630B107D9F721E0A6E0B1E066
:1000F00001C01D92A235B207E1F70E94B50C0C9425
:100100000A0E0C940000A82FB92F80E090E041E087
:1001100050EA609530E009C02D9182279795879528
:1001200010F084279527305EC8F36F5FA8F3089519
:10013000EADF8D939D930895CF93CFB7CF93DF934D
:10014000C3954F9BE9F74F9B0BC04F9B09C04F9B3B
:1001500007C04F9B05C04F9B03C04F9B01C089C088
:100160006F93C0912F01DD27C95CDE4F2F9365E5AA
:100170004F9B03C02F916F91E6CF0F931F934F9327
:1001800020E040E15F9309B1047807FB27F93F9332
:1001900050E03BE039C0147840642F77012F5F5F57
:1001A0001EC0406819B114782F7752501FC04064A8
:1001B00009B12F770478D1F15F5F00C023C040629E
:1001C00019B12F77147891F15F5F00C025C00478D2
:1001D0001027515012F45D5F0000115027952C3FFD
:1001E00019B1C8F614780127015027952C3FC8F69D
:1001F0004227499309B1047810274F73115027956E
:100200002C3FA8F64695469519B1147879F0012748
:10021000015027952C3F98F66B5A60F3315009B185
:10022000B0F600C011E01CBB002717C03B50319551
:10023000C31BD04011E01CBB0881033CF9F00B3418
:10024000E9F020912D011981110F1213EDCF09361C
:1002500051F10D3211F0013E39F7009335013F9114
:100260005F914F911F910F912F916F91CCB3C0FD72
:1002700067CFDF91CF91CFBFCF91189520913501F6
:10028000222369F310913301112339F534303AF107
:100290003093330120932E0110912F013BE0311B4D
:1002A00030932F011CC0009133010130B4F40AE5F2
:1002B0003091300134FD14C000933001C2E2D1E02E
:1002C00013C0052710E000C000000BB91AC00527B5
:1002D00010E0221F1DC010E021C04AE502C032ED2F
:1002E000432FC4E1D0E032E01AB114685F9A0BB139
:1002F0001AB954E820E865E320FF05270BB92795D4
:1003000017951C3FF0F66695B8F7B1F720FF052763
:100310000BB9279517951C3FD0F62795179517FF12
:10032000052700001C3F0BB9B0F629913A9519F743
:100330000B7710913401110FC651D0400BB911F059
:1003400010932D0111E01CBB00681AB11B77402FE0
:100350004B7754E05A95F1F70BB91AB94BB97FCFE7
:10036000259A23982B9A50E219D05A95E9F70895C7
:10037000AC0188E606D0842F04D089E602D0852F10
:1003800000C010D028E030E0382780FB869507D0E9
:100390002A95D1F730FB03D001D0089568942398B3
:1003A0002B9A16F02B98239AE0915001F09151016D
:1003B0003197F0F72D9AE3B1E3FBE0915001F09112
:1003C00051013197F0F72D98089520ECE7DF46F4BE
:1003D0002A95E1F780E02AE1E5DF2A95E9F7DECF0B
:1003E00028E030E0DBDF869587F938272A95D1F7BA
:1003F000D5DF27F9322772F3D1DFD0CFDB01742F9D
:10040000B7DF84E2BEDFE1DF8D937A95D1F70895FF
:10041000DB01742FADDF83EFB4DF8DE1B2DF84E663
:10042000B0DF8D91AEDF82E7ACDFCFDF8078D9F728
:100430007A9589F70895CF93DF93609133016350E4
:1004400067FD91C080912F01CCE0D0E0C81BD1099D
:10045000C95CDE4F80912E018D3209F0C2C0683038
:1004600009F07FC083EC809322018AE580933001FC
:10047000109206018881807679F0CE010E943106C3
:100480008F3F09F466C09F81911169C09E819817C2
:1004900008F065C0892F63C02A8110922B019981D1
:1004A00091110AC010922C012BE231E082E03093CE
:1004B000320120933101E7CF953029F420933401A4
:1004C0002BE231E0F4CF963099F59B81913059F4CD
:1004D0008AE790E0909332018093310182E190E4C9
:1004E00090930601D0CF923019F488E690E0F2CFD5
:1004F0009330A9F7211108C086EB90E09093320168
:100500008093310184E0EBCF213041F48AE990E01F
:1005100090933201809331018CE1E1CF2230F9F6E2
:100520008CE890E090933201809331018EE0D7CF38
:10053000983059F0993019F420933601C1CF81E0F9
:100540009A3009F4BDCF80E0BBCF26E331E081E0F3
:10055000AECF988197FD8E8190E8909306018093AD
:100560000701109233018091300184FF2DC0C091AA
:100570000701CF3F49F16C2FC93008F068E08C2F9C
:10058000861B809307018091220198E88927809338
:100590002201CC2361F02091060127FF35C083E2C0
:1005A00091E00E947208C82F893008F054C06C2F67
:1005B00083E291E00E949800CC5FCC3019F08FEF7D
:1005C00080930701C093300184E199B1947831F4AC
:1005D0008150D9F71092340110922D01DF91CF9103
:1005E00008958091060187FFBCCFCE010E94A70A23
:1005F0008F3F21F48EE180933001B3CF882309F43B
:10060000B0CF10920701ADCF8091310190913201AE
:1006100026FF17C0FC01A3E2B1E0262F280F34917A
:100620003D9331962E13FBCF2FEF260F30E02F5F37
:100630003F4F820F931F9093320180933101C62F59
:10064000B6CFA3E2B1E0FC01262F280F31913D93F4
:100650002E13FCCFE9CF8FEF80930701CEE1B2CF0D
:100660008AE5809330018FEF80930701E9E6F0E09F
:10067000808182608083E89A08958EBD0DB407FE64
:10068000FDCF8EB5089580914E018CBD80914D01B6
:100690008DBD089581111BC080910101811117C08A
:1006A00080E1809318012DE333E03093090120931A
:1006B000080110924D0191E090934F018A3041F171
:1006C000C8F4883049F1893029F181E518C0809358
:1006D0001801883040F72AEE33E030930901209367
:1006E0000801843041F1D0F4823049F1833029F19E
:1006F0008AEF1AC08E3031F0803139F780E580936F
:100700004E01089581E580934E0190934D01089527
:1007100082E5F9CF82E5F3CF83E5F1CF863039F07A
:1007200040F0873029F784E080934F01089588E0F6
:10073000FBCF80E1F9CF8FE1F7CF8FE3F5CF8DE7E6
:10074000F3CF0F931F93CF93DF93C82F0E944A03D9
:1007500011E0DFE3C83010F41FE0DAEFC3E02A9ABB
:10076000812F0E94D7052A988D2F0E94D705E091EE
:100770000801F09109018CEA0995E0910801F091D6
:10078000090183E50995E0910801F091090180E0F4
:100790000995082FE0910801F091090180E0099581
:1007A000033511F4882349F08FE19EE40197F1F7B6
:1007B00000C00000C15099F681E0DF91CF911F91F8
:1007C0000F91089526B590914F0186B5821B891728
:1007D000E0F308951F93CF93DF93182F2D98D8E05F
:1007E000C0E017FF16C02B9A110F0E94E2032D9A4A
:1007F0000E94E20383B182958170CC0FC82B2D98A3
:100800000E94E203D15069F78C2FDF91CF911F91A5
:1008100008952B98E9CF84B18C6284B924982A98E2
:100820002D9881E00E94D7052A9A81E00E94D70581
:100830002A9880910801909109018D53934011F4F9
:100840000E9443038FEF80930001089584B18C626E
:1008500084B980910801909109018D53934011F45E
:100860000E9443038FEF809300012A9A089584B178
:10087000837D84B985B1837D85B908950F931F93D6
:10088000CF93DF9380910D01882379F08091180137
:100890000E94A10381112BC0909118019093010136
:1008A000DF91CF911F910F910895809101018823CD
:1008B00059F00E94A103811105C09091010190930C
:1008C0001801EECF10920101CAEBD0E00C2F035FAC
:1008D000FE011491812F0E94A103811105C0109384
:1008E000180110930101DCCF21960C13F1CF81E0A8
:1008F000D7CF6115710521E08207910540F1DC0138
:10090000CB0121E1B695A795979587952A95D1F7C3
:10091000209100012817D9F080930001E09108018F
:10092000F09109018DE40995E0910801F091090128
:1009300080E00995E0910801F091090180910001A2
:100940000995E0910801F091090180E0099408956A
:10095000CF92DF92EF92FF926B017C01862F880F7E
:10096000880F880F8870E0910801F091090180627A
:100970000995D701C60129E0B695A7959795879562
:100980002A95D1F7E0910801F09109010995D70165
:10099000C601B695A79597958795E0910801F091C6
:1009A00009010995E0910801F091090180E0FF90AB
:1009B000EF90DF90CF900994CF92DF92EF92FF9269
:1009C0006B017C010E947904C701B601FF90EF9092
:1009D000DF90CF900C94A804CF92DF92EF92FF9219
:1009E000CF93DF936B017C01D42FC22F0E94790437
:1009F0008C2D880F880F880F8870E0910801F09186
:100A0000090180640995D701C60129E0B695A7952B
:100A1000979587952A95D1F7E0910801F091090102
:100A20000995D701C601B695A79597958795E09149
:100A30000801F09109010995E0910801F09109017F
:100A40008D2F0995C11108C080E0DF91CF91FF90F3
:100A5000EF90DF90CF900895DF3F71F0C0E281E02A
:100A60000E94D705C701B6010E94DC048D1761F30F
:100A7000C15049F481E0E9CFC701B6010E94DC040E
:100A80008F3F61F7E1CFC93150F784E0C03140F3C7
:100A900082E0E6CFCF92DF92EF92FF92CF936B018D
:100AA0007C010E947904E0910801F09109018CE435
:100AB0000995D701C60129E0B695A7959795879521
:100AC0002A95D1F7E0910801F09109010995D70124
:100AD000C601B695A79597958795E0910801F09185
:100AE00009010995E0910801F091090180E009955B
:100AF000C0E281E00E94D705C701B6010E94DC0474
:100B00008F3F81F4C15039F481E0CF91FF90EF9095
:100B1000DF90CF900895C93160F784E0C03150F381
:100B200082E0E8CF80E0F1CFCF93DF93EC01E0915A
:100B30000801F091090180EA0995E0910801F0911E
:100B400009018D2F0995E0910801F09109018C2F81
:100B50000995E0910801F091090180E0DF91CF91C2
:100B600009941F93CF93DF93D82F192FC62FE091AD
:100B70000801F091090180EC0995E0910801F091DC
:100B80000901812F0995E0910801F09109018D2F4C
:100B90000995E0910801F09109018C2F09958BE0EE
:100BA0000E94D70580E0DF91CF911F91089526B56F
:100BB00096B5921B9035E0F38150C9F70895262F22
:100BC000FC0142815381052E000C660B770B40938C
:100BD00014015093150160931601709317018681DB
:100BE0009781909313018093120120931901089526
:100BF0000F931F93FC01838191E0811101C090E06C
:100C000090930C0180930B019281909303018823B0
:100C100081F08230E1F404811581012E000C220B59
:100C2000330B009314011093150120931601309398
:100C3000170186819781909313018093120160932D
:100C400019018FEFFA0180831F910F91089500E041
:100C500010E09801813029F7048110E030E020E0B5
:100C6000E0CFCF92DF92FF920F931F93CF93DF934A
:100C70000F92CDB7DEB78C011982DC0111968C91F1
:100C800011978130B1F4809118010E944A03409875
:100C90000E940B040E943E0480930E01882321F0E1
:100CA0000E9437041092010180910E0180931A0175
:100CB0006BC08233B9F4809118010E944A034098B6
:100CC0000E9426048AE191E09093320180933101E1
:100CD00089810F90DF91CF911F910F91FF90DF904D
:100CE000CF900895833379F42A98F80192819093F4
:100CF00005012681378130931301209312018093DF
:100D000019018FEF9AC1843379F42A9812968C9145
:100D100012978093050116968D919C9190931301E3
:100D20008093120182E3EBCF863421F440980E9435
:100D3000EF0CC8CF893419F40E94F40CC3CF8A3465
:100D400019F40E94090DBECF8C3479F4809104010E
:100D500090E08E7F0E94F40CF80182810E941E0DAB
:100D60000E94090D10921A010FC08B3479F4809102
:100D70000401816090E00E94F40C80E00E944F0D1D
:100D800080931A010E94090D81E057C1873451F404
:100D900010920201AE014F5F5F4F66E3C8010E94EF
:100DA000F80590CF883459F414968C918093020101
:100DB00010920A01AE014F5F5F4F65E3EFCF8D34B4
:100DC00049F4F801828187FD03C080930401CACFF2
:100DD00081E06CCF8D3549F416968D919C9190935E
:100DE0001301809312018AE38ACF8C3549F4F8010C
:100DF00086819781909313018093120189E37FCFBD
:100E00008E3549F40E94D20D91E0811101C090E02D
:100E100090931A01B9CF8F3519F40E94E50D46CF92
:100E20008A35E1F540980E94880DD80112968C9180
:100E3000129713963C91139714962C91149715962C
:100E40009C911597809314013093150120931601FE
:100E50009093170116966C916F710E94990DF8018D
:100E6000F680F294F69447E0F422F6825AE1C52E19
:100E700051E0D52E10E0F11611F0143041F40E942B
:100E8000960D8F2D853008F4D8C084E0D6C00E941E
:100E9000BA0DD6018D936D011F5FEDCF823021F425
:100EA0000E943704419A0ECF833041F5E09108014A
:100EB000F091090112968C91099580931A01E091A5
:100EC0000801F0910901D80113968C91099580933E
:100ED0001B01E0910801F0910901D80114968C9151
:100EE000099580931C01E0910801F0910901D80156
:100EF00015968C91099580931D01C7CF853019F403
:100F00000E943E04D3CE62E0843009F4DAC063E08C
:100F1000873009F4D6C0863059F5F8018281938173
:100F2000092E000CAA0BBB0B8093140190931501A2
:100F3000A0931601B09317018581F0E18F9FC00146
:100F4000112488279F70D80114962C911497820F32
:100F5000911D9093100180930F01809311011696BB
:100F60008D919C91909313018093120181E0C7CEE3
:100F70008830D9F4F80182819381092E000CAA0BE4
:100F8000BB0B8093140190931501A0931601B093AD
:100F900017011092100110920F0186819781909392
:100FA00013018093120184E0AACE8930F1F41396E4
:100FB0002C91139712966C91129770E090E080E05C
:100FC000CB0177276627922B14962C911497622BCE
:100FD00015962C91722B61157105B2E08B07910566
:100FE00008F4C0CE0E947904BDCE8A3069F4F801BD
:100FF000828180931801811103C010920D01B2CE3D
:1010000081E080930D01AECE8131C9F410921A01B6
:101010008091180180931B018091010180931C0134
:1010200080914F0180931D018091000180931E01EA
:101030008091190180931F0186E0898343CE8B3014
:10104000A1F412968D919C9190935101809350013F
:101050002A9A229A83E00E94D7052A98409880E134
:101060000E94D7050E94B0012DCE8C30C1F480ECD7
:101070000E94C10180E00E94C1018AE00E94D70560
:101080002A9A85E00E94D7052A9885E00E94D70514
:1010900084B1837D84B985B1837D85B913CE8D30CC
:1010A00019F40E94E50102CE8E3029F4F801828104
:1010B0000E94C10157CE65E08F3019F0803129F4CC
:1010C00066E0C8010E94DF051CCE8F3709F0FACD1B
:1010D00083E180931A0181E880931B0110921C0127
:1010E0008FEC09CFAF92BF92CF92DF92EF92FF9237
:1010F0000F931F93CF93DF93EC01809119019EEF23
:10110000980F923048F0853039F0833329F08933D5
:1011100019F0863309F0FFC170E0E0901201F09001
:1011200013016E157F0508F47B011E2D41988091F7
:101130001901853069F54E2DBE0180911401909101
:1011400015010E94FE018091140190911501A0915A
:101150001601B09117018E0D9F1DA11DB11D809329
:10116000140190931501A0931601B093170180917B
:101170001201909113018E199F099093130180938E
:101180001201892B11F410921901419A409AB7C0AB
:10119000833359F50C2FC02EDD2E8C2D801B81172B
:1011A000B0F080911201909113018E199F099093D4
:1011B000130180931201892B41F780910501882347
:1011C00011F32A9A25E02A95F1F70000DCCFE0918F
:1011D0000801F091090180E00995F60181936F0102
:1011E000F5E0FA95F1F70000D8CF863309F09DC0FD
:1011F00080911201909113018E159F0508F4182F0C
:1012000080910A0181113EC00091030180910C017F
:101210008823B1F08091140190911501A0911601DD
:10122000B09117010097E1E0AE07B10548F02FE05B
:10123000B695A795979587952A95D1F78E70082B27
:101240000E94F40C802F0E941E0D811164C08091B9
:101250000B01882361F0809115010E941E0D809181
:101260000B01823020F0809114010E941E0D0E941B
:10127000F40C802F81600E941E0D81114CC081E012
:1012800080930A01F12CE12CC12ED12C560121E0D2
:10129000A21AB1081EC081E0AE14BF0409F080E0BC
:1012A0000E944F0D89938091140190911501A09196
:1012B0001601B09117010196A11DB11D8093140173
:1012C00090931501A0931601B0931701FFEFEF1A49
:1012D000FF0AE11600F380911201909113018C191D
:1012E0009D099093130180931201892B41F40E9470
:1012F000090D1092190110920C0110920A01812F10
:10130000DF91CF911F910F91FF90EF90DF90CF90E1
:10131000BF90AF9008950E94090D1092190110928C
:101320000C0110920A0110E0EACF893309F50C2F65
:10133000CC2EDD2E8C2D801B811780F08091120128
:10134000909113018E199F099093130180931201BC
:10135000892B09F01ACF0E94960D15CF0E94BA0D65
:10136000F60181936F01F5E0FA95F1F70000E2CF05
:10137000823009F09DC08091140190911501A091D7
:101380001601B09117010197A109B1098E0D9F1D9A
:10139000A11DB11D00E00097A240B10508F461C095
:1013A000011708F0E4CE609114017091150180914D
:1013B0001601909117010E947904D12ED01A409104
:1013C0001401509115016091160170911701DB0114
:1013D000CA0188279927AE7F1296841B950BA60B0E
:1013E000B70B8F3F9105A105B10509F018F48D15D4
:1013F00008F4D82E5E01A00EB11CC12CDC1034C044
:101400000D0DCECFD12ED01A80E48D1510F480E4CE
:10141000D82E5E01A00EB11CC12C609114017091F8
:10142000150180911601909117010E94A804F50101
:1014300081935F018091140190911501A091160193
:10144000B09117010196A11DB11D809314019093D5
:101450001501A0931601B0931701C394DC10DDCFE2
:101460000D0D011778F283CE609114017091150172
:101470008091160190911701882799270E94A8044E
:10148000F50181935F018091140190911501A09164
:101490001601B09117010196A11DB11D8093140191
:1014A00090931501A0931601B0931701C394A6CF92
:1014B000833089F50C2FCC2EDD2E8C2D801B8117CF
:1014C00008F055CE8091140190911501A09116015C
:1014D000B09117018115E0E19E07A105B105C8F49F
:1014E0000E949405F60181936F01809114019091FF
:1014F0001501A0911601B09117010196A11DB11D12
:101500008093140190931501A0931601B0931701D5
:10151000D4CF8FEFE7CF419A1FEFF1CE0F931F93F8
:10152000CF93DF93EC018C01060F111DC017D1077B
:1015300031F480E0DF91CF911F910F91089568E021
:1015400089910E94990D882389F381E0F3CF8F92CE
:101550009F92AF92BF92CF92DF92EF92FF920F9342
:101560001F93CF93DF93D82FB92E80911901882331
:1015700009F4E1C1813059F0982F9D7F943039F002
:10158000982F977F923319F0853309F0D4C170E01A
:1015900000911201109113016017710708F48B017B
:1015A000D02E4198C0911901C63069F5402F6D2F9A
:1015B0007B2D80911401909115010E940802809169
:1015C000140190911501A0911601B0911701800F9F
:1015D000911FA11DB11D8093140190931501A0933B
:1015E0001601B09317018091120190911301801B95
:1015F000910B9093130180931201892BE9F0C0E0C5
:10160000419A409A5EC0C23319F5CD2FED2EFB2CC6
:101610008E2D8C1B8D1598F08091120190911301E5
:10162000801B910B9093130180931201892B39F742
:101630008091050181112A9A10921901E0CFE09161
:101640000801F0910901D7018D917D010995E0CF45
:10165000C53309F06AC0809112019091130180177F
:10166000910708F4D82E80910C018823D9F1C091FC
:101670000A01C11137C0809103010E941E0D882309
:1016800071F181E080930A01809112019091130120
:10169000892BB9F480910201882309F443C00E9488
:1016A000090D80910C01882331F08FE19EE40197B0
:1016B000F1F700C000001092190110920C01109275
:1016C0000A018C2FDF91CF911F910F91FF90EF9026
:1016D000DF90CF90BF90AF909F908F90089581E062
:1016E00080930A01ED2EFB2C10E000E00D1560F058
:1016F000C1E08091120190911301801B910B909396
:10170000130180931201C0CFF70181917F010E94E4
:101710001E0D98012F5F3F4F811102C08901E6CF56
:10172000C0E0E7CF0E94F40CC6CFCA33D1F4602FDB
:101730008D2F9B2D0E948E0AC82F8111FEC0809193
:10174000120190911301801B910B909313018093D0
:101750001201892B09F053CF0E94960D10921901A6
:101760004FCFCD2EED2EFB2CC13009F46BC0C43011
:1017700009F0DFC08091140190911501A09116012C
:10178000B0911701CD2F0097A140B10508F4BCC05E
:1017900010921901CCEF34CFD7014D917D016091AA
:1017A00014017091150180911601909117012091FB
:1017B0000F0130911001232B49F421E00E94EC0429
:1017C000882369F110921901CBEF1ACF20E00E9413
:1017D000EC048111F7CF80911101815080931101A8
:1017E00081111DC060910F0170911001719561957B
:1017F000710990E080E08090140190901501A09014
:101800001601B0901701682179218A219B210E943D
:101810004A058111D7CF80910F01809311018091EA
:10182000140190911501A0911601B0911701019634
:10183000A11DB11D8093140190931501A093160171
:10184000B09317018E2D8C198D1508F4A5CF8091BA
:10185000120190911301801B910B909313018093BF
:101860001201892B09F0CBCE1092190180910F0142
:1018700090911001009709F4C3CE2091110128170F
:10188000190609F4BDCE00911401109115012091A3
:10189000160130911701011511052105310509F4D3
:1018A00093CF919581959109B0E0A0E00150110985
:1018B00021093109BC01CD016023712382239323C7
:1018C0000E944A05882309F49BCE7ECFD7016D91F3
:1018D0007D0180911401909115010E94B105811143
:1018E00057CF8091140190911501A0911601B091EC
:1018F00017010196A11DB11D80931401909315014C
:10190000A0931601B09317018E2D8C1B8D15F0F24C
:101910008091120190911301801B910B9093130100
:1019200080931201892B09F06ACE10921901C1E04F
:1019300067CECFEF65CECFEFC4CECDEFC2CEA0E85D
:10194000B0E01C92E1E8F0E0108280818860808342
:1019500080818260808388EE93E0909389008093F9
:1019600088008C9180648C9308951BB88BB18B7721
:101970008BB98AB184688AB92FEF30E782E02150B1
:1019800030408040E1F700C000008AB18B778AB90F
:1019900014B8219A93E097B93A9888B18C6388B9C2
:1019A00040982FEF31EE84E0215030408040E1F745
:1019B00000C00000409A41982FEF31EE84E02150A2
:1019C00030408040E1F700C00000419A95BD0E9480
:1019D0009F0C0E94300378940E941B02FDCF249834
:1019E0002C9A23982B9A089524982C9A23982B9A12
:1019F0008AE18A95F1F700C0249A2C988AE18A95A9
:101A0000F1F700C0239A2B988AE18A95F1F700C07C
:101A10000895239A2B98249A2C988AE08A95F1F7B6
:101A200000C023982B9A8AE08A95F1F700C0249889
:101A30002C9A8AE18A95F1F700C0089598E0239ADC
:101A40002B982AE02A95F1F700C087FF25C024983B
:101A50002C9A2AE02A95F1F700C023982B9A2AE1C4
:101A60002A95F1F700C0880F915049F7239A2B98D7
:101A700024982C9A8AE08A95F1F700C023982B9A33
:101A80002AE12A95F1F700C083B1239A2B98829519
:101A90008F70809581700895249A2C98DACF282F22
:101AA00024982C9A98E080E0239A2B983AE13A9572
:101AB000F1F700C023982B9A3AE13A95F1F700C06C
:101AC000880F1C998160915079F7239A2B982111E6
:101AD00011C0249A2C989AE09A95F1F700C02398A7
:101AE0002B9A3AE03A95F1F700C0239A2B98249864
:101AF0002C9A089524982C9AEECF2D98089584B1AD
:101B00008C6284B924980E947D0D2B982A980895A0
:101B10002A982D980E94E2032A9A2B9A0E94E203A7
:101B20002D9A0E94E2032D980C94E2032A980C94BB
:101B30007D0DCF93DF93D82F6150770BC1E001C0AB
:101B4000CC0F6A95EAF7C11104C080E0DF91CF9114
:101B500008950E947D0D8C2F8D2351F02B9A0E94A9
:101B6000E2032D9A0E94E2030E947D0DC695EBCF01
:101B70002B98F5CFCF93DF93D8E0C0E00E947D0D86
:101B80000E94E2032D9A83B182958170CC0FC82BFD
:101B90000E94E2030E947D0DD15081F78C2FDF91CE
:101BA000CF910895CF930E947F0D2A9A85E38A955D
:101BB000F1F700000E94E203C3B10E94960DC295A6
:101BC000C17081E08C27CF910895CF930E947F0D43
:101BD0002A9A85E38A95F1F7000068E080EC0E947C
:101BE000990DC0E00E947D0D0E94E2032D9A0E9493
:101BF000E2031C9908C0CA5F0E947D0D0E94960DE9
:101C00008C2FCF9108950E947D0DCF5FC73051F783
:081C1000CFEFF4CFF894FFCFF1
:061C1800FF0E01A0FF0118
:00000001FF
