:100000000C946A000C94A2000C9487000C94870056
:100010000C9487000C9487000C9487000C94870044
:100020000C9487000C9487000C9487000C94870034
:100030000C9487000C9487000C9487000C94870024
:100040000C9487000C9487000C9487000C94870014
:100050000C9487000C9487000C9487000C94870004
:100060000C9487000C94870009021200010100A083
:100070001909040000000000000012011001FF0037
:100080000008C016DC050701010200010E0355003F
:10009000530042006100730070001C03770077007A
:1000A00077002E00660069007300630068006C0032
:1000B0002E00640065000403090400010001000033
:1000C0005051515252530D0C0B0A090807060504F2
:1000D0000302010011241FBECFEFD8E0DEBFCDBF69
:1000E00011E0A0E0B1E0ECE0FBE102C005900D9270
:1000F000A430B107D9F721E0A4E0B1E001C01D921E
:10010000A535B207E1F70E94170C0C94840D0C94EE
:100110000000A82FB92F80E090E041E050EA609500
:1001200030E009C02D9182279795879510F084279C
:100130009527305EC8F36F5FA8F30895EADF8D93CB
:100140009D930895CF93CFB7CF93DF93C3954F9BE4
:10015000E9F74F9B0BC04F9B09C04F9B07C04F9BBC
:1001600005C04F9B03C04F9B01C089C06F93C091D6
:100170003301DD27C55CDE4F2F9365E54F9B03C040
:100180002F916F91E6CF0F931F934F9320E040E1A3
:100190005F9309B1047807FB27F93F9350E03BE0F8
:1001A00039C0147840642F77012F5F5F1EC040680C
:1001B00019B114782F7752501FC0406409B12F77BE
:1001C0000478D1F15F5F00C023C0406219B12F777E
:1001D000147891F15F5F00C025C00478102751505A
:1001E00012F45D5F0000115027952C3F19B1C8F63D
:1001F00014780127015027952C3FC8F642274993D0
:1002000009B1047810274F73115027952C3FA8F699
:100210004695469519B1147879F001270150279534
:100220002C3F98F66B5A60F3315009B1B0F600C01C
:1002300011E01CBB002717C03B503195C31BD040B9
:1002400011E01CBB0881033CF9F00B34E9F020916C
:1002500031011981110F1213EDCF093651F10D3211
:1002600011F0013E39F7009339013F915F914F91B1
:100270001F910F912F916F91CCB3C0FD67CFDF918C
:10028000CF91CFBFCF91189520913901222369F3E7
:1002900010913701112339F534303AF13093370199
:1002A00020933201109133013BE0311B3093330135
:1002B0001CC0009137010130B4F40AE530913401DB
:1002C00034FD14C000933401C6E2D1E013C0052709
:1002D00010E000C000000BB91AC0052710E0221F73
:1002E0001DC010E021C04AE502C032ED432FC4E139
:1002F000D0E032E01AB114685F9A0BB11AB954E831
:1003000020E865E320FF05270BB9279517951C3FCB
:10031000F0F66695B8F7B1F720FF05270BB92795DA
:1003200017951C3FD0F62795179517FF0527000056
:100330001C3F0BB9B0F629913A9519F70B7710913C
:100340003801110FC651D0400BB911F01093310193
:1003500011E01CBB00681AB11B77402F4B7754E0AB
:100360005A95F1F70BB91AB94BB97FCF2D98259A49
:1003700023982B9A50E22DD05A95E9F708952AD068
:1003800028E03327382780FB869525D02A95D1F79A
:1003900030FB21D01ED01DD0089520EC1AD04EF491
:1003A0002A95E1F780E02AE115D02A95E9F711D0E6
:1003B000089528E0332788270CD0869587F93827B9
:1003C0002A95D1F706D027F9322772F302D001D04F
:1003D00008956894E89416F42B9A01C02B9806D0DF
:1003E0002D9AE3B1E3FB02D02D980895E0915201DC
:1003F000F09153013197F0F7089518D084E2BFDFF0
:10040000CCDF8D934A95D1F7089510D083EFB7DFF5
:100410008DE1B5DF84E6B3DF8D91B1DF82E7AFDF39
:10042000BCDF8078D9F74A9589F70895AC0188E652
:10043000A6DF842FA4DF89E6A2DF852FA0DF089541
:10044000BA01A901DACFBA01A901DFCFCF93DF93B7
:1004500060913701635067FD91C080913301CCE01A
:10046000D0E0C81BD109C55CDE4F809132018D32CE
:1004700009F0C2C0683009F07FC083EC8093260188
:100480008AE580933401109204018881807679F0A6
:10049000CE010E9420068F3F09F466C09F81911112
:1004A00069C09E81981708F065C0892F63C02A81B2
:1004B00010922F01998191110AC0109230012FE200
:1004C00031E082E03093360120933501E7CF95305B
:1004D00029F4209338012FE231E0F4CF963099F5DA
:1004E0009B81913059F48AE790E090933601809394
:1004F000350182E190E490930401D0CF923019F459
:1005000088E690E0F2CF9330A9F7211108C086EB7E
:1005100090E0909336018093350184E0EBCF213059
:1005200041F48AE990E090933601809335018CE1A3
:10053000E1CF2230F9F68CE890E090933601809379
:1005400035018EE0D7CF983059F0993019F42093C7
:100550003A01C1CF81E09A3009F4BDCF80E0BBCF32
:100560002AE331E081E0AECF988197FD8E8190E85B
:10057000909304018093050110923701809134011A
:1005800084FF2DC0C0910501CF3F49F16C2FC930C8
:1005900008F068E08C2F861B80930501809126016E
:1005A00098E8892780932601CC2361F020910401EB
:1005B00027FF35C087E291E00E946708C82F893085
:1005C00008F054C06C2F87E291E00E949E00CC5F3F
:1005D000CC3019F08FEF80930501C093340184E192
:1005E00099B1947831F48150D9F710923801109272
:1005F0003101DF91CF9108958091040187FFBCCF35
:10060000CE010E94010A8F3F21F48EE180933401D4
:10061000B3CF882309F4B0CF10920501ADCF8091FC
:1006200035019091360126FF17C0FC01A7E2B1E029
:10063000262F280F34913D9331962E13FBCF2FEFA9
:10064000260F30E02F5F3F4F820F931F90933601AC
:1006500080933501C62FB6CFA7E2B1E0FC01262F6B
:10066000280F31913D932E13FCCFE9CF8FEF80936C
:100670000501CEE1B2CF8AE5809334018FEF8093FC
:100680000501E9E6F0E0808182608083E89A0895C0
:100690008EBD0DB407FEFDCF8EB508958091070184
:1006A0008CBD809106018DBD089584B18C6284B9A2
:1006B00024988091090190910A018854934011F483
:1006C0000E944E038FEF809300010895811105C0B1
:1006D00080910101811101C08DE09FEF980F9D3045
:1006E00008F08DE080931C0198EF980F9630D8F4B5
:1006F00028E433E030930A012093090191E09093BC
:100700000801EDE0E81B8E2F90E0FC01E054FF4F64
:10071000E491E0930701FC01E654FF4FE491E0937C
:1007200006010C944E0308950F931F93CF93DF930C
:10073000C82F0E94660311E0DFE3C83010F41FE009
:10074000DAEFC3E02A9A812F0E94A3052A988D2F01
:100750000E94A305E0910901F0910A018CEA099534
:10076000E0910901F0910A0183E50995E091090101
:10077000F0910A0180E00995082FE0910901F091BC
:100780000A0180E00995033511F4882331F083E0F4
:100790000E94A305C150B1F681E0DF91CF911F9176
:1007A0000F91089526B59091080186B5821B89178F
:1007B000E0F308950E9455032A982D9881E00E9445
:1007C000A3052A9A81E00E94A3052A9808950E9411
:1007D00055032A9A08952A9A81E00E94A30584B1BC
:1007E000837D84B985B1837D85B91CBC10921C01C1
:1007F00008950F931F93CF93DF9380910C0188236B
:1008000079F080911C010E949403811121C0909184
:100810001C0190930101DF91CF911F910F910895D9
:1008200080910101811109C0C0E00C2F10E00A5332
:100830001F4FCD30F1F481E0EECF0E94940381117F
:1008400005C09091010190931C01E5CF1092010128
:1008500080910C01882341F380911C01E6ECF0E0CB
:10086000C0E09491CF5F891701F33196CD30C9F77D
:10087000DBCFF801D4918D2F0E9494030F5F1F4F9F
:10088000811105C0D0931C01D0930101C4CFCF5F6B
:10089000D0CFCF9390910B01992309F1C82FC69522
:1008A000809100018C17D9F0C0930001E0910901FB
:1008B000F0910A018DE40995E0910901F0910A0196
:1008C00080E00995E0910901F0910A018C2F0995CA
:1008D000E0910901F0910A0180E0CF910994CF9154
:1008E0000895CF92DF92EF92FF926B017C01862FE9
:1008F000880F880F880F8870E0910901F0910A0134
:1009000080620995D701C60129E0B695A79597950C
:1009100087952A95D1F7E0910901F0910A0109958F
:10092000D701C601B695A79597958795E0910901DE
:10093000F0910A010995E0910901F0910A0180E026
:10094000FF90EF90DF90CF900994CF92DF92EF92DB
:10095000FF92CF93DF936B017C01D42FC22F862FA0
:10096000880F880F880F8870E0910901F0910A01C3
:1009700080640995D701C60129E0B695A79597959A
:1009800087952A95D1F7E0910901F0910A0109951F
:10099000D701C601B695A79597958795E09109016E
:1009A000F0910A010995E0910901F0910A018D2F5A
:1009B0000995C11108C080E0DF91CF91FF90EF90C1
:1009C000DF90CF900895C701B6010E947104C0E185
:1009D0008D1789F381E00E94A305C701B6010E942B
:1009E00071048D1741F3C15011F481E0E5CFCB3094
:1009F00088F784E0C83078F382E0EDCFCF92DF92C1
:100A0000EF92FF92CF936B017C01E0910901F0918D
:100A10000A018CE40995D701C60129E0B695A7958E
:100A2000979587952A95D1F7E0910901F0910A01F0
:100A30000995D701C601B695A79597958795E09139
:100A40000901F0910A010995E0910901F0910A016B
:100A500080E00995C9E181E00E94A305C701B601C4
:100A60000E9471048F3F81F4C15039F481E0CF912D
:100A7000FF90EF90DF90CF900895C03160F784E051
:100A8000C63050F382E0E8CF80E0F1CFCF93DF9320
:100A9000EC01E0910901F0910A0180EA0995E091E9
:100AA0000901F0910A018D2F0995E0910901F0915A
:100AB0000A018C2F0995E0910901F0910A0180E06B
:100AC000DF91CF9109940F931F93CF93DF93182F4A
:100AD000092FD62FE0910901F0910A0180EC0995C8
:100AE000E0910901F0910A01802F0995E091090137
:100AF000F0910A01812F0995E0910901F0910A0115
:100B00008D2F0995812F902F0E944605C6E08D13E9
:100B100018C080E0DF91CF911F910F910895C530EB
:100B200081F084E0C33008F082E00E94A305812FA9
:100B3000902F0E9446058D1761F3C15081F781E027
:100B4000E9CF81E0F2CF26B596B5921B9035E0F360
:100B50008150C9F70895262F30910B0131110FC034
:100B6000FC0142815381052E000C660B770B4093EC
:100B700018015093190160931A0170931B01FC0135
:100B800086819781909317018093160120931D0110
:100B90000895FC0182819381909313018093120147
:100BA00084818093140185818093110186819781CE
:100BB00090931701809316011092100160931D010C
:100BC00008950F931F93CF93DF93EB018A010E9447
:100BD00016020C0F1D1FC017D10729F4DF91CF910A
:100BE0001F910F91089584E20E94BF010E94CD01E0
:100BF0008993F1CF0F931F93CF93DF93EB018A017A
:100C00000E9416020C0F1D1FC017D10729F4DF9197
:100C1000CF911F910F91089583EF0E94BF018DE145
:100C20000E94BF0184E60E94BF0189910E94BF011A
:100C300082E70E94BF010E94CD0187FDF9CFE4CF7A
:100C4000EF92FF920F931F93CF93DF938C01EEE10E
:100C5000F1E088E0DF011D928A95E9F7F801C18192
:100C6000C13029F580911C010E94660310920B018E
:100C700040980E94DA030E94F90380930D018823B3
:100C800021F00E94EB031092010180910D018093ED
:100C90001E018EE191E090933601809335018C2FF7
:100CA000DF91CF911F910F91FF90EF900895C23384
:100CB00049F480911C010E94660340980E94E7035A
:100CC000C0E0E7CFC33371F42A9882818093020198
:100CD000868197819093170180931601C0931D011F
:100CE000CFEFD7CFC43371F42A9882818093020169
:100CF00086819781909317018093160182E38093F8
:100D00001D01EECFC63421F440980E94510CD8CF7B
:100D1000C93419F40E94560CD3CFCA3419F40E9476
:100D20006B0CCECFCC3431F482810E94800C809346
:100D30001E016EC0CB3421F482810E94B10CF7CF2A
:100D4000C73429F50E94560C60E0D80112968C91A8
:100D50000E94DF0CF801858180FF03C084810E941E
:100D6000800CD80113968C910E94800C0E94560C26
:100D700061E0F80182810E94DF0CD80116968D9106
:100D80009C91909317018093160186E3B8CFC834E5
:100D900021F50E94560C60E0F80182810E94DF0C70
:100DA000D80115968C911597C82F80FF04C0149612
:100DB0008C910E94800CF80183810E94800CC69562
:100DC000C170C0935401D80116968D919C91909357
:100DD00017018093160185E392CFCD3429F48281E7
:100DE00087FF16C081E0A3CF6AE3CD3519F0CC357B
:100DF00029F469E3C8010E94C90572CFCE3551F4C8
:100E00000E943F0D91E0811101C090E090931E017E
:100E1000C1E03FCFCF3519F40E94520D88CFCA35BB
:100E2000A1F540980E94F20CF80182819381A4817F
:100E3000B5818093180190931901A0931A01B09382
:100E40001B0166816F710E94FC0CD8011696CC9133
:100E50001697C295C695C7701696CC938EE1E82E6C
:100E600081E0F82E10E0C11711F0143039F40E941F
:100E7000F90CC53008F40DCFC4E00BCF0E94260D4D
:100E8000F70181937F011F5FEECFC23029F40E94EA
:100E9000EB03419A409A14CFC33089F5E0910901E0
:100EA000F0910A01D80112968C91099580931E0148
:100EB000E0910901F0910A01D80113968C910995EE
:100EC00080931F01E0910901F0910A01D801149665
:100ED0008C91099580932001E0910901F0910A011C
:100EE000D80115968C9109958093210110922201C9
:100EF000109223011092240110922501BDCFC5301C
:100F000019F40E94F90313CF62E0C43009F4CEC093
:100F100063E0C73009F4CAC0C63041F580910B01C7
:100F200081110EC082819381092E000CAA0BBB0B8C
:100F30008093180190931901A0931A01B0931B019B
:100F4000D80114968C91149715969C9115978093BF
:100F50000E0190930F018093150116968D919C912F
:100F6000909317018093160181E0C9CEC83001F536
:100F700080910B0181110EC082819381092E000C9A
:100F8000AA0BBB0B8093180190931901A0931A012F
:100F9000B0931B0110920F0110920E01D80116960A
:100FA0008D919C91909317018093160184E0A7CEB8
:100FB000C930A1F481E080930B0162817381848147
:100FC0009581609318017093190180931A01909391
:100FD0001B010E94490410921E011ACFCA3061F40D
:100FE000828180931C01811103C010920C0110CFEB
:100FF00081E080930C010CCFC131B1F480911C01D0
:1010000080931F018091010180932001809108014C
:1010100080932101809100018093220180911D0124
:1010200080932301C6E035CECB30A9F48281938131
:10103000909353018093520110920B012A9A229AA5
:1010400083E00E94A3052A98409880E10E94A305AE
:101050000E94B60135CECC30C1F480EC0E94BF01B5
:1010600080E00E94BF018AE00E94A3052A9A85E0E1
:101070000E94A3052A9885E00E94A30584B1837D80
:1010800084B985B1837D85B904CFCD3019F40E9430
:10109000CD014DCECE3021F482810E94BF019BCF85
:1010A00065E0CF3019F0C03129F466E0C8010E9434
:1010B000AB0516CECF3709F003CE83E180931E0136
:1010C00081E880931F018FEC80932101D5CE4F9250
:1010D0005F926F927F928F929F92AF92BF92DF92B8
:1010E000EF92FF920F931F93CF93DF93EC018091C8
:1010F0001D019EEF980F923048F0853039F0833310
:1011000029F0893319F0863309F066C170E0009147
:101110001601109117016017710708F48B01D02E8A
:10112000419880911D01853049F5A801BE0180914B
:101130001801909119010E94E10580911801909188
:101140001901A0911A01B0911B01800F911FA11DDF
:10115000B11D8093180190931901A0931A01B093C7
:101160001B018091160190911701801B910B9093A8
:10117000170180931601892B39F524C0833339F583
:10118000F02E07C0E0910901F0910A0180E0099575
:101190008993FA943FEFF312F5CF80911601909165
:1011A0001701801B910B9093170180931601892BD7
:1011B00059F480910201882329F02A9A85E08A95C2
:1011C000F1F7000010921D01419A409A09C186333F
:1011D00051F5E0901601F0901701E016F10608F4C1
:1011E0008701D02E57018E2D8A198D1558F0E01ADF
:1011F000F10AF0921701E0921601EF2829F70E94F8
:101200006B0CE0CFE1E0AE1AB1084E01FFEF8F1A90
:101210009F0A81E0A114B10409F080E00E94B10CA2
:101220008883E401E0CF893309F052C08091100136
:1012300081112AC02091140182E0820FEE24E394F0
:10124000F12C02C0EE0CFF1C8A95E2F7809112018E
:1012500090911301E82AF92A80911101837090E09E
:1012600002C0880F991F2A95E2F7E82AF92A0E94FE
:10127000F20C609114016D5FC7010E94FC0C0E948A
:10128000790D81E080931001E0901601F090170134
:101290000E151F0508F47801DE2C1E2D1150A0F448
:1012A00080911601909117018E199F099093170153
:1012B00080931601892B09F087CF0E94F90C1092B8
:1012C0001D011092100180CF0E94260D8993E6CF58
:1012D000823009F04AC08090180190901901A090C6
:1012E0001A01B0901B01E0901601F09017010E1545
:1012F0001F0508F47801DE2CC501B4010E944904E1
:10130000CE0124013501282F2C1B2D1598F08D0CB2
:10131000911CA11CB11C8092180190921901A092FD
:101320001A01B0921B0180911601909117018E193C
:101330009F091DCF8C01C301B2010E947104F80105
:1013400081938F01FFEF4F1A5F0A6F0A7F0AD30163
:10135000C201A170BB27892B8A2B8B2B21F4C301DF
:10136000B2010E944904C801CECF8330A9F5E090B4
:101370001601F09017010E151F0508F478011E2DB7
:10138000115080F480911601909117018E199F09D8
:101390009093170180931601892B11F410921D016F
:1013A000DE2C12CF8091180190911901A0911A01A1
:1013B000B0911B01AC01BD014F5F5F4F6F4F7F4F7D
:1013C000409318015093190160931A0170931B0107
:1013D0000E9446058993D4CF419A409ADD24DA943D
:1013E0008D2DDF91CF911F910F91FF90EF90DF90A6
:1013F000BF90AF909F908F907F906F905F904F9035
:1014000008958F929F92AF92BF92CF92DF92EF9208
:10141000FF920F931F93CF93DF93EC0180911D01F7
:10142000882309F4ECC1813059F0982F9D7F9430C6
:1014300039F0982F977F923319F0853309F0DFC187
:1014400070E080901601909017016815790508F4F6
:101450004B01419810911D011630D1F5A401BE0138
:1014600080911801909119010E94FA05809118014C
:1014700090911901A0911A01B0911B01880D991D3D
:10148000A11DB11D8093180190931901A0931A0119
:10149000B0931B0180911601909117018819990949
:1014A0009093170180931601892B09F453C010E023
:1014B000419A409A812FDF91CF911F910F91FF9018
:1014C000EF90DF90CF90BF90AF909F908F90089556
:1014D0001233F1F4182D1150A0F48091160190915F
:1014E0001701881999099093170180931601892B88
:1014F000F1F68091020181112A9A10921D0111E0EA
:10150000D7CFE0910901F0910A0189910995E3CFC4
:10151000153351F5E0901601F09017018E149F04D9
:1015200008F47401DE2CCE01282F2C1B2D15A8F0F9
:1015300080911601909117018E199F0990931701C0
:1015400080931601892B09F0B2CF8091540181114B
:101550000E946B0C10921D01AACFFC0181918F019A
:101560000E94800CC801E0CF1A3309F052C080916C
:101570001001811127C02091140182E0820F01E047
:1015800010E002C0000F111F8A95E2F7809112014E
:1015900090911301082B192B80911101837090E019
:1015A00002C0880F991F2A95E2F7082B192B0E9479
:1015B000F20C609114016D5FC8010E94FC0C81E087
:1015C0008093100100911601109117018016910669
:1015D00008F48401F02EFA942FEFF21214C08091D7
:1015E000160190911701801B910B90931701809326
:1015F0001601892B09F05BCF0E94F90C10921D0196
:10160000109210017CCF899168E090E00E94FC0C60
:10161000E2CF113009F0BAC0C0901801D090190182
:10162000E0901A01F0901B01C701B6010E94490425
:101630005E01A80CB91C0FEFCA15DB0509F041C00B
:10164000C0921801D0921901E0921A01F0921B0188
:1016500080911601909117018819990990931701AB
:1016600080931601892B09F022CF10921D01609101
:101670000E0170910F016115710509F419CF809168
:1016800015018617170609F413CF41E0C41AD108D3
:10169000E108F108B0E0A0E09B01AD0166277727E3
:1016A000CB01621B730B840B950B6C217D218E216A
:1016B0009F210E94FE0481111AEF8FEF8093000199
:1016C000F7CE499180910E0190910F01892BA1F4E1
:1016D00021E0C701B6010E94A504882309F443C094
:1016E00010921D01C0921801D0921901E0921A01C6
:1016F000F0921B011BEFDCCE20E0C701B6010E9477
:10170000A5048111EDCF80911501815080931501C1
:10171000811129C080910E0190910F01B0E0A0E0ED
:101720009C01AD0166277727CB01621B730B840BED
:10173000950B6C217D218E219F210E94FE04882320
:1017400061F010921D01C0921801D0921901E0922F
:101750001A01F0921B011AEFABCE80910E0180931B
:101760001501009300013FEFC31AD30AE30AF30AFD
:10177000D701C601A170BB27892B8A2B8B2B09F0BF
:101780005BCFC701B6010E94490456CF1430A9F5BA
:101790008E01080D191DC017D10771F48091160133
:1017A0009091170188199909909317018093160158
:1017B000892B09F4A2CE7BCE69918091180190917A
:1017C00019010E946305882321F010921D011CEF6E
:1017D0006FCE8091180190911901A0911A01B091DA
:1017E0001B010196A11DB11D809318019093190151
:1017F000A0931A01B0931B01CECF1FEF59CE1FEF5C
:1018000059CEA0E8B0E01C92E1E8F0E010828081BF
:101810008860808380818260808388EE93E09093EB
:101820008900809388008C9180648C9308951BB804
:101830008BB18B778BB98AB184688AB92FEF30E787
:1018400082E0215030408040E1F700C000008AB1C2
:101850008B778AB914B8219A93E097B93A9888B1EE
:101860008C6388B940982FEF31EE84E021503040EE
:101870008040E1F700C00000409A41982FEF31EE20
:1018800084E0215030408040E1F700C00000419AE0
:1018900095BD0E94010C0E943B0378940E94260291
:1018A000FDCF24982C9A23982B9A089524982C9A4B
:1018B00023982B9A85E18A95F1F70000249A2C98B9
:1018C00085E18A95F1F70000239A2B9885E18A95A6
:1018D000F1F700000895239A2B98249A2C988AE017
:1018E0008A95F1F700C023982B9A8AE08A95F1F740
:1018F00000C024982C9A85E18A95F1F7000008959C
:1019000098E0239A2B982AE02A95F1F700C087FFE8
:1019100025C024982C9A2AE02A95F1F700C0239834
:101920002B9A25E12A95F1F70000880F915049F78D
:10193000239A2B9824982C9A8AE08A95F1F700C074
:1019400023982B9A25E12A95F1F7000083B1239A79
:101950002B9882958F70809581700895249A2C9889
:10196000DACF282F24982C9A98E080E0239A2B989D
:1019700035E13A95F1F7000023982B9A35E13A9535
:10198000F1F70000880F1C998160915079F7239A34
:101990002B98211111C0249A2C989AE09A95F1F76E
:1019A00000C023982B9A3AE03A95F1F700C0239AA9
:1019B0002B9824982C9A089524982C9AEECF880F6F
:1019C000613009F481600C94800C2D9A08952D9853
:1019D000089584B18C6284B924980E94E70C2B98F6
:1019E0002A9808952A982D980E94D2032A9A0C9436
:1019F000D2032A980C94E70C0F931F93CF93DF9395
:101A00008C016150770BC1E0D0E002C0CC0FDD1F2C
:101A10006A95E2F7209729F4DF91CF911F910F91FA
:101A200008950E94E70CCE0180239123892B61F059
:101A30002B9A0E94D2030E94E50C0E94D2030E94BE
:101A4000E70CD695C795E6CF2B98F3CFCF93DF93CE
:101A5000D8E0C0E00E94E70C0E94D2030E94E50C8F
:101A600083B182958170CC0FC82B0E94D2030E9453
:101A7000E70CD15079F78C2FDF91CF910895CF9358
:101A80000E94E90C2A9A85E38A95F1F700000E94EA
:101A9000D203C3B10E94F90CC295C17081E08C27BA
:101AA000CF910895CF930E94E90C2A9A85E38A95F5
:101AB000F1F7000068E080EC90E00E94FC0CC0E0D0
:101AC0000E94E70C0E94D2030E94E50C0E94D20300
:101AD0001C9908C0CA5F0E94E70C0E94F90C8C2F69
:101AE000CF9108950E94E70CCF5FC73049F7CFEF41
:101AF000F4CF0E94E70C0E94D2030E94E50C0E94E2
:0C1B0000D20383B10C94E70CF894FFCFE3
:041B0C00FF0D0100C8
:00000001FF
