:1000000063C0000098C000007CC000007AC00000FF
:1000100078C0000076C0000074C0000072C000000C
:1000200070C000006EC000006CC000006AC000001C
:1000300068C0000066C0000064C0000062C000002C
:1000400060C000005EC000005CC000005AC000003C
:1000500058C0000056C0000054C0000052C000004C
:1000600050C000004EC0000009021200010100A0B3
:100070001909040000000000000012011001FF0037
:100080000008C016DC050701010200010E0355003F
:10009000530042006100730070001C03770077007A
:1000A00077002E00660069007300630068006C0032
:1000B0002E006400650004030904100E0C0A0908F0
:1000C000070605040302010011241FBECFEFD8E08C
:1000D000DEBFCDBF11E0A0E0B1E0E6ECFDE102C083
:1000E00005900D92A630B107D9F721E0A6E0B1E066
:1000F00001C01D92A635B207E1F70E94790D0C945C
:10010000E10E7ECFA82FB92F80E090E041E050EAC9
:10011000609530E009C02D9182279795879510F062
:1001200084279527305EC8F36F5FA8F30895EADF50
:100130008D939D930895CF93CFB7CF93DF93C395BE
:100140004F9BE9F74F9B0BC04F9B09C04F9B07C0CC
:100150004F9B05C04F9B03C04F9B01C089C06F934D
:10016000C0913201DD27C65CDE4F2F9365E54F9BC2
:1001700003C02F916F91E6CF0F931F934F9320E011
:1001800040E15F9309B1047807FB27F93F9350E002
:100190003BE039C0147840642F77012F5F5F1EC0A9
:1001A000406819B114782F7752501FC0406409B1CC
:1001B0002F770478D1F15F5F00C023C0406219B18E
:1001C0002F77147891F15F5F00C025C00478102765
:1001D000515012F45D5F0000115027952C3F19B16A
:1001E000C8F614780127015027952C3FC8F64227FE
:1001F000499309B1047810274F73115027952C3F6C
:10020000A8F64695469519B1147879F00127015062
:1002100027952C3F98F66B5A60F3315009B1B0F630
:1002200000C011E01CBB002717C03B503195C31B19
:10023000D04011E01CBB0881033CF9F00B34E9F01D
:10024000209130011981110F1213EDCF093651F1B0
:100250000D3211F0013E39F7009338013F915F9163
:100260004F911F910F912F916F91CCB3C0FD67CF2C
:10027000DF91CF91CFBFCF911895209138012223E4
:1002800069F310913601112339F534303AF1309386
:10029000360120933101109132013BE0311B309344
:1002A00032011CC0009136010130B4F40AE53091EE
:1002B000330134FD14C000933301C5E2D1E013C013
:1002C000052710E000C000000BB91AC0052710E098
:1002D000221F1DC010E021C04AE502C032ED432FAD
:1002E000C4E1D0E032E01AB114685F9A0BB11AB9D8
:1002F00054E820E865E320FF05270BB927951795FB
:100300001C3FF0F66695B8F7B1F720FF05270BB94B
:10031000279517951C3FD0F62795179517FF0527AA
:1003200000001C3F0BB9B0F629913A9519F70B77ED
:1003300010913701110FC651D0400BB911F0109335
:10034000300111E01CBB00681AB11B77402F4B77BE
:1003500054E05A95F1F70BB91AB94BB97FCF259AEA
:1003600023982B9A50E218D05A95E9F70895AC01DA
:1003700088E606D0842F04D089E602D0852F00C0FD
:100380000FD028E030E0382780FB869506D02A95EC
:10039000D1F730FB02D000C0689423982B9A16F056
:1003A0002B98239AE0915401F09155013197F0F781
:1003B0002D9AE3B1E3FBE0915401F091550131979F
:1003C000F0F72D98089520ECE7DF46F42A95E1F741
:1003D00080E02AE1E5DF2A95E9F7DECF28E030E08A
:1003E000DBDF869587F938272A95D1F7D5DF27F9FE
:1003F000322772F3D1DFD0CFDB01742FB8DF84E274
:10040000BFDFE1DF8D937A95D1F70895DB01742F7B
:10041000AEDF83EFB5DF8DE1B3DF84E6B1DF8D9131
:10042000AFDF82E7ADDFCFDF8078D9F77A9589F744
:100430000895CF93DF9360913601635067FD90C0BC
:1004400080913201CCE0D0E0C81BD109C65CDE4F00
:10045000809131018D3209F0BFC0683009F07EC053
:1004600083EC809325018AE5809333011092060185
:100470008881807671F0CE013AD48F3F09F466C04E
:100480009F81911169C09E81981708F065C0892FDE
:1004900063C02A8110922E01998191110AC0109295
:1004A0002F012EE231E082E03093350120933401B8
:1004B000E7CF953029F4209337012EE231E0F4CFD5
:1004C000963099F59B81913059F48AE790E09093AA
:1004D00035018093340182E190E490930601D0CFFE
:1004E000923019F488E690E0F2CF9330A9F7211109
:1004F00008C086EB90E0909335018093340184E04E
:10050000EBCF213041F48AE990E09093350180935C
:1005100034018CE1E1CF2230F9F68CE890E0909341
:100520003501809334018EE0D7CF983059F099305F
:1005300019F420933901C1CF81E09A3009F4BDCF7D
:1005400080E0BBCF29E331E081E0AECF988197FD19
:100550008E8190E8909306018093070110923601F6
:100560008091330184FF2BC0C0910701CF3F39F147
:100570006C2FC93008F068E08C2F861B8093070130
:100580008091250198E8892780932501CC2359F093
:100590002091060127FF32C086E291E067D5C82F7F
:1005A000893008F052C06C2F86E291E0C0DDCC5F4C
:1005B000CC3019F08FEF80930701C093330184E1B1
:1005C00099B1947831F48150D9F710923701109293
:1005D0003001DF91CF9108958091060187FFBECF52
:1005E000CE01ADD78F3F21F48EE180933301B6CF9A
:1005F000882309F4B3CF10920701B0CF8091340162
:100600009091350126FF17C0FC01A6E2B1E0262F2C
:10061000280F34913D9331962E13FBCF2FEF260FE9
:1006200030E02F5F3F4F820F931F909335018093EF
:100630003401C62FB8CFA6E2B1E0FC01262F280F67
:1006400031913D932E13FCCFE9CF8FEF80930701BB
:10065000CEE1B3CF8AE5809333018FEF809307011A
:10066000E9E6F0E0808182608083E89A08958EBD9B
:100670000DB407FEFDCF8EB50895809151018CBD5C
:10068000809150018DBD089581111BC080910101A1
:10069000811117C080E180931B0127E333E0309381
:1006A0000901209308011092500191E090935201AA
:1006B0008A3041F1C8F4883049F1893029F181E567
:1006C00018C080931B01883040F721EE33E030934F
:1006D000090120930801843041F1D0F4823049F1BE
:1006E000833029F18AEF1AC08E3031F0803139F72A
:1006F00080E580935101089581E5809351019093A5
:100700005001089582E5F9CF82E5F3CF83E5F1CF7B
:10071000863039F040F0873029F784E08093520129
:10072000089588E0FBCF80E1F9CF8FE1F7CF8FE329
:10073000F5CF8DE7F3CF0F931F93CF93DF93C82FA0
:10074000A3DF11E0DFE3C83010F41FE0DAEFC3E00D
:100750002A9A812F07D22A988D2F04D2E09108017E
:10076000F09109018CEA0995E0910801F0910901E5
:1007700083E50995E0910801F091090180E0099570
:10078000082FE0910801F091090180E009950335F7
:1007900011F4882349F08FE19EE40197F1F700C03E
:1007A0000000C150A9F681E0DF91CF911F910F9118
:1007B000089526B59091520186B5821B8917E0F302
:1007C00008951F93CF93DF93182F2D98D8E0C0E0A2
:1007D00017FF13C02B9A110FECDF2D9AEADF83B1BC
:1007E00082958170CC0FC82B2D98E3DFD15081F713
:1007F0008C2FDF91CF911F9108952B98ECCF84B16E
:100800008C6284B924982A982D9881E0ABD12A9AD9
:1008100081E0A8D12A98809108019091090187531D
:10082000934009F42ADF8FEF80930001089584B18B
:100830008C6284B98091080190910901875393409B
:1008400009F41BDF8FEF809300012A9A089584B189
:10085000837D84B985B1837D85B910921B0108958C
:100860000F931F93CF93DF9380910D01CAEBD0E0DC
:100870000C2F035F882371F080911B015CDF8111D5
:100880001BC090911B0190930101DF91CF911F91AB
:100890000F910895FE01149180910101811749F093
:1008A000812F49DF811105C010931B0110930101B5
:1008B000ECCF21960C13EECF81E0E7CF61157105E7
:1008C00021E08207910540F1DC01CB0121E1B695E1
:1008D000A795979587952A95D1F72091000128171C
:1008E000D9F080930001E0910801F09109018DE4B5
:1008F0000995E0910801F091090180E00995E091E6
:100900000801F0910901809100010995E091080129
:10091000F091090180E009940895CF92DF92EF925F
:10092000FF926B017C01862F880F880F880F8870DB
:10093000E0910801F091090180620995D701C60193
:1009400029E0B695A795979587952A95D1F7E091D7
:100950000801F09109010995D701C601B695A7953F
:1009600097958795E0910801F09109010995E0912B
:100970000801F091090180E0FF90EF90DF90CF90A7
:100980000994CF92DF92EF92FF926B017C0196DF88
:10099000C701B601FF90EF90DF90CF90BECFCF920E
:1009A000DF92EF92FF92CF93DF936B017C01D42F04
:1009B000C22F84DF8C2D880F880F880F8870E091FC
:1009C0000801F091090180640995D701C60129E069
:1009D000B695A795979587952A95D1F7E091080147
:1009E000F09109010995D701C601B695A79597958C
:1009F0008795E0910801F09109010995E0910801BE
:100A0000F09109018D2F0995C11108C080E0DF9197
:100A1000CF91FF90EF90DF90CF900895DF3F61F08E
:100A2000CEE181E09FD0C701B601ABDF8D1771F336
:100A3000C15041F481E0EBCFC701B601A2DF8F3F87
:100A400079F7E4CFC53168F784E0CB3058F382E022
:100A5000E9CFCF92DF92EF92FF92CF936B017C01AF
:100A60002DDFE0910801F09109018CE40995D7018F
:100A7000C60129E0B695A795979587952A95D1F750
:100A8000E0910801F09109010995D701C601B695D9
:100A9000A79597958795E0910801F091090109952F
:100AA000E0910801F091090180E00995C9E181E038
:100AB00059D0C701B60165DF8F3F81F4C15039F4C9
:100AC00081E0CF91FF90EF90DF90CF900895C031FB
:100AD00070F784E0C63060F382E0EACF80E0F1CFC7
:100AE000CF93DF93EC01E0910801F091090180EAD6
:100AF0000995E0910801F09109018D2F0995E09188
:100B00000801F09109018C2F0995E0910801F091FD
:100B1000090180E0DF91CF9109941F93CF93DF9378
:100B2000D82F192FC62FE0910801F091090180EC10
:100B30000995E0910801F0910901812F0995E09153
:100B40000801F09109018D2F0995E0910801F091BC
:100B500009018C2F09958BE005D080E0DF91CF91C2
:100B60001F91089526B596B5921B9035E0F38150FC
:100B7000C9F70895262FFC0142815381052E000CF0
:100B8000660B770B40931601509317016093180181
:100B90007093190186819781092E000CAA0BBB0B5B
:100BA0008093120190931301A0931401B093150147
:100BB00020931C0108952A98FB01928190930501CE
:100BC00046815781052E000C660B770B409312016E
:100BD00050931301609314017093150180931C01CD
:100BE00008950F931F93522F20911A0121110FC0C6
:100BF000FC0102811381012E000C220B330B0093A8
:100C00001601109317012093180130931901242F16
:100C100030E03093100120930F0150FD40931101FB
:100C2000FC0186819781092E000CAA0BBB0B8093D7
:100C3000120190931301A0931401B09315016093D6
:100C40001C011F910F910895FC0186819781092E47
:100C5000000CAA0BBB0B8093120190931301A0937D
:100C60001401B093150160931C0108950F931F9315
:100C7000FC01838191E0811101C090E090930C010F
:100C800080930B01928190930401882381F082303C
:100C900021F504811581012E000C220B330B0093EA
:100CA00016011093170120931801309319018681C2
:100CB0009781092E000CAA0BBB0B80931201909315
:100CC0001301A0931401B093150160931C018FEFE1
:100CD000FA0180831F910F91089500E010E09801C0
:100CE0008130E9F6048110E030E020E0D8CFCF92E7
:100CF000DF92FF920F931F93CF93DF930F92CDB7A5
:100D0000DEB78C011982DC0111968C91119781302C
:100D1000A1F480911B01B8DC10921A0140986FDD9C
:100D20009FDD80930E01882319F091DD109201015F
:100D300080910E0180931D0147C08233A9F48091F8
:100D40001B01A2DC409873DD8DE191E090933501A9
:100D50008093340189810F90DF91CF911F910F9182
:100D6000FF90DF90CF900895B801833319F084335A
:100D700021F482E320DF8FEF2FC1863419F44098ED
:100D8000F1D6E2CF893411F4F2D6DECF8A3411F4F1
:100D900003D7DACF8C3461F48091020190E08E7F2A
:100DA000E6D6F80182810DD7F7D610921D010CC04E
:100DB0008B3461F480910201816090E0D8D680E0AC
:100DC00031D780931D01E8D681E006C1873449F40C
:100DD00010920301AE014F5F5F4F66E3C80146DF2B
:100DE000B3CF883459F414968C91809303011092F8
:100DF0000A01AE014F5F5F4F65E3F0CF8D3449F4D8
:100E0000F801828187FD03C080930201CECF81E08B
:100E100091CF6AE38D3519F08C3521F469E3C8016F
:100E200013DFA9CF8E3541F47AD791E0811101C04B
:100E300090E090931D01C8CF8F3511F481D77ACF00
:100E40008A35C1F5409826D7D80112968C91129711
:100E500013963C91139714962C91149715969C9188
:100E600015978093160130931701209318019093E2
:100E7000190116966C916F711DD7F801F680F294E6
:100E8000F69447E0F422F6825DE1C52E51E0D52EBE
:100E900010E0F11611F0143039F40AD78F2D853097
:100EA00008F49AC084E098C024D7D6018D936D01D0
:100EB0001F5FEFCF823019F4CADC419A45CF8330EF
:100EC00041F5E0910801F091090112968C91099584
:100ED00080931D01E0910801F0910901D80113965A
:100EE0008C91099580931E01E0910801F091090110
:100EF000D80114968C91099580931F01E091080107
:100F0000F0910901D80115968C91099580932001E3
:100F1000C9CF62E0843009F499C063E0873009F4F6
:100F200095C0853011F49CDC05CF863041F4F80182
:100F300025812F70448161E0C80153DE1CCF8830C9
:100F400021F420E040E064E0F7CF8930E9F4139623
:100F50002C91139712966C91129770E090E080E0BC
:100F6000CB0177276627922B14962C911497622B2E
:100F700015962C91722B61157105B2E08B079105C6
:100F800008F413CF9BDC11CF8A3069F4F801828119
:100F900080931B01811103C010920D0106CF81E0E7
:100FA00080930D0102CF8131C9F410921D0180910F
:100FB0001B0180931E018091010180931F0180918C
:100FC0005201809320018091000180932101809142
:100FD0001C018093220186E08983B6CE8B3089F490
:100FE00012968D919C9190935501809354012A9A69
:100FF000229A83E0B7DD2A98409880E1B3DDAFD92B
:10100000A3CE8C3099F480ECBBD980E0B9D98AE0CA
:10101000A9DD2A9A85E0A6DD2A9885E0A3DD84B1C2
:10102000837D84B985B1837D85B98ECE8D3011F4F1
:10103000CAD980CE8E3021F4F8018281A1D9B5CEF3
:1010400065E08F3019F0803121F466E0C80192DD4F
:1010500092CE8F3709F078CE83E180931D0181E82D
:1010600080931E0110921F018FEC50CF8F929F92A0
:10107000AF92BF92CF92DF92EF92FF920F931F93A6
:10108000CF93DF93EC0180911C019EEF980F92307B
:1010900048F0853039F0833329F0893319F08633ED
:1010A00009F011C2862F90E0B0E0A0E0C0901201DC
:1010B000D0901301E0901401F09015018C159D055E
:1010C000AE05BF0510F46C017D011C2D4198809187
:1010D0001C018530C1F54C2DBE0180911601909107
:1010E00017018AD98091160190911701A0911801DA
:1010F000B09119018C0D9D1DAE1DBF1D8093160171
:1011000090931701A0931801B093190180911201D7
:1011100090911301A0911401B09115018C199D09B2
:10112000AE09BF098093120190931301A09314019B
:10113000B0931501892B8A2B8B2B11F410921C0173
:10114000419A409899C08333B9F50C2FA02EBD2E3B
:101150008A2D801B811710F180911201909113014B
:10116000A0911401B09115018C199D09AE09BF0918
:101170008093120190931301A0931401B093150171
:10118000892B8A2B8B2BE1F6809105018823B1F204
:101190002A9A25E02A95F1F70000D0CFE0910801C6
:1011A000F091090180E00995F50181935F01F5E077
:1011B000FA95F1F70000CCCF863309F092C0809108
:1011C0000A01811132C000910401B0900B0180919D
:1011D0000C01882389F08091160190911701A0914C
:1011E0001801B09119012FE0B695A79597958795AD
:1011F0002A95D1F78E70082BBAD4802FE2D48111B2
:1012000067C0BB2049F080911701DBD481E08B15CA
:1012100018F480911601D5D4AAD4802F8160D1D43E
:10122000811156C081E080930A01912C812CE12F1D
:10123000E150FF0B5F01811668F1809112019091DE
:101240001301A0911401B09115018C199D09AE09EB
:10125000BF098093120190931301A0931401B093DE
:101260001501892B8A2B8B2B39F496D410921C01F3
:1012700010920C0110920A01812FDF91CF911F91E2
:101280000F91FF90EF90DF90CF90BF90AF909F9025
:101290008F90089581E0A814B90409F080E0C2D4C9
:1012A00089938091160190911701A0911801B09136
:1012B00019010196A11DB11D80931601909317018C
:1012C000A0931801B0931901FFEF8F1A9F0AB3CFB3
:1012D00063D410921C0110920C0110920A0110E0CC
:1012E000CBCF893359F50C2FA02EBD2E8A2D801B14
:1012F0008117D8F08091120190911301A0911401EF
:10130000B09115018C199D09AE09BF098093120196
:1013100090931301A0931401B0931501892B8A2B8C
:101320008B2B09F00DCFC4D409CFE3D4F501819301
:101330005F01F5E0FA95F1F70000D8CF823009F0AF
:1013400090C08091160190911701A0911801B09161
:1013500019010197A109B1098C0D9D1DAE1DBF1D7D
:101360000097A240B10508F07AC00C2FAC2EBD2E1C
:101370008A2D801B811708F0C9CE609116017091EB
:1013800017018091180190911901C7DAF501819335
:101390005F018091160190911701A0911801B09101
:1013A00019010196A11DB11D80931601909317019B
:1013B000A0931801B0931901DBCF609116017091D1
:1013C0001701809118019091190178DA4091160166
:1013D000509117016091180170911901912E901A86
:1013E000DB01CA0188279927AE7F1296841B950BD3
:1013F000A60BB70B492D50E070E060E04817590785
:101400006A077B0708F0982E5E01A00EB11C812CA4
:10141000891004C0080D011780F278CE6091160182
:1014200070911701809118019091190176DAF501F8
:1014300081935F018091160190911701A09118018D
:10144000B09119010196A11DB11D809316019093D1
:101450001701A0931801B09319018394D9CF00E02C
:10146000DACF833081F50C2FAC2EBD2E8A2D801B58
:10147000811708F04BCE8091160190911701A09131
:101480001801B09119018115E0E19E07A105B10590
:10149000C0F426DBF50181935F01809116019091E4
:1014A0001701A0911801B09119010196A11DB11D5C
:1014B0008093160190931701A0931801B09319011E
:1014C000D5CF8FEFE7CF419A1FEFD6CE61157105CB
:1014D00022E08207910598F46115710521E08207E9
:1014E000910578F4611520E872078105910558F49B
:1014F000611570448105910540F080E1089580E810
:10150000089580E4089580E2089588E008950F9397
:101510001F93CF93DF93EC018C01060F111DC017B1
:10152000D10731F480E0DF91CF911F910F910895A1
:1015300068E08991BFD3882391F381E0F4CF4F9283
:101540005F926F927F928F929F92AF92BF92CF9253
:10155000DF92EF92FF920F931F93CF93DF9300D010
:1015600000D000D0CDB7DEB78D839E8380911C0163
:10157000882309F4A4C2813059F0982F9D7F9430BC
:1015800039F0982F977F923319F0853309F097C27D
:10159000862F90E0B0E0A0E0C0901201D09013013F
:1015A000E0901401F09015018C159D05AE05BF0566
:1015B00010F46C017D019C2C419800911C010630B7
:1015C000C9F54C2D6D817E81809116019091170196
:1015D0000E9406028091160190911701A0911801B6
:1015E000B09119018C0D9D1DAE1DBF1D809316017C
:1015F00090931701A0931801B093190180911201E3
:1016000090911301A0911401B09115018C199D09BD
:10161000AE09BF098093120190931301A0931401A6
:10162000B0931501892B8A2B8B2B11F410921C017E
:1016300010E06AC1023371F5BD800B2D1E81802F31
:101640008B198915F0F08091120190911301A091EE
:101650001401B09115018C199D09AE09BF09809341
:10166000120190931301A0931401B0931501892BDB
:101670008A2B8B2BE9F6809105018823B9F22A9AEF
:10168000D5CFE0910801F0910901D8018D918D012C
:101690000995D5CF053309F011C180910C01BD80AA
:1016A0000B2D1E81882309F4D5C080910A01811178
:1016B00032C05DD280910401409116015091170112
:1016C000609118017091190141155105B1E06B0746
:1016D000710548F09FE076956795579547959A95DF
:1016E000D1F74E70842B6DD28111DFC0809116012D
:1016F00090911701A0911801B09119010097E1E0B4
:10170000AE07B10510F0892F5CD28091160159D235
:1017100081E080930A01409016015090170160907B
:10172000180170901901C301B201D0DE182F90E0AA
:10173000B0E0A0E089839A83AB83BC8380901201E0
:1017400090901301A0901401B0901501C814D90411
:10175000EA04FB0410F446015701C301B2012981D8
:101760003A814B815C810BD3161B812F90E0B0E056
:10177000A0E0750164018C159D05AE05BF0510F450
:101780006C017D017C2C6D80062D1E81802F8619B9
:10179000871508F43FC08091120190911301A09128
:1017A0001401B09115018C199D09AE09BF098093F0
:1017B000120190931301A0931401B0931501892B8A
:1017C0008A2B8B2B91F060911601709117018091FB
:1017D00018019091190129813A814B815C81CFD206
:1017E000672B682B692B09F023CFD6D1EFE1FEE4FC
:1017F0003197F1F700C00000809112019091130120
:10180000A0911401B0911501892B8A2B8B2B09F41F
:1018100042C00ECFD8018D918D01D3D1811145C029
:101820008091160190911701A0911801B0911901B2
:101830000196A11DB11D8093160190931701A093ED
:101840001801B0931901A2CFD8018D918D01B9D1A2
:10185000811132C0802F8B198915B0F3809112014C
:1018600090911301A0911401B09115018C199D095B
:10187000AE09BF098093120190931301A093140144
:10188000B0931501892B8A2B8B2B09F0D1CE809137
:101890000301811108C010921C0110920C011092DA
:1018A0000A0111E031C078D1A7CF76D110921C0186
:1018B00010920C0110920A011EEF26C00A3309F0A3
:1018C0003DC06C2D8D819E8122DE182F8111F9C0C3
:1018D0008091120190911301A0911401B091150112
:1018E0008C199D09AE09BF098093120190931301D1
:1018F000A0931401B0931501892B8A2B8B2B09F02F
:1019000097CED6D110921C01419A409A812F2696EB
:101910000FB6F894DEBF0FBECDBFDF91CF911F9100
:101920000F91FF90EF90DF90CF90BF90AF909F907E
:101930008F907F906F905F904F900895013029F0C5
:101940001CEF043019F01FEFDFCF1BEF8D80A82CA8
:10195000BE808A2D88198915F8F080911201909126
:101960001301A0911401B09115018C199D09AE09C4
:10197000BF098093120190931301A0931401B093B7
:101980001501892B8A2B8B2B09F052CE013009F4DB
:1019900066C010921C0185CFF50141915F018091D5
:1019A000160190911701A0911801B0911901013011
:1019B000C9F521E0E0910F01F0911001EF2B09F042
:1019C00020E0BC01CD010E94CF0481119DCF809108
:1019D0000F0190911001009749F14091160150912B
:1019E0001701609118017091190120911101215086
:1019F0002093110121111AC0919581959109B0E0B0
:101A0000A0E02C013D014422552266227722C30129
:101A1000B2010E945E04C301B2011BD88823D1F039
:101A20001AEF72CF642F79D881116ECF8091160191
:101A300090911701A0911801B09119010196A11D73
:101A4000B11D8093160190931701A0931801B093D4
:101A500019017FCF80910F0180931101E7CF209171
:101A60000F01309110012115310509F492CF8091B9
:101A700011018217130609F48CCFC0901601D09083
:101A80001701E0901801F0901901F1E0CF1AD10888
:101A9000E108F108319521953109C901B0E0A0E0D4
:101AA000C222D922EA22FB22C701B6010E945E04AB
:101AB000C701B6010E9429058111B2CF6ACF1FEF7D
:101AC00025CF1DEF23CFA0E8B0E01C92E1E8F0E0C5
:101AD000108280818860808380818260808388EE2C
:101AE00093E090938900809388008C9180648C931C
:101AF00008951BB88BB18B778BB98AB184688AB98A
:101B00002FEF30E782E0215030408040E1F700C005
:101B100000008AB18B778AB914B8219A93E097B9FB
:101B20003A9888B18C6388B940982FEF31EE84E001
:101B3000215030408040E1F700C00000409A4198B9
:101B40002FEF31EE84E0215030408040E1F700C0BB
:101B50000000419A95BDB7DF0E942A0378940E9445
:101B60001902FDCF24982C9A23982B9A0895249833
:101B70002C9A23982B9A8AE18A95F1F700C0249A2F
:101B80002C988AE18A95F1F700C0239A2B988AE174
:101B90008A95F1F700C00895239A2B98249A2C98DF
:101BA0008AE08A95F1F700C023982B9A8AE08A95FB
:101BB000F1F700C024982C9A8AE18A95F1F700C0C9
:101BC000089598E0239A2B982AE02A95F1F700C00F
:101BD00087FF25C024982C9A2AE02A95F1F700C0A7
:101BE00023982B9A2AE12A95F1F700C0880F91508B
:101BF00049F7239A2B9824982C9A8AE08A95F1F732
:101C000000C023982B9A2AE12A95F1F700C083B1EE
:101C1000239A2B9882958F70809581700895249ACD
:101C20002C98DACF282F24982C9A98E080E0239AD9
:101C30002B983AE13A95F1F700C023982B9A3AE1B4
:101C40003A95F1F700C0880F1C998160915079F79F
:101C5000239A2B98211111C0249A2C989AE09A95D6
:101C6000F1F700C023982B9A3AE03A95F1F700C0BB
:101C7000239A2B9824982C9A089524982C9AEECF86
:101C80002D98089584B18C6284B92498F9DF2B983B
:101C90002A9808952A982D980E94D9032A9A2B9A57
:101CA0000E94D9032D9A0E94D9032D980C94D90330
:101CB0002A98E6CFCF93DF93D82F6150770BC1E0FE
:101CC00001C0CC0F6A95EAF7C11104C080E0DF9132
:101CD000CF910895D5DF8C2F8D2349F02B9A0E9448
:101CE000D9032D9A0E94D903CBDFC695EDCF2B984F
:101CF000F6CFCF93DF93D8E0C0E0C2DF0E94D903D4
:101D00002D9A83B182958170CC0FC82B0E94D90384
:101D1000B7DFD15091F78C2FDF91CF910895CF93FA
:101D2000B1DF2A9A85E38A95F1F700000E94D90372
:101D3000C3B1BEDFC295C17081E08C27CF910895F9
:101D4000CF93A0DF2A9A85E38A95F1F7000068E037
:101D500080ECB0DFC0E094DF0E94D9032D9A0E948E
:101D6000D9031C9906C0CA5F8BDFA2DF8C2FCF91ED
:101D7000089586DFCF5FC73071F7CFEFF6CFA1E2CE
:101D80001A2EAA1BBB1BFD010DC0AA1FBB1FEE1FF5
:101D9000FF1FA217B307E407F50720F0A21BB30B40
:101DA000E40BF50B661F771F881F991F1A9469F7BC
:101DB00060957095809590959B01AC01BD01CF0118
:061DC0000895F894FFCF26
:061DC600FF0EFF01A00169
:00000001FF
