:100000000C9464000C949C000C9481000C9481006E
:100010000C9481000C9481000C9481000C9481005C
:100020000C9481000C9481000C9481000C9481004C
:100030000C9481000C9481000C9481000C9481003C
:100040000C9481000C9481000C9481000C9481002C
:100050000C9481000C9481000C9481000C9481001C
:100060000C9481000C94810009021200010100A08F
:100070001909040000000000000012011001FF0037
:100080000008C016DC050701010200010E0355003F
:10009000530042006100730070001C03770077007A
:1000A00077002E00660069007300630068006C0032
:1000B0002E0064006500040309040D0C0B0A0908F6
:1000C000070605040302010011241FBECFEFD8E08C
:1000D000DEBFCDBF11E0A0E0B1E0E8E8FBE102C087
:1000E00005900D92A430B107D9F721E0A4E0B1E06A
:1000F00001C01D92A335B207E1F70E946E0C0C946B
:10010000C20D0C940000A82FB92F80E090E041E0D0
:1001100050EA609530E009C02D9182279795879528
:1001200010F084279527305EC8F36F5FA8F3089519
:10013000EADF8D939D930895CF93CFB7CF93DF934D
:10014000C3954F9BE9F74F9B0BC04F9B09C04F9B3B
:1001500007C04F9B05C04F9B03C04F9B01C089C088
:100160006F93C0913101DD27C75CDE4F2F9365E5AA
:100170004F9B03C02F916F91E6CF0F931F934F9327
:1001800020E040E15F9309B1047807FB27F93F9332
:1001900050E03BE039C0147840642F77012F5F5F57
:1001A0001EC0406819B114782F7752501FC04064A8
:1001B00009B12F770478D1F15F5F00C023C040629E
:1001C00019B12F77147891F15F5F00C025C00478D2
:1001D0001027515012F45D5F0000115027952C3FFD
:1001E00019B1C8F614780127015027952C3FC8F69D
:1001F0004227499309B1047810274F73115027956E
:100200002C3FA8F64695469519B1147879F0012748
:10021000015027952C3F98F66B5A60F3315009B185
:10022000B0F600C011E01CBB002717C03B50319551
:10023000C31BD04011E01CBB0881033CF9F00B3418
:10024000E9F020912F011981110F1213EDCF09361A
:1002500051F10D3211F0013E39F7009337013F9112
:100260005F914F911F910F912F916F91CCB3C0FD72
:1002700067CFDF91CF91CFBFCF91189520913701F4
:10028000222369F310913501112339F534303AF105
:100290003093350120933001109131013BE0311B47
:1002A000309331011CC0009135010130B4F40AE5EE
:1002B0003091320134FD14C000933201C4E2D1E028
:1002C00013C0052710E000C000000BB91AC00527B5
:1002D00010E0221F1DC010E021C04AE502C032ED2F
:1002E000432FC4E1D0E032E01AB114685F9A0BB139
:1002F0001AB954E820E865E320FF05270BB92795D4
:1003000017951C3FF0F66695B8F7B1F720FF052763
:100310000BB9279517951C3FD0F62795179517FF12
:10032000052700001C3F0BB9B0F629913A9519F743
:100330000B7710913601110FC651D0400BB911F057
:1003400010932F0111E01CBB00681AB11B77402FDE
:100350004B7754E05A95F1F70BB91AB94BB97FCFE7
:10036000259A23982B9A50E219D05A95E9F70895C7
:10037000AC0188E606D0842F04D089E602D0852F10
:1003800000C010D028E030E0382780FB869507D0E9
:100390002A95D1F730FB03D001D0089568942398B3
:1003A0002B9A16F02B98239AE0915001F09151016D
:1003B0003197F0F72D9AE3B1E3FBE0915001F09112
:1003C00051013197F0F72D98089520ECE7DF46F4BE
:1003D0002A95E1F780E02AE1E5DF2A95E9F7DECF0B
:1003E00028E030E0DBDF869587F938272A95D1F7BA
:1003F000D5DF27F9322772F3D1DFD0CFDB01742F9D
:10040000B7DF84E2BEDFE1DF8D937A95D1F70895FF
:10041000DB01742FADDF83EFB4DF8DE1B2DF84E663
:10042000B0DF8D91AEDF82E7ACDFCFDF8078D9F728
:100430007A9589F70895CF93DF93609135016350E2
:1004400067FD91C080913101CCE0D0E0C81BD1099B
:10045000C75CDE4F809130018D3209F0C2C0683038
:1004600009F07FC083EC809324018AE580933201F8
:10047000109204018881807679F0CE010E941006E6
:100480008F3F09F466C09F81911169C09E819817C2
:1004900008F065C0892F63C02A8110922D019981CF
:1004A00091110AC010922E012DE231E082E03093CA
:1004B000340120933301E7CF953029F4209336019E
:1004C0002DE231E0F4CF963099F59B81913059F4CB
:1004D0008AE790E0909334018093330182E190E4C5
:1004E00090930401D0CF923019F488E690E0F2CFD7
:1004F0009330A9F7211108C086EB90E09093340166
:100500008093330184E0EBCF213041F48AE990E01D
:1005100090933401809333018CE1E1CF2230F9F6DE
:100520008CE890E090933401809333018EE0D7CF34
:10053000983059F0993019F420933801C1CF81E0F7
:100540009A3009F4BDCF80E0BBCF28E331E081E0F1
:10055000AECF988197FD8E8190E8909304018093AF
:100560000501109235018091320184FF2DC0C091A8
:100570000501CF3F49F16C2FC93008F068E08C2F9E
:10058000861B809305018091240198E88927809338
:100590002401CC2361F02091040127FF35C085E2BE
:1005A00091E00E948E08C82F893008F054C06C2F4B
:1005B00085E291E00E949800CC5FCC3019F08FEF7B
:1005C00080930501C093320184E199B1947831F4AC
:1005D0008150D9F71092360110922F01DF91CF91FF
:1005E00008958091040187FFBCCFCE010E944E0A7E
:1005F0008F3F21F48EE180933201B3CF882309F439
:10060000B0CF10920501ADCF8091330190913401AC
:1006100026FF17C0FC01A5E2B1E0262F280F349178
:100620003D9331962E13FBCF2FEF260F30E02F5F37
:100630003F4F820F931F9093340180933301C62F55
:10064000B6CFA5E2B1E0FC01262F280F31913D93F2
:100650002E13FCCFE9CF8FEF80930501CEE1B2CF0F
:100660008AE5809332018FEF80930501E9E6F0E09F
:10067000808182608083E89A08958EBD0DB407FE64
:10068000FDCF8EB50895809107018CBD8091060144
:100690008DBD089581111BC080910101811117C08A
:1006A0008DE080931A012DE333E030930A0120930B
:1006B00009011092060191E0909308018A3041F1FE
:1006C000C8F4883049F1893029F181E518C0809358
:1006D0001A01883040F72AEE33E030930A01209364
:1006E0000901843041F1D0F4823049F1833029F19D
:1006F0008AEF1AC08C3031F08D3039F780E5809365
:100700000701089581E580930701909306010895FC
:1007100082E5F9CF82E5F3CF83E5F1CF863039F07A
:1007200040F0873029F784E080930801089588E03D
:10073000FBCF80E1F9CF8FE1F7CF8FE3F5CF8DE7E6
:10074000F3CF0F931F93CF93DF93C82F0E944A03D9
:1007500011E0DFE3C83010F41FE0DAEFC3E02A9ABB
:10076000812F0E94EA052A988D2F0E94EA05E091C8
:100770000901F0910A018CEA0995E0910901F091D3
:100780000A0183E50995E0910901F0910A0180E0F1
:100790000995082FE0910901F0910A0180E009957F
:1007A000033511F4882349F08FE19EE40197F1F7B6
:1007B00000C00000C15099F681E0DF91CF911F91F8
:1007C0000F91089526B59091080186B5821B89176F
:1007D000E0F308951F93CF93DF93182F2D98D8E05F
:1007E000C0E017FF16C02B9A110F0E94E2032D9A4A
:1007F0000E94E20383B182958170CC0FC82B2D98A3
:100800000E94E203D15069F78C2FDF91CF911F91A5
:1008100008952B98E9CF84B18C6284B924982A98E2
:100820002D9881E00E94EA052A9A81E00E94EA055B
:100830002A988091090190910A018D53934011F4F7
:100840000E9443038FEF80930001089584B18C626E
:1008500084B98091090190910A018D53934011F45C
:100860000E9443038FEF809300012A9A089584B178
:10087000837D84B985B1837D85B90895FF920F93F7
:100880001F93CF93DF93EAEBF0E0C49180910C01CA
:10089000882379F0C0911A018C2F0E94A103811145
:1008A00017C0C0930101DF91CF911F910F91FF906D
:1008B000089580910101882359F00E94A1038111BC
:1008C00005C09091010190931A01EDCF10920101A2
:1008D0000AEB10E08DE0F82EF00EF801D491CD1760
:1008E00050F08D2F0E94A103811105C0D0931A01F1
:1008F000D0930101D8CF0F5F1F4FF012EECF81E0F0
:10090000D2CF0F931F936115710522E082079105E5
:1009100080F18B019C0141E136952795179507954C
:100920004A95D1F7202F30910001321721F1209301
:1009300000016115710582409105E8F0E09109011F
:10094000F0910A018DE40995E0910901F0910A0105
:1009500080E00995E0910901F0910A018091000180
:100960000995E0910901F0910A0180E01F910F9132
:10097000099420E0D8CF1F910F910895CF92DF9274
:10098000EF92FF926B017C01862F880F880F880FF2
:100990008870E0910901F0910A0180620995D70100
:1009A000C60129E0B695A795979587952A95D1F721
:1009B000E0910901F0910A010995D701C601B695A8
:1009C000A79597958795E0910901F0910A010995FE
:1009D000E0910901F0910A0180E0FF90EF90DF9033
:1009E000CF900994CF92DF92EF92FF926B017C013E
:1009F0000E948104C701B601FF90EF90DF90CF9075
:100A00000C94BE04CF92DF92EF92FF92CF93DF93CC
:100A10006B017C01D42FC22F0E9481048C2D880F82
:100A2000880F880F8870E0910901F0910A018064B5
:100A30000995D701C60129E0B695A79597958795A1
:100A40002A95D1F7E0910901F0910A010995D701A2
:100A5000C601B695A79597958795E0910901F09104
:100A60000A010995E0910901F0910A018D2F09957C
:100A7000C11108C080E0DF91CF91FF90EF90DF902F
:100A8000CF900895C701B6010E94BE04C0E18D1742
:100A900089F381E00E94EA05C701B6010E94BE0405
:100AA0008D1741F3C15011F481E0E5CFCB3088F7C9
:100AB00084E0C83078F382E0EDCFCF92DF92EF92FE
:100AC000FF92CF936B017C010E948104E0910901A8
:100AD000F0910A018CE40995D701C60129E0B69589
:100AE000A795979587952A95D1F7E0910901F091FF
:100AF0000A010995D701C601B695A79597958795DF
:100B0000E0910901F0910A010995E0910901F09144
:100B10000A0180E00995C9E181E00E94EA05C70168
:100B2000B6010E94F2048F3F81F4C15039F481E094
:100B3000CF91FF90EF90DF90CF900895C03160F794
:100B400084E0C63050F382E0E8CF80E0F1CFCF936D
:100B5000DF93EC01E0910901F0910A0180EA099527
:100B6000E0910901F0910A018D2F0995E0910901A9
:100B7000F0910A018C2F0995E0910901F0910A0189
:100B800080E0DF91CF9109941F93CF93DF93D82F0B
:100B9000192FC62FE0910901F0910A0180EC099507
:100BA000E0910901F0910A01812F0995E091090175
:100BB000F0910A018D2F0995E0910901F0910A0148
:100BC0008C2F09958BE00E94EA0580E0DF91CF91A0
:100BD0001F91089526B596B5921B9035E0F381508C
:100BE000C9F70895262F30910B0131110FC0FC0178
:100BF00042815381052E000C660B770B4093160142
:100C0000509317016093180170931901FC018681BC
:100C10009781909315018093140120931B010895EF
:100C2000EF92FF920F931F93CF93DF938C0110925B
:100C30001C0110921D0110921E0110921F011092B2
:100C40002001109221011092220110922301DC0157
:100C50001196CC911197C13029F580911A010E940B
:100C60004A0310920B0140980E940B040E943E041C
:100C700080930D01882321F00E9437041092010116
:100C800080910D0180931C018CE191E090933401DF
:100C9000809333018C2FDF91CF911F910F91FF90A3
:100CA000EF900895C23349F480911A010E944A03DB
:100CB00040980E942604C0E0E7CFC33379F42A9815
:100CC000FC018281809302018681978190931501B6
:100CD00080931401C0931B01CFEFD6CFC43389F4A6
:100CE0002A9812968C9112978093020116968D91F4
:100CF0009C91909315018093140182E380931B01D2
:100D0000EBCFC63421F440980E94A80CD4CFC9344C
:100D100019F40E94AD0CCFCFCA3419F40E94C20C52
:100D2000CACFCC3439F4FC0182810E94D70C809365
:100D30001C018BC0CB3429F412968C910E94080DB3
:100D4000F6CFC734F1F40E94AD0C60E0F801828167
:100D50000E94360DD80115968C91159780FF04C01E
:100D600014968C910E94D70CF80183810E94D70CB5
:100D70000E94AD0C61E0D80112968C910E94360D54
:100D80009ACFC83421F50E94AD0C60E0F801828151
:100D90000E94360DD80115968C911597C82F80FFAB
:100DA00004C014968C910E94D70CF80183810E9494
:100DB000D70CC695C170C0935201D80116968D917B
:100DC0009C91909315018093140185E397CFCD34C6
:100DD00031F4FC01828187FF38C081E0A8CFCD3596
:100DE000B1F412968D919C91139790931101809379
:100DF000100114968C9114978093120116968D9180
:100E00009C9190931501809314018AE377CFCC35A0
:100E100091F4FC01828193819093110180931001E0
:100E2000848180931201868197819093150180932C
:100E3000140189E363CFCE3551F40E948A0D91E00D
:100E4000811101C090E090931C01C1E01DCFCF350E
:100E500019F40E949D0D6BCFCA35D1F540980E94C0
:100E6000470DD80112968C91129713963C911397C7
:100E700014962C91149715969C91159780931601B2
:100E800030931701209318019093190116966C91D5
:100E90006F710E94510DF801C681C295C695C77049
:100EA000C6838CE1E82E81E0F82E10E0C11711F026
:100EB000143039F40E944E0DC53008F4E5CEC4E07C
:100EC000E3CE0E94720DD7018D937D011F5FEECF9F
:100ED000C23021F40E943704419AEDCEC33081F52F
:100EE000E0910901F0910A0112968C910995809385
:100EF0001C01E0910901F0910A01D80113968C912F
:100F0000099580931D01E0910901F0910A01D80132
:100F100014968C91099580931E01E0910901F0913E
:100F20000A01D80115968C91099580931F011092A2
:100F30002001109221011092220110922301BFCFB3
:100F4000C53019F40E943E04F2CE62E0C43009F4C8
:100F5000D4C063E0C73009F4D0C0C63049F58091F1
:100F60000B0181110FC0F80182819381092E000CC1
:100F7000AA0BBB0B8093160190931701A093180145
:100F8000B0931901D80114968C91149715969C91E1
:100F9000159780930E0190930F018093130116967D
:100FA0008D919C91909315018093140181E0A6CEC0
:100FB000C83009F580910B0181110FC0F8018281C1
:100FC0009381092E000CAA0BBB0B80931601909302
:100FD0001701A0931801B093190110920F011092FC
:100FE0000E01D80116968D919C91909315018093D6
:100FF000140184E083CEC930A9F481E080930B0111
:10100000F8016281738184819581609316017093E8
:10101000170180931801909319010E948104109286
:101020001C0113CFCA3069F412968C9180931A0177
:10103000811103C010920C0108CF81E080930C0154
:1010400004CFC131B1F480911A0180931D018091C8
:10105000010180931E018091080180931F018091FE
:1010600000018093200180911B0180932101C6E043
:101070000BCECB30B1F4FC0182819381909351016E
:101080008093500110920B012A9A229A83E00E94C9
:10109000EA052A98409880E10E94EA050E94B00182
:1010A0000ACECC30C1F480EC0E94C10180E00E94E5
:1010B000C1018AE00E94EA052A9A85E00E94EA05B9
:1010C0002A9885E00E94EA0584B1837D84B985B1C0
:1010D000837D85B9F0CDCD3019F40E94E50127CE8E
:1010E000CE3029F412968C910E94C10198CF65E010
:1010F000CF3019F0C03129F466E0C8010E94F20532
:10110000EBCDCF3709F0D7CD83E180931C0181E887
:1011100080931D018FEC80931F01D1CE2F923F92BF
:101120004F925F926F927F928F929F92AF92BF92F7
:10113000CF92DF92EF92FF920F931F93CF93DF93A3
:1011400000D00F92CDB7DEB720911B013EEF320FDA
:10115000323048F0253039F0233329F0293319F0A3
:10116000263309F069C170E0E0901401F090150198
:101170006E157F0508F47B011E2D419820911B01FF
:10118000253019F54E2DBC01809116019091170163
:101190000E94FE018091160190911701A091180103
:1011A000B09119018E0D9F1DA11DB11D80931601D7
:1011B00090931701A0931801B09319018091140125
:1011C000909115018E199F09C5C0233381F5082F11
:1011D0008A839B838A81801B8117C8F080911401C8
:1011E000909115018E199F09909315018093140118
:1011F000892B09F0B6C080910201882329F02A9A30
:1012000025E02A95F1F7000010921B01AAC0E09199
:101210000901F0910A0180E00995EA81FB8181933F
:10122000FB83EA83F5E0FA95F1F70000D3CF26338C
:10123000B1F540911401509115015B834A83E41686
:10124000F50610F4FB82EA821A816C01F12CE12C84
:10125000AA80BB8051E0A51AB108E11690F08091F8
:101260001401909115012A813B81821B930B90936D
:10127000150180931401892B09F073C00E94C20CE0
:10128000C3CF81E0AE14BF0409F080E00E94080DD6
:10129000F60181936F01FFEFEF1AFF0ADECF2933CA
:1012A00019F5082F8A839B838A81801B811780F020
:1012B00080911401909115018E199F099093150149
:1012C00080931401892B09F04CC00E944E0D9CCFD5
:1012D0000E94720DEA81FB818193FB83EA83F5E032
:1012E000FA95F1F70000E0CF223009F07CC0809041
:1012F000160190901701A0901801B090190120914B
:10130000000140911401509115015B834A83E4165A
:10131000F50610F4FB82EA821A8189831C017501AB
:101320006401822DF9818F1B8117F0F0810E911CD1
:10133000A11CB11C8092160190921701A092180175
:10134000B092190180911401909115012A813B817D
:10135000821B930B9093150180931401892B09F440
:1013600053CF419A409A6AC000E0C114D10452E0C0
:10137000E506F10430F12601370181E176946794A6
:10138000579447948A95D1F7042D2415D1F04092B3
:101390000001E0910901F0910A018DE40995E091C5
:1013A0000901F0910A0180E00995E0910901F091AD
:1013B0000A01842D0995E0910901F0910A0180E06C
:1013C0000995260137018FEF481A580A680A780AEA
:1013D000C701B6010E94BE04F10181931F01202FB5
:1013E000730162019ECF233039F5082F8A839B83D6
:1013F0008A81801B811708F0E1CE809116019091BF
:1014000017010E94A705EA81FB818193FB83EA8390
:101410008091160190911701A0911801B0911901C6
:101420000196A11DB11D8093160190931701A09301
:101430001801B0931901DCCF419A1FEF812F0F9053
:101440000F900F90DF91CF911F910F91FF90EF9030
:10145000DF90CF90BF90AF909F908F907F906F90D4
:101460005F904F903F902F9008950F931F93CF93CD
:10147000DF93EC018C01060F111DC017D10731F469
:1014800080E0DF91CF911F910F91089568E08991DD
:101490000E94510D882389F381E0F3CF4F925F9230
:1014A0006F927F928F929F92AF92BF92CF92DF9274
:1014B000EF92FF920F931F93CF93DF93982E792E85
:1014C00080911B01882309F4F1C1813059F0982FD4
:1014D0009D7F943039F0982F977F923319F08533A0
:1014E00009F0E4C170E0009114011091150160173A
:1014F000710708F48B01D02F4198C0911B01C630B1
:10150000F1F5402F692D772D8091160190911701EB
:101510000E9408028091160190911701A091180174
:10152000B0911901800F911FA11DB11D809316016B
:1015300090931701A0931801B093190180911401A1
:1015400090911501801B910B9093150180931401CC
:10155000892B71F1C0E0419A409A8C2FDF91CF9195
:101560001F910F91FF90EF90DF90CF90BF90AF90C1
:101570009F908F907F906F905F904F900895C233AF
:1015800019F5C92DE92CF72C8E2D8C1B8D1798F091
:101590008091140190911501801B910B909315017E
:1015A00080931401892BB1F68091020181112A9A4E
:1015B00010921B01CFCFE0910901F0910A01D701F0
:1015C0008D917D010995E0CFC53359F5E090140167
:1015D000F09015010E151F0508F478011E2D092D38
:1015E000C92DD72D8C2F801B8117A0F0809114015D
:1015F000909115018E199F09909315018093140104
:10160000892B09F0A7CF80915201882339F00E94DD
:10161000C20CCECF89910E94D70CE4CF0E94AD0CB2
:10162000C7CFCA33C9F58091120125E0C22ED12C53
:10163000E12CF12C04C0CC0CDD1CEE1CFF1C8A95A7
:10164000D2F78091100190911101C82A0E94470D94
:10165000609112016D5F8C2D0E94510D602F892DBC
:10166000972D0E94350AC82F882321F00E944E0D25
:10167000CDEF71CF8091140190911501801B910BDA
:101680009093150180931401892B09F063CF0E9478
:101690004E0D10921B015FCFC13009F0C8C0C09041
:1016A0001601D0901701E0901801F0901901809177
:1016B0000001892CA92CB72C9A2D98199D17C0F1DF
:1016C000C0921601D0921701E0921801F092190110
:1016D0008091140190911501801B910B909315013D
:1016E00080931401892B09F035CF10921B01609172
:1016F0000E0170910F016115710509F42CCF8091D5
:1017000013018617170609F426CF81E0C81AD108FD
:10171000E108F10871956195710990E080E06C2114
:101720007D218E219F210E945D05811173C013CF01
:10173000982EC114D104B2E0EB06F10430F1260179
:10174000370191E176946794579447949A95D1F72D
:10175000942C8415D1F040920001E0910901F091A0
:101760000A018DE40995E0910901F0910A0180E0F8
:101770000995E0910901F0910A01842D0995E09104
:101780000901F0910A0180E00995F50141915F019D
:1017900080910E0190910F01892B99F421E0C701EE
:1017A000B6010E9402058823D9F110921B01C09254
:1017B0001601D0921701E0921801F0921901CBEFB7
:1017C000CACE20E0C701B6010E9402058111EDCF0B
:1017D00080911301815080931301811121C0609188
:1017E0000E0170910F0171956195710990E080E093
:1017F0006C217D218E219F210E945D05882361F04F
:1018000010921B01C0921601D0921701E0921801AC
:10181000F0921901CAEF9FCE80910E0180931301BF
:10182000FFEFCF1ADF0AEF0AFF0A892D45CFC43038
:10183000D9F5C92DE92CF72C8E2D8C1B8D1788F02E
:101840008091140190911501801B910B90931501CB
:1018500080931401892B09F07DCE10921B01C1E009
:101860007ACED7016D917D0180911601909117017B
:101870000E94C405882321F010921B01CCEF6BCE8F
:101880008091160190911701A0911801B091190152
:101890000196A11DB11D8093160190931701A0938D
:1018A0001801B0931901C8CFCFEF55CECFEF55CE69
:1018B000A0E8B0E01C92E1E8F0E01082808188604E
:1018C000808380818260808388EE93E0909389009A
:1018D000809388008C9180648C9308951BB88BB1A1
:1018E0008B778BB98AB184688AB92FEF30E782E0B1
:1018F000215030408040E1F700C000008AB18B7772
:101900008AB914B8219A93E097B93A9888B18C6350
:1019100088B940982FEF31EE84E02150304080406C
:10192000E1F700C00000409A41982FEF31EE84E0CB
:10193000215030408040E1F700C00000419A95BD41
:101940000E94580C0E94300378940E941B02FDCF25
:1019500024982C9A23982B9A089524982C9A2398AB
:101960002B9A8AE18A95F1F700C0249A2C988AE193
:101970008A95F1F700C0239A2B988AE18A95F1F7AE
:1019800000C00895239A2B98249A2C988AE08A956F
:10199000F1F700C023982B9A8AE08A95F1F700C0EE
:1019A00024982C9A8AE18A95F1F700C0089598E06E
:1019B000239A2B982AE02A95F1F700C087FF25C0CB
:1019C00024982C9A2AE02A95F1F700C023982B9AA4
:1019D0002AE12A95F1F700C0880F915049F7239A20
:1019E0002B9824982C9A8AE08A95F1F700C02398C6
:1019F0002B9A2AE12A95F1F700C083B1239A2B98FC
:101A000082958F70809581700895249A2C98DACFF2
:101A1000282F24982C9A98E080E0239A2B983AE17A
:101A20003A95F1F700C023982B9A3AE13A95F1F7ED
:101A300000C0880F1C998160915079F7239A2B98E8
:101A4000211111C0249A2C989AE09A95F1F700C0C0
:101A500023982B9A3AE03A95F1F700C0239A2B98F5
:101A600024982C9A089524982C9AEECF880F6130F0
:101A700009F481600C94D70C2D98089584B18C6280
:101A800084B924980E943C0D2B982A9808952A988E
:101A90002D980E94E2032A9A0C94E2032A980C944F
:101AA0003C0DCF93DF93D82F6150770BC1E001C07D
:101AB000CC0F6A95EAF7C11104C080E0DF91CF91A5
:101AC00008950E943C0D8C2F8D2351F02B9A0E947B
:101AD000E2032D9A0E94E2030E943C0DC695EBCFD3
:101AE0002B98F5CFCF93DF93D8E0C0E00E943C0D58
:101AF0000E94E2032D9A83B182958170CC0FC82B8E
:101B00000E94E2030E943C0DD15081F78C2FDF919F
:101B1000CF910895CF930E943E0D2A9A85E38A952E
:101B2000F1F700000E94E203C3B10E944E0DC2957E
:101B3000C17081E08C27CF910895CF930E943E0D14
:101B40002A9A85E38A95F1F7000068E080EC0E940C
:101B5000510DC0E00E943C0D0E94E2032D9A0E94AC
:101B6000E2031C9908C0CA5F0E943C0D0E944E0D02
:101B70008C2FCF9108950E943C0DCF5FC73051F755
:081B8000CFEFF4CFF894FFCF82
:041B8800FF0C01004D
:00000001FF
