:1000000063C0000098C000007CC000007AC00000FF
:1000100078C0000076C0000074C0000072C000000C
:1000200070C000006EC000006CC000006AC000001C
:1000300068C0000066C0000064C0000062C000002C
:1000400060C000005EC000005CC000005AC000003C
:1000500058C0000056C0000054C0000052C000004C
:1000600050C000004EC0000009021200010100A0B3
:100070001909040000000000000012011001FF0037
:100080000008C016DC050701010200010E0355003F
:10009000530042006100730070001C03770077007A
:1000A00077002E00660069007300630068006C0032
:1000B0002E006400650004030904100E0C0A0908F0
:1000C000070605040302010011241FBECFEFD8E08C
:1000D000DEBFCDBF11E0A0E0B1E0E2E6FCE102C08E
:1000E00005900D92A630B107D9F721E0A6E0B1E066
:1000F00001C01D92A435B207E1F70E94C70C0C9411
:100100002F0E7ECFA82FB92F80E090E041E050EA7B
:10011000609530E009C02D9182279795879510F062
:1001200084279527305EC8F36F5FA8F30895EADF50
:100130008D939D930895CF93CFB7CF93DF93C395BE
:100140004F9BE9F74F9B0BC04F9B09C04F9B07C0CC
:100150004F9B05C04F9B03C04F9B01C089C06F934D
:10016000C0913001DD27C85CDE4F2F9365E54F9BC2
:1001700003C02F916F91E6CF0F931F934F9320E011
:1001800040E15F9309B1047807FB27F93F9350E002
:100190003BE039C0147840642F77012F5F5F1EC0A9
:1001A000406819B114782F7752501FC0406409B1CC
:1001B0002F770478D1F15F5F00C023C0406219B18E
:1001C0002F77147891F15F5F00C025C00478102765
:1001D000515012F45D5F0000115027952C3F19B16A
:1001E000C8F614780127015027952C3FC8F64227FE
:1001F000499309B1047810274F73115027952C3F6C
:10020000A8F64695469519B1147879F00127015062
:1002100027952C3F98F66B5A60F3315009B1B0F630
:1002200000C011E01CBB002717C03B503195C31B19
:10023000D04011E01CBB0881033CF9F00B34E9F01D
:1002400020912E011981110F1213EDCF093651F1B2
:100250000D3211F0013E39F7009336013F915F9165
:100260004F911F910F912F916F91CCB3C0FD67CF2C
:10027000DF91CF91CFBFCF911895209136012223E6
:1002800069F310913401112339F534303AF1309388
:10029000340120932F01109130013BE0311B30934A
:1002A00030011CC0009134010130B4F40AE53091F2
:1002B000310134FD14C000933101C3E2D1E013C019
:1002C000052710E000C000000BB91AC0052710E098
:1002D000221F1DC010E021C04AE502C032ED432FAD
:1002E000C4E1D0E032E01AB114685F9A0BB11AB9D8
:1002F00054E820E865E320FF05270BB927951795FB
:100300001C3FF0F66695B8F7B1F720FF05270BB94B
:10031000279517951C3FD0F62795179517FF0527AA
:1003200000001C3F0BB9B0F629913A9519F70B77ED
:1003300010913501110FC651D0400BB911F0109337
:100340002E0111E01CBB00681AB11B77402F4B77C0
:1003500054E05A95F1F70BB91AB94BB97FCF259AEA
:1003600023982B9A50E218D05A95E9F70895AC01DA
:1003700088E606D0842F04D089E602D0852F00C0FD
:100380000FD028E030E0382780FB869506D02A95EC
:10039000D1F730FB02D000C0689423982B9A16F056
:1003A0002B98239AE0915201F09153013197F0F785
:1003B0002D9AE3B1E3FBE0915201F09153013197A3
:1003C000F0F72D98089520ECE7DF46F42A95E1F741
:1003D00080E02AE1E5DF2A95E9F7DECF28E030E08A
:1003E000DBDF869587F938272A95D1F7D5DF27F9FE
:1003F000322772F3D1DFD0CFDB01742FB8DF84E274
:10040000BFDFE1DF8D937A95D1F70895DB01742F7B
:10041000AEDF83EFB5DF8DE1B3DF84E6B1DF8D9131
:10042000AFDF82E7ADDFCFDF8078D9F77A9589F744
:100430000895CF93DF9360913401635067FD90C0BE
:1004400080913001CCE0D0E0C81BD109C85CDE4F00
:1004500080912F018D3209F0BFC0683009F07EC055
:1004600083EC809323018AE5809331011092060189
:100470008881807671F0CE0111D48F3F09F466C077
:100480009F81911169C09E81981708F065C0892FDE
:1004900063C02A8110922C01998191110AC0109297
:1004A0002D012CE231E082E03093330120933201C0
:1004B000E7CF953029F4209335012CE231E0F4CFD9
:1004C000963099F59B81913059F48AE790E09093AA
:1004D00033018093320182E190E490930601D0CF02
:1004E000923019F488E690E0F2CF9330A9F7211109
:1004F00008C086EB90E0909333018093320184E052
:10050000EBCF213041F48AE990E09093330180935E
:1005100032018CE1E1CF2230F9F68CE890E0909343
:100520003301809332018EE0D7CF983059F0993063
:1005300019F420933701C1CF81E09A3009F4BDCF7F
:1005400080E0BBCF27E331E081E0AECF988197FD1B
:100550008E8190E8909306018093070110923401F8
:100560008091310184FF2BC0C0910701CF3F39F149
:100570006C2FC93008F068E08C2F861B8093070130
:100580008091230198E8892780932301CC2359F097
:100590002091060127FF32C084E291E047D5C82FA1
:1005A000893008F052C06C2F84E291E0C0DDCC5F4E
:1005B000CC3019F08FEF80930701C093310184E1B3
:1005C00099B1947831F48150D9F710923501109295
:1005D0002E01DF91CF9108958091060187FFBECF54
:1005E000CE0150D78F3F21F48EE180933101B6CFF9
:1005F000882309F4B3CF10920701B0CF8091320164
:100600009091330126FF17C0FC01A4E2B1E0262F30
:10061000280F34913D9331962E13FBCF2FEF260FE9
:1006200030E02F5F3F4F820F931F909333018093F1
:100630003201C62FB8CFA4E2B1E0FC01262F280F6B
:1006400031913D932E13FCCFE9CF8FEF80930701BB
:10065000CEE1B3CF8AE5809331018FEF809307011C
:10066000E9E6F0E0808182608083E89A08958EBD9B
:100670000DB407FEFDCF8EB5089580914F018CBD5E
:1006800080914E018DBD089581111BC080910101A3
:10069000811117C080E18093190127E333E0309383
:1006A00009012093080110924E0191E090935001AE
:1006B0008A3041F1C8F4883049F1893029F181E567
:1006C00018C080931901883040F721EE33E0309351
:1006D000090120930801843041F1D0F4823049F1BE
:1006E000833029F18AEF1AC08E3031F0803139F72A
:1006F00080E580934F01089581E580934F019093A9
:100700004E01089582E5F9CF82E5F3CF83E5F1CF7D
:10071000863039F040F0873029F784E0809350012B
:10072000089588E0FBCF80E1F9CF8FE1F7CF8FE329
:10073000F5CF8DE7F3CF0F931F93CF93DF93C82FA0
:10074000A3DF11E0DFE3C83010F41FE0DAEFC3E00D
:100750002A9A812F10D22A988D2F0DD2E09108016C
:10076000F09109018CEA0995E0910801F0910901E5
:1007700083E50995E0910801F091090180E0099570
:10078000082FE0910801F091090180E009950335F7
:1007900011F4882349F08FE19EE40197F1F700C03E
:1007A0000000C150A9F681E0DF91CF911F910F9118
:1007B000089526B59091500186B5821B8917E0F304
:1007C00008951F93CF93DF93182F2D98D8E0C0E0A2
:1007D00017FF13C02B9A110FECDF2D9AEADF83B1BC
:1007E00082958170CC0FC82B2D98E3DFD15081F713
:1007F0008C2FDF91CF911F9108952B98ECCF84B16E
:100800008C6284B924982A982D9881E0B4D12A9AD0
:1008100081E0B1D12A988091080190910901875314
:10082000934009F42ADF8FEF80930001089584B18B
:100830008C6284B98091080190910901875393409B
:1008400009F41BDF8FEF809300012A9A089584B189
:10085000837D84B985B1837D85B91092190108958E
:100860000F931F93CF93DF9380910D01CAEBD0E0DC
:100870000C2F035F882371F0809119015CDF8111D7
:100880001BC09091190190930101DF91CF911F91AD
:100890000F910895FE01149180910101811749F093
:1008A000812F49DF811105C01093190110930101B7
:1008B000ECCF21960C13EECF81E0E7CF0F931F937F
:1008C0008B019C012450310901151105244031058B
:1008D00050F5DC01CB0121E1B695A7959795879559
:1008E0002A95D1F7209100012817E9F080930001A3
:1008F000E0910801F09109018DE40995E09108016A
:10090000F091090180E00995E0910801F091090159
:10091000809100010995E0910801F091090180E0C2
:100920001F910F9109941F910F910895CF92DF921B
:10093000EF92FF926B017C01862F880F880F880F42
:100940008870E0910801F091090180620995D70152
:10095000C60129E0B695A795979587952A95D1F771
:10096000E0910801F09109010995D701C601B695FA
:10097000A79597958795E0910801F0910901099550
:10098000E0910801F091090180E0FF90EF90DF9085
:10099000CF900994CF92DF92EF92FF926B017C018E
:1009A0008DDFC701B601FF90EF90DF90CF90BECFF3
:1009B000CF92DF92EF92FF92CF93DF936B017C0196
:1009C000D42FC22F7BDF8C2D880F880F880F887063
:1009D000E0910801F091090180640995D701C601F1
:1009E00029E0B695A795979587952A95D1F7E09137
:1009F0000801F09109010995D701C601B695A7959F
:100A000097958795E0910801F09109010995E0918A
:100A10000801F09109018D2F0995C11108C080E0EE
:100A2000DF91CF91FF90EF90DF90CF900895DF3F5F
:100A300061F0CEE181E09FD0C701B601ABDF8D1739
:100A400071F3C15041F481E0EBCFC701B601A2DFE1
:100A50008F3F79F7E4CFC53168F784E0CB3058F3A6
:100A600082E0E9CFCF92DF92EF92FF92CF936B01BA
:100A70007C0124DFE0910801F09109018CE40995E3
:100A8000D701C60129E0B695A795979587952A9530
:100A9000D1F7E0910801F09109010995D701C6014C
:100AA000B695A79597958795E0910801F091090172
:100AB0000995E0910801F091090180E00995C9E1EB
:100AC00081E059D0C701B60165DF8F3F81F4C15085
:100AD00039F481E0CF91FF90EF90DF90CF900895AF
:100AE000C03170F784E0C63060F382E0EACF80E086
:100AF000F1CFCF93DF93EC01E0910801F091090170
:100B000080EA0995E0910801F09109018D2F09957E
:100B1000E0910801F09109018C2F0995E0910801FD
:100B2000F091090180E0DF91CF9109941F93CF9359
:100B3000DF93D82F192FC62FE0910801F0910901FA
:100B400080EC0995E0910801F0910901812F099548
:100B5000E0910801F09109018D2F0995E0910801BC
:100B6000F09109018C2F09958BE005D080E0DF9191
:100B7000CF911F91089526B596B5921B9035E0F35D
:100B80008150C9F70895262FFC0142815381052E1B
:100B9000000C660B770B4093140150931501609382
:100BA00016017093170186819781909313018093AA
:100BB000120120931A0108952A98FB0192819093C3
:100BC0000501268137813093130120931201809310
:100BD0001A0108950F931F93522F2091180121118C
:100BE0000FC0FC0102811381012E000C220B330B7C
:100BF00000931401109315012093160130931701EF
:100C0000242F30E03093100120930F0150FD4093CA
:100C10001101FC0186819781909313018093120149
:100C200060931A011F910F9108950F931F93FC0178
:100C3000838191E0811101C090E090930C01809339
:100C40000B01928190930401882381F08230E1F4BA
:100C500004811581012E000C220B330B009314012B
:100C60001093150120931601309317018681978107
:100C7000909313018093120160931A018FEFFA0190
:100C800080831F910F91089500E010E0980181305A
:100C900029F7048110E030E020E0E0CFCF92DF922E
:100CA000FF920F931F93CF93DF930F92CDB7DEB7D1
:100CB0008C011982DC0111968C9111978130A1F47D
:100CC00080911901E1DC10921801409898DDC8DD8F
:100CD00080930E01882319F0BADD109201018091F2
:100CE0000E0180931B014BC08233A9F4809119013E
:100CF000CBDC40989CDD8BE191E0909333018093B5
:100D0000320189810F90DF91CF911F910F91FF9058
:100D1000DF90CF900895B801833319F0843321F424
:100D200082E34ADF8FEF38C1853311F484E3F9CFD2
:100D3000863419F4409864D6DECF8C3461F4809107
:100D4000020190E08E7F61D6F801828188D672D64A
:100D500010921B0114C0893411F457D6CCCF8A34B9
:100D600011F468D6C8CF8B3461F4809102018160A0
:100D700090E04BD680E0A4D680931B015BD681E047
:100D80000BC1873449F410920301AE014F5F5F4FEE
:100D900066E3C8014ADFAFCF883459F414968C91CA
:100DA0008093030110920A01AE014F5F5F4F65E32C
:100DB000F0CF8D3429F4F801828180930201C8CFED
:100DC0008D3559F416968D919C91909313018093D3
:100DD00012018AE380931A01A5CF8C3549F4F801FA
:100DE00086819781909313018093120189E3F2CF5A
:100DF0008E3541F4E2D691E0811101C090E09093EC
:100E00001B01BDCF8F3511F4E9D66BCF8A35C1F503
:100E100040988ED6D80112968C91129713963C91D9
:100E2000139714962C91149715969C91159780936F
:100E30001401309315012093160190931701169613
:100E40006C916F7185D6F801F680F294F69447E0C4
:100E5000F422F6825BE1C52E51E0D52E10E0F116AA
:100E600011F0143039F472D68F2D853008F494C007
:100E700084E092C08CD6D6018D936D011F5FEFCFB9
:100E8000823021F4E4DC419A409A35CF833041F539
:100E9000E0910801F091090112968C9109958093D7
:100EA0001B01E0910801F0910901D80113968C9182
:100EB000099580931C01E0910801F0910901D80186
:100EC00014968C91099580931D01E0910801F09191
:100ED0000901D80115968C91099580931E01C8CF00
:100EE00062E0843009F492C063E0873009F48EC078
:100EF000853011F4B5DCF5CE863041F4F80125815A
:100F00002F70448161E0C80165DE0CCF883021F488
:100F100020E040E064E0F7CF8930B1F413962C91E3
:100F2000139712966C91129770E090E080E0CB01DD
:100F300077276627922B14962C911497622B15967F
:100F40002C91722BBBDC04CF8A3069F4F8018281CA
:100F500080931901811103C010920D01F9CE81E037
:100F600080930D01F5CE8131C9F410921B0180915F
:100F7000190180931C018091010180931D018091D2
:100F8000500180931E018091000180931F01809188
:100F90001A018093200186E08983ADCE8B3089F4DD
:100FA00012968D919C9190935301809352012A9AAD
:100FB000229A83E0E0DD2A98409880E1DCDDCFD9F9
:100FC0009ACE8C3099F480ECDBD980E0D9D98AE0D4
:100FD000D2DD2A9A85E0CFDD2A9885E0CCDD84B188
:100FE000837D84B985B1837D85B985CE8D3011F43B
:100FF000EAD977CE8E3021F4F8018281C1D9A8CE0A
:1010000065E08F3019F0803121F466E0C801BBDD66
:1010100089CE8F3709F06FCE83E180931B0181E881
:1010200080931C0110921D018FEC57CFAF92BF929D
:10103000CF92DF92EF92FF920F931F93CF93DF93A4
:10104000EC0180911A019EEF980F923048F08530A4
:1010500039F0833329F0893319F0863309F0D5C18B
:1010600070E000911201109113016017710708F4EC
:101070008B01F02E419880911A01853061F5402F47
:10108000BE018091140190911501B6D9809114018F
:1010900090911501A0911601B0911701800F911F39
:1010A000A11DB11D8093140190931501A093160109
:1010B000B09317018091120190911301801B910B45
:1010C0009093130180931201892B11F410921A014D
:1010D000419A409881C0833359F5EC2ECC2EDD2EF9
:1010E0008C2D8E198F15B0F0809112019091130103
:1010F000801B910B9093130180931201892B41F770
:1011000080910501882311F32A9A25E02A95F1F7A9
:101110000000DCCFE0910801F091090180E0099521
:10112000F60181936F01F5E0FA95F1F70000D8CF51
:10113000863309F084C080910A01811132C0E090A9
:101140000401D0900B0180910C01882389F08091DB
:10115000140190911501A0911601B09117012FE093
:10116000B695A795979587952A95D1F78E70E82A19
:101170004CD48E2D74D4811159C0DD2049F080915A
:1011800015016DD481E08D1518F48091140167D498
:101190003CD48E2D816063D4811148C081E080935E
:1011A0000A01D12CC12C5801E1E0AE1AB108CF14CC
:1011B000F8F08091120190911301801B910B909394
:1011C000130180931201892B39F434D410921A013F
:1011D00010920C0110920A018F2DDF91CF911F9177
:1011E0000F91FF90EF90DF90CF90BF90AF90089558
:1011F00081E0AC14BD0409F080E062D48993809151
:10120000140190911501A0911601B091170101965A
:10121000A11DB11D8093140190931501A093160197
:10122000B0931701FFEFCF1ADF0AC1CF03D410929A
:101230001A0110920C0110920A01F12CCDCF8933C2
:10124000F9F4EC2ECC2EDD2E8C2D8E198F1578F026
:101250008091120190911301801B910B90931301C7
:1012600080931201892B09F033CF70D42FCF8FD404
:10127000F60181936F01F5E0FA95F1F70000E4CFF4
:10128000823009F090C08091140190911501A091D5
:101290001601B09117010197A109B109800F911FA3
:1012A000A11DB11D0097A240B10508F07AC0EC2E37
:1012B000CC2EDD2E8C2D8E198F1508F0FBCE609173
:1012C00014017091150180911601909117012EDB88
:1012D000F60181936F018091140190911501A09105
:1012E0001601B09117010196A11DB11D8093140143
:1012F00090931501A0931601B0931701DBCF609175
:101300001401709115018091160190911701D6DAA0
:1013100040911401509115016091160170911701CF
:10132000DF2CDE18DB01CA0188279927AE7F1296D1
:10133000841B950BA60BB70B4D2D50E070E060E0C1
:10134000481759076A077B0708F0D82E5E01AE0CD4
:10135000B11CC12CCD1004C0EC0CEF1480F2AACE4D
:1013600060911401709115018091160190911701FF
:10137000DDDAF50181935F018091140190911501EF
:10138000A0911601B09117010196A11DB11D809386
:10139000140190931501A0931601B0931701C39403
:1013A000D9CFE12CDACF833081F5EC2ECC2EDD2E97
:1013B0008C2D8E198F1508F07DCE8091140190919F
:1013C0001501A0911601B09117018115E0E19E076A
:1013D000A105B105C0F48DDBF60181936F01809109
:1013E000140190911501A0911601B0911701019679
:1013F000A11DB11D8093140190931501A0931601B6
:10140000B0931701D5CF8FEFE7CF419AFF24FA941D
:10141000E3CE6115710522E08207910598F461150C
:10142000710521E08207910578F4611520E87207C3
:101430008105910558F4611570448105910540F0CE
:1014400080E1089580E8089580E4089580E2089599
:1014500088E008950F931F93CF93DF93EC018C01E5
:10146000060F111DC017D10731F480E0DF91CF9135
:101470001F910F91089568E089916AD3882391F3B1
:1014800081E0F4CF4F925F926F927F928F929F9202
:10149000AF92BF92CF92DF92EF92FF920F931F9382
:1014A000CF93DF93F82EE92E80911A01882309F457
:1014B00054C2813059F0982F9D7F943039F0982F85
:1014C000977F923319F0853309F047C270E000919D
:1014D0001201109113016017710708F48B01902E0F
:1014E0004198D0911A01D63009F040C0402F6F2D9D
:1014F0007E2D80911401909115010E940602809129
:10150000140190911501A0911601B0911701800F5F
:10151000911FA11DB11D8093140190931501A093FB
:101520001601B09317018091120190911301801B55
:10153000910B9093130180931201892B11F4109257
:101540001A01C0E0419A409A8C2FDF91CF911F91F0
:101550000F91FF90EF90DF90CF90BF90AF909F9052
:101560008F907F906F905F904F900895D23301F5E8
:10157000DF2CCF2DDE2D8C2F8D19891590F08091C9
:10158000120190911301801B910B90931301809392
:101590001201892BB1F680910501882381F22A9AE4
:1015A000CECFE0910801F091090189910995E3CF2F
:1015B000D43361F555D9E0910801F09109018CEA25
:1015C0000995E0910801F091090180E80995E09101
:1015D0000801F091090180E00995E0910801F0917E
:1015E000090180E009952FE788E391E021508040D0
:1015F0009040E1F700C0000081E080931B018BE187
:1016000091E0909333018093320199CFD53309F063
:10161000D8C080910C01DF2CCF2DDE2D882309F45A
:10162000A8C080910A01811132C0EFD180910401DC
:1016300040911401509115016091160170911701AC
:1016400041155105E1E06E07710548F09FE0769580
:101650006795579547959A95D1F74E70842BFFD192
:101660008111A6C08091140190911501A0911601DD
:10167000B09117010097F1E0AF07B10510F0892F85
:10168000EED180911401EBD181E080930A0140906A
:101690001401509015016090160170901701C3015C
:1016A000B201B7DEC82F882E912CB12CA12CC3011A
:1016B000B201A5019401B1D2C61BD0E02091120164
:1016C000309113010217130708F498018E012C17AB
:1016D0003D0708F48901D02ECF2CCF2DDE2D8C2F85
:1016E0008C198D1550F18091120190911301801B7E
:1016F000910B9093130180931201892B81F06091DB
:101700001401709115018091160190911701A501A6
:10171000940183D2672B682B692B09F012CF8AD1F1
:101720008FE19EE40197F1F700C000008091120163
:1017300090911301892B91F104CF899190D181115E
:1017400037C08091140190911501A0911601B091BC
:1017500017010196A11DB11D8093140190931501ED
:10176000A0931601B0931701BACF899178D1811156
:1017700026C08C2F8D198915C0F38091120190918C
:101780001301801B910B9093130180931201892BFD
:1017900009F0D7CE80910301811108C010921A017F
:1017A00010920C0110920A01C1E0CCCE43D1BECF01
:1017B00041D110921A0110920C0110920A01CEEF41
:1017C000C1CEDA33C1F4602F8F2D9E2D43DEC82F9A
:1017D0008111C5C08091120190911301801B910B62
:1017E0009093130180931201892B09F0AACEAED1F8
:1017F00010921A01A7CED13029F0CCEFD43019F0D5
:10180000CFEFA0CECBEF8F2CAF2CBE2C8A2D88191A
:10181000891598F08091120190911301801B910B12
:101820009093130180931201892B09F08ACED13055
:1018300009F464C010921A01B7CFF50141915F011C
:101840008091140190911501A0911601B09117019A
:10185000D130B9F521E060910F0170911001672B33
:1018600009F020E0BC01CD01A3D881116BCE80919D
:101870000F0190911001009741F140911401509196
:1018800015016091160170911701209111012150ED
:1018900020931101211119C0919581959109B0E012
:1018A000A0E06C017D01C422D522E622F722C70107
:1018B000B60104D8C701B601D5D88823D1F0CAEF44
:1018C00041CE642F33D981113DCE80911401909186
:1018D0001501A0911601B09117010196A11DB11D2E
:1018E0008093140190931501A0931601B0931701F2
:1018F0008DCF80910F0180931101E7CF20910F01CF
:10190000309110012115310509F494CF8091110116
:101910008217130609F48ECFC0901401D0901501E0
:10192000E0901601F0901701F1E0CF1AD108E1081C
:10193000F108319521953109C901B0E0A0E0C2223A
:10194000D922EA22FB22C701B6010E945E04C70128
:10195000B60188D88111B3CF6DCFCFEFF5CDCDEFE4
:10196000F3CDA0E8B0E01C92E1E8F0E010828081C5
:101970008860808380818260808388EE93E090938A
:101980008900809388008C9180648C9308951BB8A3
:101990008BB18B778BB98AB184688AB92FEF30E726
:1019A00082E0215030408040E1F700C000008AB161
:1019B0008B778AB914B8219A93E097B93A9888B18D
:1019C0008C6388B940982FEF31EE84E0215030408D
:1019D0008040E1F700C00000409A41982FEF31EEBF
:1019E00084E0215030408040E1F700C00000419A7F
:1019F00095BDB7DF0E942A0378940E941902FDCF9B
:101A000024982C9A23982B9A089524982C9A2398FA
:101A10002B9A8AE18A95F1F700C0249A2C988AE1E2
:101A20008A95F1F700C0239A2B988AE18A95F1F7FD
:101A300000C00895239A2B98249A2C988AE08A95BE
:101A4000F1F700C023982B9A8AE08A95F1F700C03D
:101A500024982C9A8AE18A95F1F700C0089598E0BD
:101A6000239A2B982AE02A95F1F700C087FF25C01A
:101A700024982C9A2AE02A95F1F700C023982B9AF3
:101A80002AE12A95F1F700C0880F915049F7239A6F
:101A90002B9824982C9A8AE08A95F1F700C0239815
:101AA0002B9A2AE12A95F1F700C083B1239A2B984B
:101AB00082958F70809581700895249A2C98DACF42
:101AC000282F24982C9A98E080E0239A2B983AE1CA
:101AD0003A95F1F700C023982B9A3AE13A95F1F73D
:101AE00000C0880F1C998160915079F7239A2B9838
:101AF000211111C0249A2C989AE09A95F1F700C010
:101B000023982B9A3AE03A95F1F700C0239A2B9844
:101B100024982C9A089524982C9AEECF2D98089505
:101B200084B18C6284B92498F9DF2B982A9808959F
:101B30002A982D980E94D9032A9A2B9A0E94D90399
:101B40002D9A0E94D9032D980C94D9032A98E6CF98
:101B5000CF93DF93D82F6150770BC1E001C0CC0F3A
:101B60006A95EAF7C11104C080E0DF91CF91089532
:101B7000D5DF8C2F8D2349F02B9A0E94D9032D9A03
:101B80000E94D903CBDFC695EDCF2B98F6CFCF932C
:101B9000DF93D8E0C0E0C2DF0E94D9032D9A83B161
:101BA00082958170CC0FC82B0E94D903B7DFD1502A
:101BB00091F78C2FDF91CF910895CF93B1DF2A9ABF
:101BC00085E38A95F1F700000E94D903C3B1BEDF17
:101BD000C295C17081E08C27CF910895CF93A0DF8B
:101BE0002A9A85E38A95F1F7000068E080ECB0DF7F
:101BF000C0E094DF0E94D9032D9A0E94D9031C995A
:101C000006C0CA5F8BDFA2DF8C2FCF91089586DFDD
:101C1000CF5FC73071F7CFEFF6CFA1E21A2EAA1B24
:101C2000BB1BFD010DC0AA1FBB1FEE1FFF1FA2178C
:101C3000B307E407F50720F0A21BB30BE40BF50B89
:101C4000661F771F881F991F1A9469F76095709512
:101C5000809590959B01AC01BD01CF010895F8944A
:021C6000FFCFB4
:061C6200FF0EFF01A001CE
:00000001FF
