:100000000C946A000C94A2000C9487000C94870056
:100010000C9487000C9487000C9487000C94870044
:100020000C9487000C9487000C9487000C94870034
:100030000C9487000C9487000C9487000C94870024
:100040000C9487000C9487000C9487000C94870014
:100050000C9487000C9487000C9487000C94870004
:100060000C9487000C94870009021200010100A083
:100070001909040000000000000012011001FF0037
:100080000008C016DC050701010200010E0355003F
:10009000530042006100730070001C03770077007A
:1000A00077002E00660069007300630068006C0032
:1000B0002E00640065000403090400010001000033
:1000C0005051515252530D0C0B0A090807060504F2
:1000D0000302010011241FBECFEFD8E0DEBFCDBF69
:1000E00011E0A0E0B1E0EAECFAE102C005900D9267
:1000F000A430B107D9F721E0A4E0B1E001C01D921E
:10010000A535B207E1F70E94F60B0C94630D0C9431
:100110000000A82FB92F80E090E041E050EA609500
:1001200030E009C02D9182279795879510F084279C
:100130009527305EC8F36F5FA8F30895EADF8D93CB
:100140009D930895CF93CFB7CF93DF93C3954F9BE4
:10015000E9F74F9B0BC04F9B09C04F9B07C04F9BBC
:1001600005C04F9B03C04F9B01C089C06F93C091D6
:100170003301DD27C55CDE4F2F9365E54F9B03C040
:100180002F916F91E6CF0F931F934F9320E040E1A3
:100190005F9309B1047807FB27F93F9350E03BE0F8
:1001A00039C0147840642F77012F5F5F1EC040680C
:1001B00019B114782F7752501FC0406409B12F77BE
:1001C0000478D1F15F5F00C023C0406219B12F777E
:1001D000147891F15F5F00C025C00478102751505A
:1001E00012F45D5F0000115027952C3F19B1C8F63D
:1001F00014780127015027952C3FC8F642274993D0
:1002000009B1047810274F73115027952C3FA8F699
:100210004695469519B1147879F001270150279534
:100220002C3F98F66B5A60F3315009B1B0F600C01C
:1002300011E01CBB002717C03B503195C31BD040B9
:1002400011E01CBB0881033CF9F00B34E9F020916C
:1002500031011981110F1213EDCF093651F10D3211
:1002600011F0013E39F7009339013F915F914F91B1
:100270001F910F912F916F91CCB3C0FD67CFDF918C
:10028000CF91CFBFCF91189520913901222369F3E7
:1002900010913701112339F534303AF13093370199
:1002A00020933201109133013BE0311B3093330135
:1002B0001CC0009137010130B4F40AE530913401DB
:1002C00034FD14C000933401C6E2D1E013C0052709
:1002D00010E000C000000BB91AC0052710E0221F73
:1002E0001DC010E021C04AE502C032ED432FC4E139
:1002F000D0E032E01AB114685F9A0BB11AB954E831
:1003000020E865E320FF05270BB9279517951C3FCB
:10031000F0F66695B8F7B1F720FF05270BB92795DA
:1003200017951C3FD0F62795179517FF0527000056
:100330001C3F0BB9B0F629913A9519F70B7710913C
:100340003801110FC651D0400BB911F01093310193
:1003500011E01CBB00681AB11B77402F4B7754E0AB
:100360005A95F1F70BB91AB94BB97FCF2D98259A49
:1003700023982B9A50E22DD05A95E9F708952AD068
:1003800028E03327382780FB869525D02A95D1F79A
:1003900030FB21D01ED01DD0089520EC1AD04EF491
:1003A0002A95E1F780E02AE115D02A95E9F711D0E6
:1003B000089528E0332788270CD0869587F93827B9
:1003C0002A95D1F706D027F9322772F302D001D04F
:1003D00008956894E89416F42B9A01C02B9806D0DF
:1003E0002D9AE3B1E3FB02D02D980895E0915201DC
:1003F000F09153013197F0F7089518D084E2BFDFF0
:10040000CCDF8D934A95D1F7089510D083EFB7DFF5
:100410008DE1B5DF84E6B3DF8D91B1DF82E7AFDF39
:10042000BCDF8078D9F74A9589F70895AC0188E652
:10043000A6DF842FA4DF89E6A2DF852FA0DF089541
:10044000BA01A901DACFBA01A901DFCFCF93DF93B7
:1004500060913701635067FD91C080913301CCE01A
:10046000D0E0C81BD109C55CDE4F809132018D32CE
:1004700009F0C2C0683009F07FC083EC8093260188
:100480008AE580933401109204018881807679F0A6
:10049000CE010E9420068F3F09F466C09F81911112
:1004A00069C09E81981708F065C0892F63C02A81B2
:1004B00010922F01998191110AC0109230012FE200
:1004C00031E082E03093360120933501E7CF95305B
:1004D00029F4209338012FE231E0F4CF963099F5DA
:1004E0009B81913059F48AE790E090933601809394
:1004F000350182E190E490930401D0CF923019F459
:1005000088E690E0F2CF9330A9F7211108C086EB7E
:1005100090E0909336018093350184E0EBCF213059
:1005200041F48AE990E090933601809335018CE1A3
:10053000E1CF2230F9F68CE890E090933601809379
:1005400035018EE0D7CF983059F0993019F42093C7
:100550003A01C1CF81E09A3009F4BDCF80E0BBCF32
:100560002AE331E081E0AECF988197FD8E8190E85B
:10057000909304018093050110923701809134011A
:1005800084FF2DC0C0910501CF3F49F16C2FC930C8
:1005900008F068E08C2F861B80930501809126016E
:1005A00098E8892780932601CC2361F020910401EB
:1005B00027FF35C087E291E00E946708C82F893085
:1005C00008F054C06C2F87E291E00E949E00CC5F3F
:1005D000CC3019F08FEF80930501C093340184E192
:1005E00099B1947831F48150D9F710923801109272
:1005F0003101DF91CF9108958091040187FFBCCF35
:10060000CE010E94E7098F3F21F48EE180933401EF
:10061000B3CF882309F4B0CF10920501ADCF8091FC
:1006200035019091360126FF17C0FC01A7E2B1E029
:10063000262F280F34913D9331962E13FBCF2FEFA9
:10064000260F30E02F5F3F4F820F931F90933601AC
:1006500080933501C62FB6CFA7E2B1E0FC01262F6B
:10066000280F31913D932E13FCCFE9CF8FEF80936C
:100670000501CEE1B2CF8AE5809334018FEF8093FC
:100680000501E9E6F0E0808182608083E89A0895C0
:100690008EBD0DB407FEFDCF8EB508958091070184
:1006A0008CBD809106018DBD089584B18C6284B9A2
:1006B00024988091090190910A018854934011F483
:1006C0000E944E038FEF809300010895811105C0B1
:1006D00080910101811101C08DE09FEF980F9D3045
:1006E00008F08DE080931C0198EF980F9630D8F4B5
:1006F00028E433E030930A012093090191E09093BC
:100700000801EDE0E81B8E2F90E0FC01E054FF4F64
:10071000E491E0930701FC01E654FF4FE491E0937C
:1007200006010C944E0308950F931F93CF93DF930C
:10073000C82F0E94660311E0DFE3C83010F41FE009
:10074000DAEFC3E02A9A812F0E94A3052A988D2F01
:100750000E94A305E0910901F0910A018CEA099534
:10076000E0910901F0910A0183E50995E091090101
:10077000F0910A0180E00995082FE0910901F091BC
:100780000A0180E00995033511F4882331F083E0F4
:100790000E94A305C150B1F681E0DF91CF911F9176
:1007A0000F91089526B59091080186B5821B89178F
:1007B000E0F308950E9455032A982D9881E00E9445
:1007C000A3052A9A81E00E94A3052A9808950E9411
:1007D00055032A9A08952A9A81E00E94A30584B1BC
:1007E000837D84B985B1837D85B91CBC10921C01C1
:1007F00008950F931F93CF93DF9380910C0188236B
:1008000079F080911C010E949403811121C0909184
:100810001C0190930101DF91CF911F910F910895D9
:1008200080910101811109C0C0E00C2F10E00A5332
:100830001F4FCD30F1F481E0EECF0E94940381117F
:1008400005C09091010190931C01E5CF1092010128
:1008500080910C01882341F380911C01E6ECF0E0CB
:10086000C0E09491CF5F891701F33196CD30C9F77D
:10087000DBCFF801D4918D2F0E9494030F5F1F4F9F
:10088000811105C0D0931C01D0930101C4CFCF5F6B
:10089000D0CFCF9390910B01992309F1C82FC69522
:1008A000809100018C17D9F0C0930001E0910901FB
:1008B000F0910A018DE40995E0910901F0910A0196
:1008C00080E00995E0910901F0910A018C2F0995CA
:1008D000E0910901F0910A0180E0CF910994CF9154
:1008E0000895CF92DF92EF92FF926B017C01862FE9
:1008F000880F880F880F8870E0910901F0910A0134
:1009000080620995D701C60129E0B695A79597950C
:1009100087952A95D1F7E0910901F0910A0109958F
:10092000D701C601B695A79597958795E0910901DE
:10093000F0910A010995E0910901F0910A0180E026
:10094000FF90EF90DF90CF900994CF92DF92EF92DB
:10095000FF92CF93DF936B017C01D42FC22F862FA0
:10096000880F880F880F8870E0910901F0910A01C3
:1009700080640995D701C60129E0B695A79597959A
:1009800087952A95D1F7E0910901F0910A0109951F
:10099000D701C601B695A79597958795E09109016E
:1009A000F0910A010995E0910901F0910A018D2F5A
:1009B0000995C11108C080E0DF91CF91FF90EF90C1
:1009C000DF90CF900895C701B6010E947104C0E185
:1009D0008D1789F381E00E94A305C701B6010E942B
:1009E00071048D1741F3C15011F481E0E5CFCB3094
:1009F00088F784E0C83078F382E0EDCFCF92DF92C1
:100A0000EF92FF92CF936B017C01E0910901F0918D
:100A10000A018CE40995D701C60129E0B695A7958E
:100A2000979587952A95D1F7E0910901F0910A01F0
:100A30000995D701C601B695A79597958795E09139
:100A40000901F0910A010995E0910901F0910A016B
:100A500080E00995C9E181E00E94A305C701B601C4
:100A60000E9471048F3F81F4C15039F481E0CF912D
:100A7000FF90EF90DF90CF900895C03160F784E051
:100A8000C63050F382E0E8CF80E0F1CFCF93DF9320
:100A9000EC01E0910901F0910A0180EA0995E091E9
:100AA0000901F0910A018D2F0995E0910901F0915A
:100AB0000A018C2F0995E0910901F0910A0180E06B
:100AC000DF91CF9109940F931F93CF93DF93182F4A
:100AD000092FD62FE0910901F0910A0180EC0995C8
:100AE000E0910901F0910A01802F0995E091090137
:100AF000F0910A01812F0995E0910901F0910A0115
:100B00008D2F0995812F902F0E944605C6E08D13E9
:100B100018C080E0DF91CF911F910F910895C530EB
:100B200081F084E0C33008F082E00E94A305812FA9
:100B3000902F0E9446058D1761F3C15081F781E027
:100B4000E9CF81E0F2CF26B596B5921B9035E0F360
:100B50008150C9F70895262F30910B0131110FC034
:100B6000FC0142815381052E000C660B770B4093EC
:100B700018015093190160931A0170931B01FC0135
:100B800086819781909317018093160120931D0110
:100B90000895FC0182819381909313018093120147
:100BA00084818093140185818093110186819781CE
:100BB00090931701809316011092100160931D010C
:100BC00008950F931F93CF93DF93EB018A010E9447
:100BD00016020C0F1D1FC017D10729F4DF91CF910A
:100BE0001F910F91089584E20E94BF010E94CD01E0
:100BF0008993F1CF0F931F93CF93DF93EB018A017A
:100C00000E9416020C0F1D1FC017D10729F4DF9197
:100C1000CF911F910F91089583EF0E94BF018DE145
:100C20000E94BF0184E60E94BF0189910E94BF011A
:100C300082E70E94BF010E94CD0187FDF9CFE4CF7A
:100C4000EF92FF920F931F93CF93DF938C01EEE10E
:100C5000F1E088E0DF011D928A95E9F7F801C18192
:100C6000C13029F580911C010E94660310920B018E
:100C700040980E94DA030E94F90380930D018823B3
:100C800021F00E94EB031092010180910D018093ED
:100C90001E018EE191E090933601809335018C2FF7
:100CA000DF91CF911F910F91FF90EF900895C23384
:100CB00049F480911C010E94660340980E94E7035A
:100CC000C0E0E7CFC33371F42A9882818093020198
:100CD000868197819093170180931601C0931D011F
:100CE000CFEFD7CFC43371F42A9882818093020169
:100CF00086819781909317018093160182E38093F8
:100D00001D01EECFC63421F440980E94300CD8CF9C
:100D1000C93419F40E94350CD3CFCA3419F40E9497
:100D20004A0CCECFCC3431F482810E945F0C809388
:100D30001E016EC0CB3421F482810E94900CF7CF4B
:100D4000C73429F50E94350C60E0D80112968C91C9
:100D50000E94BE0CF801858180FF03C084810E943F
:100D60005F0CD80113968C910E945F0C0E94350C89
:100D700061E0F80182810E94BE0CD80116968D9127
:100D80009C91909317018093160186E3B8CFC834E5
:100D900021F50E94350C60E0F80182810E94BE0CB2
:100DA000D80115968C911597C82F80FF04C0149612
:100DB0008C910E945F0CF80183810E945F0CC695A4
:100DC000C170C0935401D80116968D919C91909357
:100DD00017018093160185E392CFCD3429F48281E7
:100DE00087FF16C081E0A3CF6AE3CD3519F0CC357B
:100DF00029F469E3C8010E94C90572CFCE3551F4C8
:100E00000E941E0D91E0811101C090E090931E019F
:100E1000C1E03FCFCF3519F40E94310D88CFCA35DC
:100E2000A1F540980E94D10CF80182819381A481A0
:100E3000B5818093180190931901A0931A01B09382
:100E40001B0166816F710E94DB0CD8011696CC9154
:100E50001697C295C695C7701696CC938EE1E82E6C
:100E600081E0F82E10E0C11711F0143039F40E941F
:100E7000D80CC53008F40DCFC4E00BCF0E94050D8F
:100E8000F70181937F011F5FEECFC23029F40E94EA
:100E9000EB03419A409A14CFC33089F5E0910901E0
:100EA000F0910A01D80112968C91099580931E0148
:100EB000E0910901F0910A01D80113968C910995EE
:100EC00080931F01E0910901F0910A01D801149665
:100ED0008C91099580932001E0910901F0910A011C
:100EE000D80115968C9109958093210110922201C9
:100EF000109223011092240110922501BDCFC5301C
:100F000019F40E94F90313CF62E0C43009F4CEC093
:100F100063E0C73009F4CAC0C63041F580910B01C7
:100F200081110EC082819381092E000CAA0BBB0B8C
:100F30008093180190931901A0931A01B0931B019B
:100F4000D80114968C91149715969C9115978093BF
:100F50000E0190930F018093150116968D919C912F
:100F6000909317018093160181E0C9CEC83001F536
:100F700080910B0181110EC082819381092E000C9A
:100F8000AA0BBB0B8093180190931901A0931A012F
:100F9000B0931B0110920F0110920E01D80116960A
:100FA0008D919C91909317018093160184E0A7CEB8
:100FB000C930A1F481E080930B0162817381848147
:100FC0009581609318017093190180931A01909391
:100FD0001B010E94490410921E011ACFCA3061F40D
:100FE000828180931C01811103C010920C0110CFEB
:100FF00081E080930C010CCFC131B1F480911C01D0
:1010000080931F018091010180932001809108014C
:1010100080932101809100018093220180911D0124
:1010200080932301C6E035CECB30A9F48281938131
:10103000909353018093520110920B012A9A229AA5
:1010400083E00E94A3052A98409880E10E94A305AE
:101050000E94B60135CECC30C1F480EC0E94BF01B5
:1010600080E00E94BF018AE00E94A3052A9A85E0E1
:101070000E94A3052A9885E00E94A30584B1837D80
:1010800084B985B1837D85B904CFCD3019F40E9430
:10109000CD014DCECE3021F482810E94BF019BCF85
:1010A00065E0CF3019F0C03129F466E0C8010E9434
:1010B000AB0516CECF3709F003CE83E180931E0136
:1010C00081E880931F018FEC80932101D5CE8F9210
:1010D0009F92AF92BF92CF92DF92EF92FF920F93C7
:1010E0001F93CF93DF93D82FB92EC62F80911D0168
:1010F0009EEF980F923048F0853039F0833329F015
:10110000893319F0863309F051C18091160190910D
:101110001701C817190611F008F0C82F41988091DF
:101120001D01853071F50C2F10E0A8016D2F7B2D6E
:1011300080911801909119010E94E1058091180198
:1011400090911901A0911A01B0911B018C0F911D72
:10115000A11DB11D8093180190931901A0931A014C
:10116000B0931B018091160190911701801B910B88
:101170009093170180931601892B11F510921D0190
:101180001FC0833301F58D2F2B2D082F122FE091D7
:101190000901F0910A0180E00995F80181938F011E
:1011A0008E2F212F9D2F9E1B9C0F79F7809116016A
:1011B000909117018C1B9109909317018093160150
:1011C000419A409AF6C0863331F50D2F1B2D2091A0
:1011D00016013091170121503109309317012093E6
:1011E00016017801FFEFEF1AFF0A81E0232B09F0C7
:1011F00080E00E94900CF801808387018D2F8E196A
:101200008C0F29F78091160190911701892BC1F657
:101210000E944A0CB3CF893309F050C0809110016D
:10122000811129C02091140182E0820F01E010E0B9
:1012300002C0000F111F8A95E2F780911201909170
:101240001301082B192B80911101837090E002C0CB
:10125000880F991F2A95E2F7082B192B0E94D10CB1
:10126000609114016D5FC8010E94DB0C0E94580D53
:1012700081E0809310018D2F2B2D082F122F0E94BB
:10128000050DF80181938F018E2F212F9D2F9E1B1D
:101290009C0F99F780911601909117018C1B910971
:1012A0009093170180931601892B09F089CF0E9432
:1012B000D80C10921D011092100182CF823009F0DB
:1012C00045C0C0901801D0901901E0901A01F0902B
:1012D0001B01C701B6010E9449042D2F9B2D460119
:1012E0005701022F192FC501B4010E947104F801A2
:1012F00081938F01FFEF8F1A9F0AAF0ABF0A8114F3
:10130000910421F4C501B4010E944904202F912FBA
:101310008D2F801B8C0F29F78FEFC81AD80AE80A87
:10132000F80A8FEF8C0FC80ED11CE11CF11CC09283
:101330001801D0921901E0921A01F0921B018091DC
:101340001601909117018C1B910912CF833071F512
:1013500040911801509119019D2F3B2D7A01EFEF1B
:10136000EE1AFE0A092F132FCA010E944605F80142
:1013700081938F01A7019E2F312F2D2F2E1B2C0F14
:1013800069F78091180190911901A0911A01B0910B
:101390001B018C0F911DA11DB11D8093180190930D
:1013A0001901A0931A01B0931B01C9CF419A409A29
:1013B000CFEF8C2FDF91CF911F910F91FF90EF9086
:1013C000DF90CF90BF90AF909F908F9008954F92F5
:1013D0005F926F927F928F929F92AF92BF92EF92A5
:1013E000FF920F931F93CF93DF93182F092FD62FC0
:1013F00080911D01882309F4E1C1813059F0982FB3
:101400009D7F943039F0982F977F923319F0853370
:1014100009F0D4C18091160190911701D8171906CF
:1014200011F008F0D82F4198C0911D01C630F1F598
:10143000ED2EF12CA701612F702F80911801909152
:1014400019010E94FA058091180190911901A0914B
:101450001A01B0911B018D0F911DA11DB11D80932B
:10146000180190931901A0931A01B0931B01809168
:101470001601909117018E199F099093170180937F
:101480001601892BB9F1C0E0419A409A8C2FDF9167
:10149000CF911F910F91FF90EF90BF90AF909F90D1
:1014A0008F907F906F905F904F900895C23331F589
:1014B000812F202FE82EF22EE0910901F0910A01F0
:1014C000D7018D917D0109958E2D2F2D912F9E197C
:1014D0009D0F81F780911601909117018D1B910945
:1014E0009093170180931601892B69F68091020170
:1014F00081112A9A10921D01C1E0C6CFC53319F59A
:10150000812F202FE82EF22EF70181917F010E947A
:101510005F0C8E2D2F2D912F9E199D0F99F7809185
:101520001601909117018D1B9109909317018093DB
:101530001601892B09F0A7CF809154018823D1F29D
:101540000E944A0CD7CFCA3309F051C080911001D4
:10155000811128C02091140182E0820FEE24E394CF
:10156000F12C02C0EE0CFF1C8A95E2F7809112016B
:1015700090911301E82AF92A80911101837090E07B
:1015800002C0880F991F2A95E2F7E82AF92A0E94DB
:10159000D10C609114016D5FC7010E94DB0C81E0EA
:1015A00080931001812F202FE82EF22ED7018D91EC
:1015B0007D0168E090E00E94DB0C8E2D2F2D912F95
:1015C0009E199D0F89F780911601909117018D1B2F
:1015D00091099093170180931601892B09F053CF3D
:1015E0000E94D80C10921D011092100185CFC130BD
:1015F00009F0ADC08090180190901901A0901A01D7
:10160000B0901B01C501B4010E944904E12EF02EE7
:101610001D0FF70141917F0180910E0190910F0103
:10162000892BB9F421E0C501B4010E94A5048823E7
:1016300009F444C010921D01809218019092190182
:10164000A0921A01B0921B01CBEF1ECF53014201B1
:10165000E0CF20E0C501B4010E94A5048111EACFCA
:1016600080911501815080931501811127C08091CF
:101670000E0190910F01B0E0A0E09C01AD01662742
:101680007727CB01621B730B840B950B68217921A3
:101690008A219B210E94FE04882361F010921D0183
:1016A0008092180190921901A0921A01B0921B0128
:1016B000CAEFEACE80910E01809315012401350115
:1016C0003FEF431A530A630A730A4114510421F489
:1016D000C301B2010E9449041E11B8CF4092180103
:1016E0005092190160921A0170921B0180911601AB
:1016F000909117018D1B910990931701809316010A
:10170000892B09F0C0CE10921D0160910E017091DD
:101710000F016115710509F4B7CE80911501861787
:10172000170609F4B1CEB0E0A0E09B01AD01662739
:101730007727CB01621B730B840B950B68217921F2
:101740008A219B210E94FE048111B2CF9DCEC4301C
:1017500099F5812F202FE82EF22ED7016D917D0172
:1017600080911801909119010E946305882321F04E
:1017700010921D01CCEF88CE809118019091190133
:10178000A0911A01B0911B010196A11DB11D80937A
:10179000180190931901A0931A01B0931B018E2D8B
:1017A0002F2D912F9E199D0FB1F6809116019091CA
:1017B00017018D1B910961CECFEF66CECFEF66CEBC
:1017C000A0E8B0E01C92E1E8F0E01082808188603F
:1017D000808380818260808388EE93E0909389008B
:1017E000809388008C9180648C9308951BB88BB192
:1017F0008B778BB98AB184688AB92FEF30E782E0A2
:10180000215030408040E1F700C000008AB18B7762
:101810008AB914B8219A93E097B93A9888B18C6341
:1018200088B940982FEF31EE84E02150304080405D
:10183000E1F700C00000409A41982FEF31EE84E0BC
:10184000215030408040E1F700C00000419A95BD32
:101850000E94E00B0E943B0378940E942602FDCF79
:1018600024982C9A23982B9A089524982C9A23989C
:101870002B9A85E18A95F1F70000249A2C9885E14E
:101880008A95F1F70000239A2B9885E18A95F1F764
:1018900000000895239A2B98249A2C988AE08A9520
:1018A000F1F700C023982B9A8AE08A95F1F700C0DF
:1018B00024982C9A85E18A95F1F70000089598E024
:1018C000239A2B982AE02A95F1F700C087FF25C0BC
:1018D00024982C9A2AE02A95F1F700C023982B9A95
:1018E00025E12A95F1F70000880F915049F7239AD6
:1018F0002B9824982C9A8AE08A95F1F700C02398B7
:101900002B9A25E12A95F1F7000083B1239A2B98B1
:1019100082958F70809581700895249A2C98DACFE3
:10192000282F24982C9A98E080E0239A2B9835E170
:101930003A95F1F7000023982B9A35E13A95F1F7A3
:101940000000880F1C998160915079F7239A2B9899
:10195000211111C0249A2C989AE09A95F1F700C0B1
:1019600023982B9A3AE03A95F1F700C0239A2B98E6
:1019700024982C9A089524982C9AEECF880F6130E1
:1019800009F481600C945F0C2D9A08952D980895A8
:1019900084B18C6284B924980E94C60C2B982A9832
:1019A00008952A982D980E94D2032A9A0C94D20363
:1019B0002A980C94C60C0F931F93CF93DF938C013E
:1019C0006150770BC1E0D0E002C0CC0FDD1F6A95FB
:1019D000E2F7209729F4DF91CF911F910F9108959D
:1019E0000E94C60CCE0180239123892B61F02B9A93
:1019F0000E94D2030E94C40C0E94D2030E94C60C13
:101A0000D695C795E6CF2B98F3CFCF93DF93D8E049
:101A1000C0E00E94C60C0E94D2030E94C40C83B195
:101A200082958170CC0FC82B0E94D2030E94C60CF5
:101A3000D15079F78C2FDF91CF910895CF930E94E9
:101A4000C80C2A9A85E38A95F1F700000E94D20318
:101A5000C3B10E94D80CC295C17081E08C27CF9190
:101A60000895CF930E94C80C2A9A85E38A95F1F7CE
:101A7000000068E080EC90E00E94DB0CC0E00E9477
:101A8000C60C0E94D2030E94C40C0E94D2031C996F
:101A900008C0CA5F0E94C60C0E94D80C8C2FCF9140
:101AA00008950E94C60CCF5FC73049F7CFEFF4CF3F
:101AB0000E94C60C0E94D2030E94C40C0E94D20352
:0A1AC00083B10C94C60CF894FFCF1C
:041ACA00FF0D01000B
:00000001FF
