:100000000C9464000C949C000C9481000C9481006E
:100010000C9481000C9481000C9481000C9481005C
:100020000C9481000C9481000C9481000C9481004C
:100030000C9481000C9481000C9481000C9481003C
:100040000C9481000C9481000C9481000C9481002C
:100050000C9481000C9481000C9481000C9481001C
:100060000C9481000C94810009021200010100A08F
:100070001909040000000000000012011001FF0037
:100080000008C016DC050701010200010E0355003F
:10009000530042006100730070001C03770077007A
:1000A00077002E00660069007300630068006C0032
:1000B0002E0064006500040309040D0C0B0A0908F6
:1000C000070605040302010011241FBECFEFD8E08C
:1000D000DEBFCDBF11E0A0E0B1E0E8E8FCE102C086
:1000E00005900D92A630B107D9F721E0A6E0B1E066
:1000F00001C01D92A435B207E1F70E94B30C0C9425
:10010000420E0C940000A82FB92F80E090E041E04F
:1001100050EA609530E009C02D9182279795879528
:1001200010F084279527305EC8F36F5FA8F3089519
:10013000EADF8D939D930895CF93CFB7CF93DF934D
:10014000C3954F9BE9F74F9B0BC04F9B09C04F9B3B
:1001500007C04F9B05C04F9B03C04F9B01C089C088
:100160006F93C0913001DD27C85CDE4F2F9365E5AA
:100170004F9B03C02F916F91E6CF0F931F934F9327
:1001800020E040E15F9309B1047807FB27F93F9332
:1001900050E03BE039C0147840642F77012F5F5F57
:1001A0001EC0406819B114782F7752501FC04064A8
:1001B00009B12F770478D1F15F5F00C023C040629E
:1001C00019B12F77147891F15F5F00C025C00478D2
:1001D0001027515012F45D5F0000115027952C3FFD
:1001E00019B1C8F614780127015027952C3FC8F69D
:1001F0004227499309B1047810274F73115027956E
:100200002C3FA8F64695469519B1147879F0012748
:10021000015027952C3F98F66B5A60F3315009B185
:10022000B0F600C011E01CBB002717C03B50319551
:10023000C31BD04011E01CBB0881033CF9F00B3418
:10024000E9F020912E011981110F1213EDCF09361B
:1002500051F10D3211F0013E39F7009336013F9113
:100260005F914F911F910F912F916F91CCB3C0FD72
:1002700067CFDF91CF91CFBFCF91189520913601F5
:10028000222369F310913401112339F534303AF106
:100290003093340120932F01109130013BE0311B4A
:1002A000309330011CC0009134010130B4F40AE5F0
:1002B0003091310134FD14C000933101C3E2D1E02B
:1002C00013C0052710E000C000000BB91AC00527B5
:1002D00010E0221F1DC010E021C04AE502C032ED2F
:1002E000432FC4E1D0E032E01AB114685F9A0BB139
:1002F0001AB954E820E865E320FF05270BB92795D4
:1003000017951C3FF0F66695B8F7B1F720FF052763
:100310000BB9279517951C3FD0F62795179517FF12
:10032000052700001C3F0BB9B0F629913A9519F743
:100330000B7710913501110FC651D0400BB911F058
:1003400010932E0111E01CBB00681AB11B77402FDF
:100350004B7754E05A95F1F70BB91AB94BB97FCFE7
:10036000259A23982B9A50E219D05A95E9F70895C7
:10037000AC0188E606D0842F04D089E602D0852F10
:1003800000C010D028E030E0382780FB869507D0E9
:100390002A95D1F730FB03D001D0089568942398B3
:1003A0002B9A16F02B98239AE0915201F091530169
:1003B0003197F0F72D9AE3B1E3FBE0915201F09110
:1003C00053013197F0F72D98089520ECE7DF46F4BC
:1003D0002A95E1F780E02AE1E5DF2A95E9F7DECF0B
:1003E00028E030E0DBDF869587F938272A95D1F7BA
:1003F000D5DF27F9322772F3D1DFD0CFDB01742F9D
:10040000B7DF84E2BEDFE1DF8D937A95D1F70895FF
:10041000DB01742FADDF83EFB4DF8DE1B2DF84E663
:10042000B0DF8D91AEDF82E7ACDFCFDF8078D9F728
:100430007A9589F70895CF93DF93609134016350E3
:1004400067FD91C080913001CCE0D0E0C81BD1099C
:10045000C85CDE4F80912F018D3209F0C2C0683038
:1004600009F07FC083EC809323018AE580933101FA
:10047000109206018881807679F0CE010E944006B4
:100480008F3F09F466C09F81911169C09E819817C2
:1004900008F065C0892F63C02A8110922C019981D0
:1004A00091110AC010922D012CE231E082E03093CC
:1004B000330120933201E7CF953029F420933501A1
:1004C0002CE231E0F4CF963099F59B81913059F4CC
:1004D0008AE790E0909333018093320182E190E4C7
:1004E00090930601D0CF923019F488E690E0F2CFD5
:1004F0009330A9F7211108C086EB90E09093330167
:100500008093320184E0EBCF213041F48AE990E01E
:1005100090933301809332018CE1E1CF2230F9F6E0
:100520008CE890E090933301809332018EE0D7CF36
:10053000983059F0993019F420933701C1CF81E0F8
:100540009A3009F4BDCF80E0BBCF27E331E081E0F2
:10055000AECF988197FD8E8190E8909306018093AD
:100560000701109234018091310184FF2DC0C091A8
:100570000701CF3F49F16C2FC93008F068E08C2F9C
:10058000861B809307018091230198E88927809337
:100590002301CC2361F02091060127FF35C084E2BE
:1005A00091E00E94B508C82F893008F054C06C2F24
:1005B00084E291E00E949800CC5FCC3019F08FEF7C
:1005C00080930701C093310184E199B1947831F4AB
:1005D0008150D9F71092350110922E01DF91CF9101
:1005E00008958091060187FFBCCFCE010E94230AA7
:1005F0008F3F21F48EE180933101B3CF882309F43A
:10060000B0CF10920701ADCF8091320190913301AC
:1006100026FF17C0FC01A4E2B1E0262F280F349179
:100620003D9331962E13FBCF2FEF260F30E02F5F37
:100630003F4F820F931F9093330180933201C62F57
:10064000B6CFA4E2B1E0FC01262F280F31913D93F3
:100650002E13FCCFE9CF8FEF80930701CEE1B2CF0D
:100660008AE5809331018FEF80930701E9E6F0E09E
:10067000808182608083E89A08958EBD0DB407FE64
:10068000FDCF8EB50895DC01CB0121E1B695A7958C
:10069000979587952A95D1F7209100012817D9F0D1
:1006A00080930001E0910901F0910A018DE4099520
:1006B000E0910901F0910A0180E00995E0910901BA
:1006C000F0910A01809100010995E0910901F091F2
:1006D0000A0180E00994089580914F018CBD8091BA
:1006E0004E018DBD08958823B1F0883050F12DE37F
:1006F00033E030930A012093090110924E0191E0FA
:10070000909350018A30B9F040F48830C1F08930BC
:10071000A1F081E507C08BE0EACF8C3031F08D305D
:10072000C1F780E580934F01089581E580934F01E3
:1007300090934E01089582E5F9CF82E5F3CF83E5EA
:10074000F1CF2CE034E030930A012093090184308A
:10075000A1F030F48230A9F0833089F08AEF06C02E
:10076000863039F040F08730C9F784E0809350013B
:10077000089588E0FBCF80E1F9CF8FE1F7CF8FE3D9
:10078000F5CF8DE7F3CF0F931F93CF93DF93C82F50
:100790000E94730311E0DFE3C83010F41FE0DAEFCA
:1007A000C3E02A9A812F0E94F4052A988D2F0E9477
:1007B000F405E0910901F0910A018CEA0995E091B4
:1007C0000901F0910A0183E50995E0910901F09191
:1007D0000A0180E00995082FE0910901F0910A01D2
:1007E00080E00995033511F4882349F08FE19EE4F8
:1007F0000197F1F700C00000C15099F681E0DF9148
:10080000CF911F910F91089526B59091500186B513
:10081000821B8917E0F308951F93CF93DF93182F5E
:100820002D98D8E0C0E017FF16C02B9A110F0E9438
:1008300004042D9A0E94040483B182958170CC0F28
:10084000C82B2D980E940404D15069F78C2FDF919A
:10085000CF911F9108952B98E9CF84B18C6284B910
:1008600024982A982D9881E00E94F4052A9A81E024
:100870000E94F4052A988091090190910A018D53F4
:10088000934011F40E946C038FEF80930001089550
:1008900084B18C6284B98091090190910A018D53D1
:1008A000934011F40E946C038FEF809300012A9A09
:1008B000089584B1837D84B985B1837D85B9109213
:1008C00019010895CF93C82F809101018C1759F019
:1008D0008FEF8C0F8D3038F46C2F80E190E00E9408
:1008E000300EC0930101CF910895FF920F931F9393
:1008F000CF93DF9380910801882391F00E94C30376
:10090000C82F81110BC080910801809319018C2F91
:10091000DF91CF911F910F91FF90089510920801E0
:1009200080911901882339F0DF91CF911F910F91A8
:10093000FF900C94C3030AEB10E08DE0F82EF00E4C
:10094000F801D4918D2F0E94C303C82F811108C0D4
:10095000D0931901D09308018D2F0E946204D7CF44
:100960000F5F1F4FF012ECCF109219018AE00E9426
:100970007303C1E0CCCFCF92DF92EF92FF926B0175
:100980007C01DC01CB0112970097A640B10518F459
:10099000C7010E9443038C2D880F880F880F887031
:1009A000E0910901F0910A0180620995D701C60121
:1009B00029E0B695A795979587952A95D1F7E09167
:1009C0000901F0910A010995D701C601B695A795CD
:1009D00097958795E0910901F0910A010995E091B9
:1009E0000901F0910A0180E0FF90EF90DF90CF9035
:1009F0000994CF92DF92EF92FF92CF93DF936B0136
:100A00007C01D42FC22FDC01CB0112970097A640A6
:100A1000B10518F4C7010E9443038C2D880F880F7D
:100A2000880F8870E0910901F0910A0180640995AE
:100A3000E0910901F0910A01D701C60129E0B695BC
:100A4000A795979587952A95D1F70995E091090182
:100A5000F0910A01D701C601B695A795979587959C
:100A60000995E0910901F0910A018D2F0995C111B5
:100A700008C080E0DF91CF91FF90EF90DF90CF90A2
:100A80000895DF3F71F0CEE181E00E94F405C701D7
:100A9000B6010E94BB048D1761F3C15049F481E097
:100AA000E9CFC701B6010E94BB048F3F61F7E1CFD8
:100AB000C53150F784E0CB3040F382E0E6CFCF92EF
:100AC000DF92EF92FF92CF936B017C01DC01CB01AF
:100AD00012970097A640B10518F4C7010E9443037E
:100AE000E0910901F0910A018CE40995E091090176
:100AF000F0910A01D701C60129E0B695A79597950F
:100B000087952A95D1F70995E0910901F0910A019D
:100B1000D701C601B695A795979587950995E09158
:100B20000901F0910A0180E00995C9E181E00E9484
:100B3000F405C701B6010E94BB048F3F81F4C15088
:100B400039F481E0CF91FF90EF90DF90CF9008953E
:100B5000C03160F784E0C63050F382E0E8CF80E037
:100B6000F1CFCF93DF93EC01E0910901F0910A01FD
:100B700080EA0995E0910901F0910A018D2F09950C
:100B8000E0910901F0910A018C2F0995E09109018A
:100B9000F0910A0180E0DF91CF9109941F93CF93E8
:100BA000DF93D82F192FC62FE0910901F0910A0188
:100BB00080EC0995E0910901F0910A01812F0995D6
:100BC000E0910901F0910A018D2F0995E091090149
:100BD000F0910A018C2F09958BE00E94F40580E0CA
:100BE000DF91CF911F91089526B596B5921B903550
:100BF000E0F38150C9F70895262FFC01428153810B
:100C0000052E000C660B770B4093140150931501D1
:100C10006093160170931701868197819093130159
:100C20008093120120931A0108950F931F93522F5E
:100C30002091180121110FC0FC0102811381012EA6
:100C4000000C220B330B0093140110931501209319
:100C5000160130931701242F30E030930F012093B9
:100C60000E0150FD40931101FC0186819781909304
:100C700013018093120160931A011F910F9108953F
:100C8000CF92DF92EF92FF920F931F93CF938C013D
:100C9000DC011196CC911197C130F1F480911901CA
:100CA0000E9473031092180140980E942D040E9424
:100CB000750480930D01882321F00E94590410923D
:100CC000080180910D0180931B018BE191E09093CD
:100CD0003301809332018BC0C23349F480911901F2
:100CE0000E94730340980E944804C0E0EECFC333D3
:100CF00079F42A98FC01828180930401868197818E
:100D00009093130180931201C0931A01CFEFDDCFAE
:100D1000C43389F42A9812968C9112978093040117
:100D200016968D919C91909313018093120182E30A
:100D300080931A01EBCFC63421F440980E94ED0C49
:100D4000D4CFC73419F40E94F20CCFCFC83419F4B1
:100D50000E94070DCACFCA3441F4FC0182810E946F
:100D60001C0D80931B01C1E0B0CFCB3429F4129647
:100D70008C910E944D0DF5CFCC3409F078C0FC0168
:100D8000838191E0811101C090E090930C01D80122
:100D900012969C91129790930301882309F45FC0E7
:100DA000823071F51496CD90DC900D2C000CEE087D
:100DB000FF08C0921401D0921501E0921601F09242
:100DC00017010E94F20CC0910301C114D104F1E09B
:100DD000EF06F10408F0CE608C2F0E941C0D8823D2
:100DE000D1F00E94070D8EEF80931B01C1E08C2F84
:100DF000CF911F910F91FF90EF90DF90CF900895CA
:100E0000C12CD12C76018130A1F6F801C480D12CFF
:100E1000F12CE12CCECFC114D10481E0E806F1041D
:100E200020F08D2D0E941C0D07C0AFEFCA16D10413
:100E3000E104F10409F0A8F78C2D0E941C0D0E941A
:100E4000F20C8C2F81600E941C0DD80116968D919A
:100E50009C91909313018093120186E369CF0E94C5
:100E6000F20C61E0F80182810E947B0DEECFCD345F
:100E7000E1F5FC01938181E0911101C080E0809354
:100E80000C01D80112968C9112978093030114964D
:100E90008C91149780930201992381F09230D9F4B8
:100EA00015969C91092E000CAA0BBB0B8093140184
:100EB00090931501A0931601B0931701F801868154
:100EC0009781909313018093120185E380931A0117
:100ED00010920B011BCF913021F490E0B0E0A0E024
:100EE000E5CF80E090E0DC01E1CFCD3571F41496E0
:100EF0008C9114978093100116968D919C919093EC
:100F00001301809312018AE313CFCC3561F4FC0105
:100F1000848180931001868197819093130180933F
:100F2000120189E305CFCE3549F40E94D60DC82FB2
:100F3000813009F0BAC080931B01C7CECF3519F4B8
:100F40000E94E90D0ECFCA3509F047C040980E94B3
:100F50008C0DD80112968C91129713963C91139791
:100F600014962C91149715969C91159780931401C3
:100F700030931501209316019093170116966C91EA
:100F80006F710E949D0DF80186818295869587700C
:100F900086838823A9F00E94BE0D80931B01D8018F
:100FA00016968C91823020F00E94BE0D80931C0119
:100FB000F8018681833020F00E94BE0D80931D01D0
:100FC000D80116968C91843020F00E94BE0D80933B
:100FD0001E010E949A0DC4E078CEC23029F40E940E
:100FE0005904419A409A81CEC33041F5E0910901FC
:100FF000F0910A0112968C91099580931B01E09162
:101000000901F0910A01D80113968C9109958093FA
:101010001C01E0910901F0910A01D80114968C910C
:10102000099580931D01E0910901F0910A01D80111
:1010300015968C91099580931E01CDCF62E0C43046
:1010400009F482C063E0C73009F47EC0C53019F4EA
:101050000E94750486CEC63049F4FC0125812F70AC
:10106000448161E0C8010E94150650CEC83021F4C9
:1010700020E040E064E0F6CFC93089F481E080935D
:101080001801F80182819381A481B58180931401B4
:1010900090931501A0931601B093170126CECA3084
:1010A00039F412968C918093190110921B015BCE3A
:1010B000C43141F410921B018091190180931C01ED
:1010C000C2E003CECB30A1F4FC01828193819093E6
:1010D0005301809352012A9A229A83E00E94F405D8
:1010E0002A98409880E10E94F4050E94B001FDCD4D
:1010F000CC30C1F480EC0E94C10180E00E94C101AB
:101100008AE00E94F4052A9A85E00E94F4052A9854
:1011100085E00E94F40584B1837D84B985B1837D27
:1011200085B9E3CDCD3019F40E94E5011ACECE3059
:1011300029F412968C910E94C101B7CF65E0CF309F
:1011400019F0C03129F466E0C8010E94FC05DECD2B
:10115000CF3709F0CACD89E180931B0181E88093E4
:101160001C0110921D018FE066CFAF92BF92CF920B
:10117000DF92EF92FF920F931F93CF93DF93EC01D7
:1011800080911A019EEF980F923048F0853039F027
:10119000833329F0893319F0863309F050C170E0A8
:1011A00000911201109113016017710708F48B016F
:1011B000F02E419880911A01853061F5402FBE01D3
:1011C00080911401909115010E94FE0180911401FB
:1011D00090911501A0911601B0911701800F911FF8
:1011E000A11DB11D8093140190931501A0931601C8
:1011F000B09317018091120190911301801B910B04
:101200009093130180931201892B09F063C010920F
:101210001A0160C0833361F5EC2ECC2EDD2E8C2DAF
:101220008E198F15B8F08091120190911301801BD7
:10123000910B9093130180931201892B09F04AC0FE
:1012400080910401882319F32A9A25E02A95F1F761
:101250000000DDCFE0910901F0910A0180E00995DD
:10126000F60181936F01F5E0FA95F1F70000D7CF11
:10127000863309F05CC080910C01D12CC12C58013F
:10128000811111C081E0A81AB108CF1488F481E05F
:10129000AC14BD0409F080E00E944D0D89932FEF3E
:1012A000C21AD20AF2CFE1E0AE1AB108CF1400F1AF
:1012B0008091120190911301801B910B9093130167
:1012C00080931201892B31F40E94070D10921A01AC
:1012D00010920C01419A40988F2DDF91CF911F9170
:1012E0000F91FF90EF90DF90CF90BF90AF90089557
:1012F00081E0AC14BD0409F080E00E944D0D89939B
:101300008091140190911501A0911601B0911701DF
:101310000196A11DB11D8093140190931501A09316
:101320001601B0931701FFEFCF1ADF0ABFCF893341
:1013300009F5EC2ECC2EDD2E8C2D8E198F1580F01C
:101340008091120190911301801B910B90931301D6
:1013500080931201892B09F0BDCF0E949A0D57CFBF
:101360000E94BE0DF60181936F01F5E0FA95F1F749
:101370000000E2CF9EEF980F923008F060C0D12CB1
:10138000C12CEE24EA94823009F053C0EC2ECC2E0E
:10139000DD2E8C2D8E198F1508F02CCF6091140145
:1013A0007091150180911601909117010E94BB0464
:1013B000F60181936F018091140190911501A09124
:1013C0001601B09117010196A11DB11D8093140162
:1013D00090931501A0931601B0931701DACF809175
:1013E000140190911501A0911601B09117015E01B1
:1013F000AC0CBD1C0097F1E0AF07B105E8F40E940A
:10140000B105F50180838091140190911501A0919F
:101410001601B09117010196A11DB11D8093140111
:1014200090931501A0931601B0931701FFEFCF1A07
:10143000DF0ACF14A0F2DECEF501E082E4CF419ABC
:10144000FF24FA9449CF8F929F92AF92BF92CF928E
:10145000DF92EF92FF920F931F93CF93DF938C0154
:1014600080911A01882309F466C2813059F0982FBF
:101470009D7F943039F0982F977F923319F0853300
:1014800009F059C24198C0901201D0901301E62E84
:10149000F12CCE14DF0408F47601CE2D80911A01D0
:1014A0008630C9F54E2DB801809114019091150137
:1014B0000E9408028091140190911501A0911601DB
:1014C000B09117018E0D9F1DA11DB11D80931401B8
:1014D00090931501A0931601B0931701809112010A
:1014E000909113018E199F0990931301809312011B
:1014F000892B49F1C0E0419A40988C2FDF91CF9120
:101500001F910F91FF90EF90DF90CF90BF90AF9021
:101510009F908F900895823311F5D02F68018C2D04
:101520008D1B8C1798F080911201909113018E19E8
:101530009F099093130180931201892BD9F6809112
:10154000040181112A9A10921A01E2C0E091090166
:10155000F0910A01D6018D916D010995E0CF853397
:1015600009F0EBC080910C0181111BC0D02F6801E4
:101570008C2D8D1B8C1708F4CDC080911201909199
:1015800013018E199F099093130180931201892BE7
:1015900009F0B0CF809102018130A9F60E94070DB9
:1015A000D2CF609114017091150180911601909134
:1015B0001701D0E461157105B1E08B07910508F0C2
:1015C000D0E88D2E912CB12CA12CA50194010E9464
:1015D0000E0ED61BDC1708F4CD2FCC151D0411F010
:1015E00008F0CC2D80910B0181113AC00E94F20CC1
:1015F00080910301409114015091150160911601F1
:101600007091170141155105E1E06E07710548F031
:101610009FE076956795579547959A95D1F74E70C7
:10162000842B0E941C0D81117FC080911401909128
:101630001501A0911601B09117010097F1E0AF07D5
:10164000B10588F0892F0E941C0D81116DC0809119
:1016500014010E941C0D811167C081E080930B0171
:10166000D02F780121C08F3F9105A105B10589F3E5
:1016700080F3E8CFD7018D917D010E941C0D81116F
:1016800053C08091140190911501A0911601B09161
:1016900017010196A11DB11D8093140190931501AE
:1016A000A0931601B09317018E2D8D1B8C1710F38C
:1016B00080911201909113018C1B91099093130159
:1016C00080931201892B89F06091140170911501AA
:1016D0008091160190911701A50194010E940E0EB0
:1016E000672B682B692B09F006CF0E94070DEFE1ED
:1016F000FEE43197F1F700C0000080911201909153
:101700001301892B09F0F7CE10921A0110920C01E7
:10171000C1E0F1CED6018D916D010E941C0D882390
:1017200009F426CFCEEFE7CE0E94070D10921A01E2
:1017300010920C0110920B01F5CF8A3369F5D12C70
:10174000C12C18C0D0911001DD2389F0D93008F0E8
:10175000D8E06D2FF801EC0DFD1D80810E949D0DDC
:101760008111E7C0809110018D1B80931001BFEFA4
:10177000CB1ADB0ACC1630F3809112019091130141
:101780008E199F099093130180931201892B09F000
:10179000B1CE0E949A0DD7CED02F6801813009F4C6
:1017A00069C0843009F0C7C080911401909115017F
:1017B000A0911601B091170168010097A140B105F1
:1017C00008F4B2C0CCEF97CEF60141916F01609161
:1017D00014017091150180911601909117012091CB
:1017E0000E0130910F01232B39F421E00E94F904FE
:1017F000882369F1CBEF7FCE20E00E94F9048111AC
:10180000F9CF8091110181508093110181111FC086
:1018100060910E0170910F0171956195710990E0D1
:1018200080E0009114011091150120911601309172
:10183000170160237123822393230E945F0588236D
:1018400011F0CAEF58CE80910E0180931101809162
:10185000140190911501A0911601B0911701019604
:10186000A11DB11D8093140190931501A093160141
:10187000B09317018C2D8D1B8C1708F4A5CF809188
:101880001201909113018E199F0990931301809377
:101890001201892B09F02ECE80910E0190910F013B
:1018A000009709F450CE209111012817190609F468
:1018B0004ACE00911401109115012091160130912A
:1018C000170101501109210931099195819591095B
:1018D000B0E0A0E0BC01CD016023712382239323FB
:1018E0000E945F05882309F42ECEABCFD6016D91FF
:1018F0006D0180911401909115010E94CE05811116
:1019000061CF8091140190911501A0911601B091C1
:1019100017010196A11DB11D80931401909315012B
:10192000A0931601B09317018C2D8D1B8C17F0F22C
:10193000D5CDCDEFE0CDCFEFDECDA0E8B0E01C926D
:10194000E1E8F0E01082808188608083808182609D
:10195000808388EE93E090938900809388008C9137
:1019600080648C9308951BB88BB18B778BB98AB147
:1019700084688AB92FEF30E782E021503040804000
:10198000E1F700C000008AB18B778AB914B8219AB8
:1019900093E097B93A9888B18C6388B940982FEF53
:1019A00031EE84E0215030408040E1F700C000007B
:1019B000409A41982FEF31EE84E021503040804032
:1019C000E1F700C00000419A95BD0E949D0C0E9465
:1019D000300378940E941B02FDCF24982C9A239800
:1019E0002B9A089524982C9A23982B9A8AE18A9509
:1019F000F1F700C0249A2C988AE18A95F1F700C08B
:101A0000239A2B988AE18A95F1F700C00895239ACA
:101A10002B98249A2C988AE08A95F1F700C0239895
:101A20002B9A8AE08A95F1F700C024982C9A8AE1D3
:101A30008A95F1F700C0089598E0239A2B982AE040
:101A40002A95F1F700C087FF25C024982C9A2AE038
:101A50002A95F1F700C023982B9A2AE12A95F1F7ED
:101A600000C0880F915049F7239A2B9824982C9AFC
:101A70008AE08A95F1F700C023982B9A2AE12A95EB
:101A8000F1F700C083B1239A2B9882958F708095CF
:101A900081700895249A2C98DACF282F24982C9AB4
:101AA00098E080E0239A2B983AE13A95F1F700C04C
:101AB00023982B9A3AE13A95F1F700C0880F1C99C8
:101AC0008160915079F7239A2B98211111C0249AA3
:101AD0002C989AE09A95F1F700C023982B9A3AE057
:101AE0003A95F1F700C0239A2B9824982C9A0895E0
:101AF00024982C9AEECF880F613009F481600C9401
:101B00001C0D2D98089584B18C6284B924980E948C
:101B1000810D2B982A9808952A982D980E940404E4
:101B20002A9A2B9A0E9404042D9A0E9404042D984C
:101B30000C9404042A980C94810DCF93DF93D82F32
:101B40006150770BC1E001C0CC0F6A95EAF7C11173
:101B500004C080E0DF91CF9108950E94810D8C2F09
:101B60008D2351F02B9A0E9404042D9A0E940404A4
:101B70000E94810DC695EBCF2B98F5CFCF93DF93C5
:101B8000D8E0C0E00E94810D0E9404042D9A83B128
:101B900082958170CC0FC82B0E9404040E94810D95
:101BA000D15081F78C2FDF91CF910895CF930E9470
:101BB000830D2A9A85E38A95F1F700000E940404B8
:101BC000C3B10E949A0DC295C17081E08C27CF915C
:101BD0000895CF930E94830D2A9A85E38A95F1F7A1
:101BE000000068E080EC0E949D0DC0E00E94810D25
:101BF0000E9404042D9A0E9404041C9908C0CA5F24
:101C00000E94810D0E949A0D8C2FCF9108950E9401
:101C1000810DCF5FC73051F7CFEFF4CFA1E21A2E7D
:101C2000AA1BBB1BFD010DC0AA1FBB1FEE1FFF1F80
:101C3000A217B307E407F50720F0A21BB30BE40BD0
:101C4000F50B661F771F881F991F1A9469F7609517
:101C50007095809590959B01AC01BD01CF010895D1
:101C6000262FF999FECF92BD81BDF89A019700B455
:101C7000021639F01FBA20BD0FB6F894FA9AF99AF5
:081C80000FBE0895F894FFCF98
:061C8800FFFF01A00100B6
:00000001FF
