:100000000C9464000C949C000C9481000C9481006E
:100010000C9481000C9481000C9481000C9481005C
:100020000C9481000C9481000C9481000C9481004C
:100030000C9481000C9481000C9481000C9481003C
:100040000C9481000C9481000C9481000C9481002C
:100050000C9481000C9481000C9481000C9481001C
:100060000C9481000C94810009021200010100A08F
:100070001909040000000000000012011001FF0037
:100080000008C016DC050701010200010E0355003F
:10009000530042006100730070001C03770077007A
:1000A00077002E00660069007300630068006C0032
:1000B0002E006400650004030904100E0C0A0908F0
:1000C000070605040302010011241FBECFEFD8E08C
:1000D000DEBFCDBF11E0A0E0B1E0E0E8FCE102C08E
:1000E00005900D92A630B107D9F721E0A6E0B1E066
:1000F00001C01D92A235B207E1F70E94E90C0C94F1
:100100003E0E0C940000A82FB92F80E090E041E053
:1001100050EA609530E009C02D9182279795879528
:1001200010F084279527305EC8F36F5FA8F3089519
:10013000EADF8D939D930895CF93CFB7CF93DF934D
:10014000C3954F9BE9F74F9B0BC04F9B09C04F9B3B
:1001500007C04F9B05C04F9B03C04F9B01C089C088
:100160006F93C0913201DD27C65CDE4F2F9365E5AA
:100170004F9B03C02F916F91E6CF0F931F934F9327
:1001800020E040E15F9309B1047807FB27F93F9332
:1001900050E03BE039C0147840642F77012F5F5F57
:1001A0001EC0406819B114782F7752501FC04064A8
:1001B00009B12F770478D1F15F5F00C023C040629E
:1001C00019B12F77147891F15F5F00C025C00478D2
:1001D0001027515012F45D5F0000115027952C3FFD
:1001E00019B1C8F614780127015027952C3FC8F69D
:1001F0004227499309B1047810274F73115027956E
:100200002C3FA8F64695469519B1147879F0012748
:10021000015027952C3F98F66B5A60F3315009B185
:10022000B0F600C011E01CBB002717C03B50319551
:10023000C31BD04011E01CBB0881033CF9F00B3418
:10024000E9F0209130011981110F1213EDCF093619
:1002500051F10D3211F0013E39F7009338013F9111
:100260005F914F911F910F912F916F91CCB3C0FD72
:1002700067CFDF91CF91CFBFCF91189520913801F3
:10028000222369F310913601112339F534303AF104
:100290003093360120933101109132013BE0311B44
:1002A000309332011CC0009136010130B4F40AE5EC
:1002B0003091330134FD14C000933301C5E2D1E025
:1002C00013C0052710E000C000000BB91AC00527B5
:1002D00010E0221F1DC010E021C04AE502C032ED2F
:1002E000432FC4E1D0E032E01AB114685F9A0BB139
:1002F0001AB954E820E865E320FF05270BB92795D4
:1003000017951C3FF0F66695B8F7B1F720FF052763
:100310000BB9279517951C3FD0F62795179517FF12
:10032000052700001C3F0BB9B0F629913A9519F743
:100330000B7710913701110FC651D0400BB911F056
:100340001093300111E01CBB00681AB11B77402FDD
:100350004B7754E05A95F1F70BB91AB94BB97FCFE7
:10036000259A23982B9A50E219D05A95E9F70895C7
:10037000AC0188E606D0842F04D089E602D0852F10
:1003800000C010D028E030E0382780FB869507D0E9
:100390002A95D1F730FB03D001D0089568942398B3
:1003A0002B9A16F02B98239AE0915001F09151016D
:1003B0003197F0F72D9AE3B1E3FBE0915001F09112
:1003C00051013197F0F72D98089520ECE7DF46F4BE
:1003D0002A95E1F780E02AE1E5DF2A95E9F7DECF0B
:1003E00028E030E0DBDF869587F938272A95D1F7BA
:1003F000D5DF27F9322772F3D1DFD0CFDB01742F9D
:10040000B7DF84E2BEDFE1DF8D937A95D1F70895FF
:10041000DB01742FADDF83EFB4DF8DE1B2DF84E663
:10042000B0DF8D91AEDF82E7ACDFCFDF8078D9F728
:100430007A9589F70895CF93DF93609136016350E1
:1004400067FD91C080913201CCE0D0E0C81BD1099A
:10045000C65CDE4F809131018D3209F0C2C0683038
:1004600009F07FC083EC809325018AE580933301F6
:10047000109206018881807679F0CE010E943306C1
:100480008F3F09F466C09F81911169C09E819817C2
:1004900008F065C0892F63C02A8110922E019981CE
:1004A00091110AC010922F012EE231E082E03093C8
:1004B000350120933401E7CF953029F4209337019B
:1004C0002EE231E0F4CF963099F59B81913059F4CA
:1004D0008AE790E0909335018093340182E190E4C3
:1004E00090930601D0CF923019F488E690E0F2CFD5
:1004F0009330A9F7211108C086EB90E09093350165
:100500008093340184E0EBCF213041F48AE990E01C
:1005100090933501809334018CE1E1CF2230F9F6DC
:100520008CE890E090933501809334018EE0D7CF32
:10053000983059F0993019F420933901C1CF81E0F6
:100540009A3009F4BDCF80E0BBCF29E331E081E0F0
:10055000AECF988197FD8E8190E8909306018093AD
:100560000701109236018091330184FF2DC0C091A4
:100570000701CF3F49F16C2FC93008F068E08C2F9C
:10058000861B809307018091250198E88927809335
:100590002501CC2361F02091060127FF35C086E2BA
:1005A00091E00E948B08C82F893008F054C06C2F4E
:1005B00086E291E00E949800CC5FCC3019F08FEF7A
:1005C00080930701C093330184E199B1947831F4A9
:1005D0008150D9F71092370110923001DF91CF91FD
:1005E00008958091060187FFBCCFCE010E94B30A17
:1005F0008F3F21F48EE180933301B3CF882309F438
:10060000B0CF10920701ADCF8091340190913501A8
:1006100026FF17C0FC01A6E2B1E0262F280F349177
:100620003D9331962E13FBCF2FEF260F30E02F5F37
:100630003F4F820F931F9093350180933401C62F53
:10064000B6CFA6E2B1E0FC01262F280F31913D93F1
:100650002E13FCCFE9CF8FEF80930701CEE1B2CF0D
:100660008AE5809333018FEF80930701E9E6F0E09C
:10067000808182608083E89A08958EBD0DB407FE64
:10068000FDCF8EB50895809109018CBD8091080140
:100690008DBD089581111BC080910101811117C08A
:1006A00080E180931B012DE333E030930C01209314
:1006B0000B011092080191E090930A018A3041F1F8
:1006C000C8F4883049F1893029F181E518C0809358
:1006D0001B01883040F72AEE33E030930C01209361
:1006E0000B01843041F1D0F4823049F1833029F19B
:1006F0008AEF1AC08E3031F0803139F780E580936F
:100700000901089581E580930901909308010895F6
:1007100082E5F9CF82E5F3CF83E5F1CF863039F07A
:1007200040F0873029F784E080930A01089588E03B
:10073000FBCF80E1F9CF8FE1F7CF8FE3F5CF8DE7E6
:10074000F3CF0F931F93CF93DF93C82F0E944A03D9
:1007500011E0DFE3C83010F41FE0DAEFC3E02A9ABB
:10076000812F0E94D9052A988D2F0E94D905E091EA
:100770000B01F0910C018CEA0995E0910B01F091CD
:100780000C0183E50995E0910B01F0910C0180E0EB
:100790000995082FE0910B01F0910C0180E009957B
:1007A000033511F4882349F08FE19EE40197F1F7B6
:1007B00000C00000C15099F681E0DF91CF911F91F8
:1007C0000F91089526B590910A0186B5821B89176D
:1007D000E0F308951F93CF93DF93182F2D98D8E05F
:1007E000C0E017FF16C02B9A110F0E94E2032D9A4A
:1007F0000E94E20383B182958170CC0FC82B2D98A3
:100800000E94E203D15069F78C2FDF91CF911F91A5
:1008100008952B98E9CF84B18C6284B924982A98E2
:100820002D9881E00E94D9052A9A81E00E94D9057D
:100830002A9880910B0190910C018D53934011F4F3
:100840000E9443038FEF80930001089584B18C626E
:1008500084B980910B0190910C018D53934011F458
:100860000E9443038FEF809300012A9A089584B178
:10087000837D84B985B1837D85B908950F931F93D6
:10088000CF93DF9380911001882379F080911B0131
:100890000E94A10381112BC090911B019093010133
:1008A000DF91CF911F910F910895809101018823CD
:1008B00059F00E94A103811105C09091010190930C
:1008C0001B01EECF10920101CAEBD0E00C2F035FA9
:1008D000FE011491812F0E94A103811105C0109384
:1008E0001B0110930101DCCF21960C13F1CF81E0A5
:1008F000D7CFCF92DF92EF92FF926115710522E080
:100900008207910558F16B017C0181E1F694E7942F
:10091000D794C7948A95D1F7809100018C15F1F096
:10092000C0920001E0910B01F0910C018DE409955A
:10093000E0910B01F0910C0180E00995E0910B0131
:10094000F0910C018C2D0995E0910B01F0910C01B7
:1009500080E0FF90EF90DF90CF900994FF90EF90B0
:10096000DF90CF900895CF92DF92EF92FF926B01CC
:100970007C01862F880F880F880F8870E0910B010B
:10098000F0910C0180620995D701C60129E0B69566
:10099000A795979587952A95D1F7E0910B01F0914E
:1009A0000C010995D701C601B695A795979587952E
:1009B000E0910B01F0910C010995E0910B01F09190
:1009C0000C0180E0FF90EF90DF90CF900994CF92E0
:1009D000DF92EF92FF926B017C010E947904C701C4
:1009E000B601FF90EF90DF90CF900C94B304CF92BC
:1009F000DF92EF92FF92CF93DF936B017C01D42FB4
:100A0000C22F0E9479048C2D880F880F880F887060
:100A1000E0910B01F0910C0180640995D701C601AA
:100A200029E0B695A795979587952A95D1F7E091F6
:100A30000B01F0910C010995D701C601B695A79558
:100A400097958795E0910B01F0910C010995E09144
:100A50000B01F0910C018D2F0995CC23F1F0C7010A
:100A6000B6010E94E7048D17C1F0C0E08C2F869577
:100A700086958E5F0E94D905C701B6010E94E704E2
:100A80008D1759F0CF5FCB3089F781E0DF91CF919F
:100A9000FF90EF90DF90CF90089580E0F7CFCF9256
:100AA000DF92EF92FF92CF936B017C010E94790459
:100AB000E0910B01F0910C018CE40995D701C6017E
:100AC00029E0B695A795979587952A95D1F7E09156
:100AD0000B01F0910C010995D701C601B695A795B8
:100AE00097958795E0910B01F0910C010995E091A4
:100AF0000B01F0910C0180E00995C0E08C2F8695E8
:100B000086958E5F0E94D905C701B6010E94E70451
:100B10008F3F51F4CF5FCB3089F781E0CF91FF90C9
:100B2000EF90DF90CF90089580E0F8CFCF93DF93E0
:100B3000EC01E0910B01F0910C0180EA0995E09144
:100B40000B01F0910C018D2F0995E0910B01F091B3
:100B50000C018C2F0995E0910B01F0910C0180E0C4
:100B6000DF91CF9109941F93CF93DF93D82F192F43
:100B7000C62FE0910B01F0910C0180EC0995E091FA
:100B80000B01F0910C01812F0995E0910B01F0917F
:100B90000C018D2F0995E0910B01F0910C018C2F28
:100BA00009958BE00E94D90580E0DF91CF911F91DC
:100BB000089526B596B5921B9035E0F38150C9F79C
:100BC0000895262FFC0142815381052E000C660BEF
:100BD000770B40931701509318016093190170939C
:100BE0001A018681978190931601809315012093B5
:100BF0001C0108950F931F93FC01838191E08111E3
:100C000001C090E090930E0180930D01928190932A
:100C10000301882381F08230E1F404811581012EE3
:100C2000000C220B330B0093170110931801209333
:100C3000190130931A018681978190931601809350
:100C4000150160931C018FEFFA0180831F910F91B2
:100C5000089500E010E09801813029F7048110E048
:100C600030E020E0E0CFCF92DF92FF920F931F930E
:100C7000CF93DF930F92CDB7DEB78C01198210921C
:100C80001D0110921E0110921F011092200110925E
:100C90002101109222011092230110922401DC0103
:100CA00011968C9111978130B1F480911B010E94B3
:100CB0004A0340980E940B040E943E048093110155
:100CC000882321F00E9437041092010180911101C4
:100CD00080931D016BC08233B9F480911B010E9487
:100CE0004A0340980E9426048DE191E090933501DB
:100CF0008093340189810F90DF91CF911F910F91E3
:100D0000FF90DF90CF900895833379F42A98F8010B
:100D100092819093050126813781309316012093AB
:100D2000150180931C018FEFA1C1843379F42A98B7
:100D300012968C9112978093050116968D919C9135
:100D4000909316018093150182E3EBCF863421F452
:100D500040980E94230DC8CF893419F40E94280DB1
:100D6000C3CF8A3419F40E943D0DBECF8C3479F480
:100D70008091040190E08E7F0E94280DF80182810D
:100D80000E94520D0E943D0D10921D010FC08B3428
:100D900079F480910401816090E00E94280D80E048
:100DA0000E94830D80931D010E943D0D81E05EC174
:100DB000873451F410920201AE014F5F5F4F66E33A
:100DC000C8010E94FA0590CF883459F414968C918A
:100DD0008093020110920F01AE014F5F5F4F65E3F8
:100DE000EFCF8D3449F4F801828187FD03C08093F1
:100DF0000401DCCF81E06CCF8D3549F416968D91DE
:100E00009C9190931601809315018AE38ACF8C35CB
:100E100049F4F8018681978190931601809315011A
:100E200089E37FCF8E3549F40E94060E91E081114F
:100E300001C090E090931D01B9CF8F3519F40E9445
:100E4000190E46CF8A35E1F540980E94BC0DD801B5
:100E500012968C91129713963C91139714962C919D
:100E6000149715969C91159780931701309318014C
:100E70002093190190931A0116966C916F710E943C
:100E8000CD0DF801F680F294F69447E0F422F68254
:100E90005DE1C52E51E0D52E10E0F11611F01430B1
:100EA00041F40E94CA0D8F2D853008F4DFC084E024
:100EB000DDC00E94EE0DD6018D936D011F5FEDCF59
:100EC000823029F40E943704419A409A0DCF833032
:100ED00081F5E0910B01F0910C0112968C9109952E
:100EE00080931D01E0910B01F0910C01D801139644
:100EF0008C91099580931E01E0910B01F0910C01FA
:100F0000D80114968C91099580931F01E0910B01F3
:100F1000F0910C01D80115968C91099580932001D0
:100F200010922101109222011092230110922401AB
:100F3000BECF853019F40E943E04CACE62E08430F0
:100F400009F4D8C063E0873009F4D4C0863059F57D
:100F5000F80182819381092E000CAA0BBB0B8093B0
:100F6000170190931801A0931901B0931A0185817C
:100F7000F0E18F9FC001112488279F70D80114963B
:100F80002C911497820F911D90931301809312015D
:100F90008093140116968D919C91909316018093E5
:100FA000150181E0BECE8830D9F4F80182819381A9
:100FB000092E000CAA0BBB0B80931701909318010C
:100FC000A0931901B0931A0110921301109212010B
:100FD00086819781909316018093150184E0A1CEBC
:100FE0008930F1F413962C91139712966C91129705
:100FF00070E090E080E0CB0177276627922B149673
:101000002C911497622B15962C91722B61157105FA
:10101000B2E08B07910508F4B7CE0E947904B4CEF4
:101020008A3069F4F801828180931B01811103C029
:1010300010921001BBCE81E080931001B7CE8131B8
:10104000B9F480911B0180931E018091010180936E
:101050001F0180910A0180932001809100018093FB
:10106000210180911C018093220186E089833CCE7E
:101070008B30A1F412968D919C91909351018093A5
:1010800050012A9A229A83E00E94D9052A98409812
:1010900080E10E94D9050E94B00126CE8C30C1F4B7
:1010A00080EC0E94C10180E00E94C1018AE00E94A0
:1010B000D9052A9A85E00E94D9052A9885E00E94E0
:1010C000D90584B1837D84B985B1837D85B90CCE82
:1010D0008D3019F40E94E501FBCD8E3029F4F80122
:1010E00082810E94C10150CE65E08F3019F08031BD
:1010F00029F466E0C8010E94E10515CE8F3709F09A
:10110000F3CD83E180931D0181E880931E018FEC74
:1011100080932001CCCE2F923F924F925F926F929C
:101120007F928F929F92AF92BF92CF92DF92EF9277
:10113000FF920F931F93CF93DF938C0180911C013B
:101140009EEF980F923048F0853039F0833329F0C4
:10115000893319F0863309F0BCC170E0A090150105
:10116000B09016016A157B0508F45B01CA2D419801
:1011700080911C01853019F54A2DB8018091170125
:10118000909118010E94FE01809117019091180121
:10119000A0911901B0911A018A0D9B1DA11DB11DCD
:1011A0008093170190931801A0931901B0931A012D
:1011B00080911501909116018A199B0904C1D02FC5
:1011C0007801833309F48DC0863309F0D2C0809151
:1011D0001501909116018A159B0508F4C82F80917E
:1011E0000F0181113EC0D091030180910E0188232F
:1011F000B1F08091170190911801A0911901B0915F
:101200001A01009731E0A307B10548F02FE0B69529
:10121000A795979587952A95D1F78E70D82B0E9420
:10122000280D8D2F0E94520D811199C080910D01C2
:10123000882361F0809118010E94520D80910D0168
:10124000823020F0809117010E94520D0E94280DDB
:101250008D2F81600E94520D811181C081E08093A9
:101260000F01F12CE12CCC2ED12C560181E0A81AD3
:10127000B108EC1608F452C0809115019091160146
:101280008C199D099093160180931501892B41F4C7
:101290000E943D0D10921C0110920E0110920F0140
:1012A0008C2FDF91CF911F910F91FF90EF90DF90E6
:1012B000CF90BF90AF909F908F907F906F905F90F6
:1012C0004F903F902F900895E0910B01F0910C0109
:1012D00080E00995F70181937F01F5E0FA95F1F738
:1012E00000008E2D8D1B8C1778F380911501909145
:1012F00016018A199B099093160180931501892B79
:1013000009F068C080910501882329F02A9A25E018
:101310002A95F1F7000010921C015CC081E0AE1428
:10132000BF0409F080E00E94830DF80181938F01D2
:101330008091170190911801A0911901B0911A01A3
:101340000196A11DB11D8093170190931801A093E0
:101350001901B0931A01FFEFEF1AFF0A8ACF0E941A
:101360003D0D10921C0110920E0110920F01C0E071
:1013700097CF78018933D1F1823009F0A7C0C090AE
:101380001701D0901801E0901901F0901A012090F7
:10139000150130901601A214B30408F4150180E879
:1013A000C0E08C2E912CC215A0F1C0921701D092F2
:1013B0001801E0921901F0921A01809115019091A3
:1013C0001601881999099093160180931501892BAC
:1013D00009F4A1CF419A409A63CF0E94EE0DF70124
:1013E00081937F01F5E0FA95F1F700008E2D8D1BBA
:1013F0008C1798F380911501909116018A199B0919
:101400009093160180931501892B21F70E94CA0D34
:1014100082CFD22DDC1BD13808F0DFEF382EC1147B
:10142000D10422E0E206F10430F12601370191E116
:1014300076946794579447949A95D1F7342C8415F1
:10144000D1F040920001E0910B01F0910C018DE48C
:101450000995E0910B01F0910C0180E00995E09174
:101460000B01F0910C01842D0995E0910B01F09195
:101470000C0180E00995800E911E482D292DC70191
:10148000B6012B013C013FEF431A530A630A730A6A
:10149000A42EB22E0E94B304F50181935F01C30113
:1014A000B2014E2F2B2D382D3E1B3D0F51F78FEFE4
:1014B0008D0F90E0B0E0A0E00196A11DB11DC80E17
:1014C000D91EEA1EFB1ECD0F832D6BCF7801833012
:1014D00051F1419A409ACFEFE3CE8091170190915C
:1014E0001801A0911901B0911A018115F0E19F072F
:1014F000A105B105E8F40E949605F70181937F01EB
:101500008091170190911801A0911901B0911A01D1
:101510000196A11DB11D8093170190931801A0930E
:101520001901B0931A018E2D8D1B8C17B0F240CE8D
:101530008FEFE3CF0F931F93CF93DF93EC018C01D9
:10154000060F111DC017D10731F480E0DF91CF9154
:101550001F910F91089568E089910E94CD0D882315
:1015600089F381E0F3CF4F925F926F927F928F92D7
:101570009F92AF92BF92CF92DF92EF92FF920F9322
:101580001F93CF93DF93982E792E80911C0188238F
:1015900009F405C2813059F0982F9D7F943039F0BD
:1015A000982F977F923319F0853309F0F8C170E0D6
:1015B00000911501109116016017710708F48B0155
:1015C000D02F4198C0911C01C63069F5402F692D7C
:1015D000772D80911701909118010E940802809147
:1015E000170190911801A0911901B0911A01800F73
:1015F000911FA11DB11D8093170190931801A09315
:101600001901B0931A018091150190911601801B68
:10161000910B9093160180931501892BE9F0C0E09E
:10162000419A409A5FC0C23319F5C92DE92CF72CB5
:101630008E2D8C1B8D1798F08091150190911601BD
:10164000801B910B9093160180931501892B39F71C
:101650008091050181112A9A10921C01E0CFE0913E
:101660000B01F0910C01D7018D917D010995E0CF1F
:10167000C53309F06FC08091150190911601801754
:10168000910708F4D82F80910E01882309F43FC0F8
:10169000C0910F01C1113BC0809103010E94520D06
:1016A000882391F181E080930F0180911501909141
:1016B0001601892BB9F480910201882309F447C0EF
:1016C0000E943D0D80910E01882331F08FE19EE450
:1016D0000197F1F700C0000010921C0110920E015A
:1016E00010920F018C2FDF91CF911F910F91FF90DE
:1016F000EF90DF90CF90BF90AF909F908F907F90B2
:101700006F905F904F90089581E080930F01E92CD6
:10171000F72C10E000E00D1760F0C1E0809115019A
:1017200090911601801B910B9093160180931501E7
:10173000BCCFF70181917F010E94520D98012F5F6C
:101740003F4F811102C08901E6CFC0E0E7CF0E9480
:10175000280DC2CFCA33D1F4602F892D972D0E9456
:101760009A0AC82F81111DC180911501909116010F
:10177000801B910B9093160180931501892B09F022
:101780004ECF0E94CA0D10921C014ACFC13009F001
:10179000C7C0C0901701D0901801E0901901F090D7
:1017A0001A01892CA92CB72C80E89A2D98199D171D
:1017B000C0F1C0921701D0921801E0921901F09285
:1017C0001A018091150190911601801B910B909345
:1017D000160180931501892B09F021CF10921C016D
:1017E00060911201709113016115710509F418CF10
:1017F000809114018617170609F412CFE1E0CE1A82
:10180000D108E108F10871956195710990E080E0D7
:101810006C217D218E219F210E944F05811173C073
:10182000FFCE982EC114D10492E0E906F10430F104
:101830002601370191E176946794579447949A95DD
:10184000D1F7942C8415D1F040920001E0910B0166
:10185000F0910C018DE40995E0910B01F0910C01E0
:1018600080E00995E0910B01F0910C01842D099520
:10187000E0910B01F0910C0180E00995D5014D91AB
:101880005D018091120190911301892B99F421E05F
:10189000C701B6010E94F7048823D9F110921C01F8
:1018A000C0921701D0921801E0921901F0921A012A
:1018B000CBEFB6CE20E0C701B6010E94F70481113C
:1018C000EDCF80911401815080931401811121C0CA
:1018D000609112017091130171956195710990E009
:1018E00080E06C217D218E219F210E944F0588235D
:1018F00061F010921C01C0921701D0921801E09281
:101900001901F0921A01CAEF8BCE809112018093D7
:101910001401BFEFCB1ADB0AEB0AFB0A892D45CF76
:10192000C430D9F5C92DE92CF72C8E2D8C1B8D17C1
:1019300088F08091150190911601801B910B909376
:10194000160180931501892B09F069CE10921C01B4
:10195000C1E066CED7016D917D0180911701909114
:1019600018010E94B305882321F010921C01CCEFCE
:1019700057CE8091170190911801A0911901B09153
:101980001A010196A11DB11D8093170190931801B2
:10199000A0931901B0931A01C8CFCFEF41CECFEF7A
:1019A000A1CECDEF9FCEA0E8B0E01C92E1E8F0E040
:1019B000108280818860808380818260808388EE4D
:1019C00093E090938900809388008C9180648C933D
:1019D00008951BB88BB18B778BB98AB184688AB9AB
:1019E0002FEF30E782E0215030408040E1F700C027
:1019F00000008AB18B778AB914B8219A93E097B91D
:101A00003A9888B18C6388B940982FEF31EE84E022
:101A1000215030408040E1F700C00000409A4198DA
:101A20002FEF31EE84E0215030408040E1F700C0DC
:101A30000000419A95BD0E94D30C0E943003789417
:101A40000E941B02FDCF24982C9A23982B9A08956C
:101A500024982C9A23982B9A8AE18A95F1F700C052
:101A6000249A2C988AE18A95F1F700C0239A2B9842
:101A70008AE18A95F1F700C00895239A2B98249A59
:101A80002C988AE08A95F1F700C023982B9A8AE077
:101A90008A95F1F700C024982C9A8AE18A95F1F78B
:101AA00000C0089598E0239A2B982AE02A95F1F730
:101AB00000C087FF25C024982C9A2AE02A95F1F7C8
:101AC00000C023982B9A2AE12A95F1F700C0880FCD
:101AD000915049F7239A2B9824982C9A8AE08A955A
:101AE000F1F700C023982B9A2AE12A95F1F700C05C
:101AF00083B1239A2B9882958F7080958170089579
:101B0000249A2C98DACF282F24982C9A98E080E0F9
:101B1000239A2B983AE13A95F1F700C023982B9A33
:101B20003AE13A95F1F700C0880F1C998160915015
:101B300079F7239A2B98211111C0249A2C989AE0B6
:101B40009A95F1F700C023982B9A3AE03A95F1F76D
:101B500000C0239A2B9824982C9A089524982C9AA4
:101B6000EECF2D98089584B18C6284B924980E9498
:101B7000B10D2B982A9808952A982D980E94E20377
:101B80002A9A2B9A0E94E2032D9A0E94E2032D9832
:101B90000C94E2032A980C94B10DCF93DF93D82FC5
:101BA0006150770BC1E001C0CC0F6A95EAF7C11113
:101BB00004C080E0DF91CF9108950E94B10D8C2F79
:101BC0008D2351F02B9A0E94E2032D9A0E94E2038A
:101BD0000E94B10DC695EBCF2B98F5CFCF93DF9335
:101BE000D8E0C0E00E94B10D0E94E2032D9A83B1BB
:101BF00082958170CC0FC82B0E94E2030E94B10D28
:101C0000D15081F78C2FDF91CF910895CF930E940F
:101C1000B30D2A9A85E38A95F1F700000E94E2034A
:101C2000C3B10E94CA0DC295C17081E08C27CF91CB
:101C30000895CF930E94B30D2A9A85E38A95F1F710
:101C4000000068E080EC0E94CD0DC0E00E94B10D64
:101C50000E94E2032D9A0E94E2031C9908C0CA5F09
:101C60000E94B10D0E94CA0D8C2FCF9108950E9441
:101C7000B10DCF5FC73051F7CFEFF4CFF894FFCF5E
:061C8000FF0E01A0FF01B0
:00000001FF
