:100000000C946D000C94A5000C948A000C948A004A
:100010000C948A000C948A000C948A000C948A0038
:100020000C948A000C948A000C948A000C948A0028
:100030000C948A000C948A000C948A000C948A0018
:100040000C948A000C948A000C948A000C948A0008
:100050000C948A000C948A000C948A000C948A00F8
:100060000C948A000C948A0009021200010100A07D
:100070001909040000000000000012011001FF0037
:100080000008C016DC050701010200010E0355003F
:10009000530042006100730070001C03770077007A
:1000A00077002E00660069007300630068006C0032
:1000B0002E0064006500040309040408101F3F7D3E
:1000C000FA0001000100005051515252530D0C0B27
:1000D0000A09080706050403020111241FBECFEF19
:1000E000D8E0DEBFCDBF11E0A0E0B1E0ECEDF9E17A
:1000F00002C005900D92A430B107D9F721E0A4E029
:10010000B1E001C01D92A335B207E1F70E94980B40
:100110000C94EC0C0C940000A82FB92F80E090E018
:1001200041E050EA609530E009C02D918227979513
:10013000879510F084279527305EC8F36F5FA8F38A
:100140000895EADF8D939D930895CF93CFB7CF9312
:10015000DF93C3954F9BE9F74F9B0BC04F9B09C0A3
:100160004F9B07C04F9B05C04F9B03C04F9B01C0D7
:1001700089C06F93C0913101DD27C75CDE4F2F939B
:1001800065E54F9B03C02F916F91E6CF0F931F93AF
:100190004F9320E040E15F9309B1047807FB27F912
:1001A0003F9350E03BE039C0147840642F77012F33
:1001B0005F5F1EC0406819B114782F7752501FC07E
:1001C000406409B12F770478D1F15F5F00C023C08C
:1001D000406219B12F77147891F15F5F00C025C09C
:1001E00004781027515012F45D5F000011502795DC
:1001F0002C3F19B1C8F614780127015027952C3FE0
:10020000C8F64227499309B1047810274F7311505B
:1002100027952C3FA8F64695469519B1147879F0A4
:100220000127015027952C3F98F66B5A60F3315007
:1002300009B1B0F600C011E01CBB002717C03B504D
:100240003195C31BD04011E01CBB0881033CF9F081
:100250000B34E9F020912F011981110F1213EDCF0A
:10026000093651F10D3211F0013E39F70093370193
:100270003F915F914F911F910F912F916F91CCB34F
:10028000C0FD67CFDF91CF91CFBFCF91189520915F
:100290003701222369F310913501112339F53430E8
:1002A0003AF13093350120933001109131013BE058
:1002B000311B309331011CC0009135010130B4F481
:1002C0000AE53091320134FD14C000933201C4E2DA
:1002D000D1E013C0052710E000C000000BB91AC020
:1002E000052710E0221F1DC010E021C04AE502C012
:1002F00032ED432FC4E1D0E032E01AB114685F9AC6
:100300000BB11AB954E820E865E320FF05270BB9C3
:10031000279517951C3FF0F66695B8F7B1F720FFC3
:1003200005270BB9279517951C3FD0F627951795EC
:1003300017FF052700001C3F0BB9B0F629913A952D
:1003400019F70B7710913601110FC651D0400BB938
:1003500011F010932F0111E01CBB00681AB11B773C
:10036000402F4B7754E05A95F1F70BB91AB94BB9B6
:100370007FCF259A23982B9A50E219D05A95E9F706
:100380000895AC0188E606D0842F04D089E602D017
:10039000852F00C010D028E030E0382780FB8695FC
:1003A00007D02A95D1F730FB03D001D00895689487
:1003B00023982B9A16F02B98239AE0915001F091F4
:1003C00051013197F0F72D9AE3B1E3FBE091500131
:1003D000F09151013197F0F72D98089520ECE7DF67
:1003E00046F42A95E1F780E02AE1E5DF2A95E9F76E
:1003F000DECF28E030E0DBDF869587F938272A95C5
:10040000D1F7D5DF27F9322772F3D1DFD0CFDB0167
:10041000742FB7DF84E2BEDFE1DF8D937A95D1F7E9
:100420000895DB01742FADDF83EFB4DF8DE1B2DF20
:1004300084E6B0DF8D91AEDF82E7ACDFCFDF80787E
:10044000D9F77A9589F70895CF93DF9360913501B5
:10045000635067FD91C080913101CCE0D0E0C81BB2
:10046000D109C75CDE4F809130018D3209F0C2C0E6
:10047000683009F07FC083EC809324018AE5809383
:100480003201109204018881807679F0CE010E94B9
:1004900098058F3F09F466C09F81911169C09E81C4
:1004A000981708F065C0892F63C02A8110922D012A
:1004B000998191110AC010922E012DE231E082E063
:1004C0003093340120933301E7CF953029F4209302
:1004D00036012DE231E0F4CF963099F59B819130D1
:1004E00059F48AE790E0909334018093330182E1DC
:1004F00090E490930401D0CF923019F488E690E014
:10050000F2CF9330A9F7211108C086EB90E09093C9
:1005100034018093330184E0EBCF213041F48AE948
:1005200090E090933401809333018CE1E1CF22304D
:10053000F9F68CE890E090933401809333018EE0DB
:10054000D7CF983059F0993019F420933801C1CFA2
:1005500081E09A3009F4BDCF80E0BBCF28E331E0E1
:1005600081E0AECF988197FD8E8190E89093040151
:1005700080930501109235018091320184FF2DC0D6
:10058000C0910501CF3F49F16C2FC93008F068E0F8
:100590008C2F861B809305018091240198E8892780
:1005A00080932401CC2361F02091040127FF35C002
:1005B00085E291E00E941608C82F893008F054C0E7
:1005C0006C2F85E291E00E94A100CC5FCC3019F045
:1005D0008FEF80930501C093320184E199B1947843
:1005E00031F48150D9F71092360110922F01DF912A
:1005F000CF9108958091040187FFBCCFCE010E9466
:10060000A5098F3F21F48EE180933201B3CF882377
:1006100009F4B0CF10920501ADCF809133019091D4
:10062000340126FF17C0FC01A5E2B1E0262F280FF8
:1006300034913D9331962E13FBCF2FEF260F30E0F0
:100640002F5F3F4F820F931F9093340180933301AC
:10065000C62FB6CFA5E2B1E0FC01262F280F3191BD
:100660003D932E13FCCFE9CF8FEF80930501CEE1B0
:10067000B2CF8AE5809332018FEF80930501E9E6DE
:10068000F0E0808182608083E89A08958EBD0DB489
:1006900007FEFDCF8EB50895809107018CBD809136
:1006A00006018DBD0895811120C080910101811145
:1006B0001CC08DE080931A0126E433E030930A01D8
:1006C0002093090191E0909308018D5090E0FC0186
:1006D000E953FF4FE491E0930701FC01EF53FF4F13
:1006E000E491E09306010C944C0380931A01883046
:1006F00018F721ED33E030930A0120930901875068
:10070000E82FF0E0E654FF4FE491E09308010895EC
:100710000F931F93CF93DF93C82F0E94530311E0D1
:10072000DFE3C83010F41FE0DAEFC3E02A9A812F2C
:100730000E9472052A988D2F0E947205E09109018E
:10074000F0910A018CEA0995E0910901F0910A0102
:1007500083E50995E0910901F0910A0180E009958E
:10076000082FE0910901F0910A0180E00995033515
:1007700011F4882349F08FE19EE40197F1F700C05E
:100780000000C15099F681E0DF91CF911F910F9148
:10079000089526B59091080186B5821B8917E0F36C
:1007A00008951F93CF93DF93182F2D98D8E0C0E0C2
:1007B00017FF16C02B9A110F0E94C9032D9A0E9491
:1007C000C90383B182958170CC0FC82B2D980E94EC
:1007D000C903D15069F78C2FDF91CF911F910895F4
:1007E0002B98E9CF84B18C6284B924982A982D98EB
:1007F00081E00E9472052A9A81E00E9472052A987F
:100800008091090190910A018654934011F40E944D
:100810004C038FEF80930001089584B18C6284B9FA
:100820008091090190910A018654934011F40E942D
:100830004C038FEF809300012A9A089584B1837D41
:1008400084B985B1837D85B90895FF920F931F9375
:10085000CF93DF93EDECF0E0C49180910C018823FD
:1008600079F0C0911A018C2F0E948803811117C062
:10087000C0930101DF91CF911F910F91FF900895D7
:1008800080910101882359F00E948803811105C0DD
:100890009091010190931A01EDCF109201010DEC9E
:1008A00010E08DE0F82EF00EF801D491CD1750F045
:1008B0008D2F0E948803811105C0D0931A01D09317
:1008C0000101D8CF0F5F1F4FF012EECF81E0D2CFE2
:1008D000CF93C82FC695809100018C17D9F0C09393
:1008E0000001E0910901F0910A018DE40995E09180
:1008F0000901F0910A0180E00995E0910901F09168
:100900000A018C2F0995E0910901F0910A0180E01C
:10091000CF910994CF910895CF93DF93EC01880F85
:10092000880F880F8870E0910901F0910A018062B8
:100930000995E0910901F0910A018D2F869509959D
:10094000CE0196958795E0910901F0910A010995EC
:10095000E0910901F0910A0180E0DF91CF910994C3
:100960000F931F93CF93DF938C01D62FC42F880F43
:10097000880F880F8870E0910901F0910A01806466
:100980000995E0910901F0910A01812F8695099559
:10099000C80196958795E0910901F0910A010995A2
:1009A000E0910901F0910A018D2F0995C11106C04E
:1009B00080E0DF91CF911F910F910895C8010E94AF
:1009C0008C04C0E18D17A1F381E00E947205C8017B
:1009D0000E948C048D1761F3C15011F481E0E9CFBE
:1009E000CB3090F784E0C83080F382E0EECF0F93F5
:1009F0001F93CF938C01E0910901F0910A018CE4DF
:100A00000995E0910901F0910A01812F86950995D8
:100A1000C80196958795E0910901F0910A01099521
:100A2000E0910901F0910A0180E00995C9E181E0B6
:100A30000E947205C8010E948C048F3F71F4C1505E
:100A400029F481E0CF911F910F910895C03178F77B
:100A500084E0C63068F382E0EBCF80E0F3CFCF9341
:100A6000DF93EC01E0910901F0910A0180EA099518
:100A7000E0910901F0910A018D2F0995E09109019A
:100A8000F0910A018C2F0995E0910901F0910A017A
:100A900080E0DF91CF9109941F93CF93DF93D82FFC
:100AA000192FC62FE0910901F0910A0180EC0995F8
:100AB000E0910901F0910A01812F0995E091090166
:100AC000F0910A018D2F0995E0910901F0910A0139
:100AD0008C2F09958BE00E94720580E0DF91CF9109
:100AE0001F91089526B596B5921B9035E0F381507D
:100AF000C9F70895262F30910B0131110FC0FC0169
:100B000042815381052E000C660B770B4093160132
:100B1000509317016093180170931901FC018681AD
:100B20009781909315018093140120931B010895E0
:100B3000EF92FF920F931F93CF93DF938C0110924C
:100B40001C0110921D0110921E0110921F011092A3
:100B50002001109221011092220110922301DC0148
:100B60001196CC911197C13029F580911A010E94FC
:100B7000530310920B0140980E94F2030E94250437
:100B800080930D01882321F00E941E041092010120
:100B900080910D0180931C018CE191E090933401D0
:100BA000809333018C2FDF91CF911F910F91FF9094
:100BB000EF900895C23349F480911A010E945303C3
:100BC00040980E940D04C0E0E7CFC33379F42A981F
:100BD000FC018281809302018681978190931501A7
:100BE00080931401C0931B01CFEFD6CFC43389F497
:100BF0002A9812968C9112978093020116968D91E5
:100C00009C91909315018093140182E380931B01C2
:100C1000EBCFC63421F440980E94D20BD4CFC93414
:100C200019F40E94D70BCFCFCA3419F40E94EC0BF1
:100C3000CACFCC3439F4FC0182810E94010C80932C
:100C40001C018BC0CB3429F412968C910E94320C7B
:100C5000F6CFC734F1F40E94D70B60E0F80182812F
:100C60000E94600CD80115968C91159780FF04C0E6
:100C700014968C910E94010CF80183810E94010C52
:100C80000E94D70B61E0D80112968C910E94600CF3
:100C90009ACFC83421F50E94D70B60E0F801828119
:100CA0000E94600CD80115968C911597C82F80FF73
:100CB00004C014968C910E94010CF80183810E945B
:100CC000010CC695C170C0935201D80116968D9142
:100CD0009C91909315018093140185E397CFCD34B7
:100CE00031F4FC01828187FF38C081E0A8CFCD3587
:100CF000B1F412968D919C9113979093110180936A
:100D0000100114968C9114978093120116968D9170
:100D10009C9190931501809314018AE377CFCC3591
:100D200091F4FC01828193819093110180931001D1
:100D3000848180931201868197819093150180931D
:100D4000140189E363CFCE3551F40E94B40C91E0D5
:100D5000811101C090E090931C01C1E01DCFCF35FF
:100D600019F40E94C70C6BCFCA35D1F540980E9488
:100D7000710CD80112968C91129713963C9113978F
:100D800014962C91149715969C91159780931601A3
:100D900030931701209318019093190116966C91C6
:100DA0006F710E947B0CF801C681C295C695C77011
:100DB000C6838CE1E82E81E0F82E10E0C11711F017
:100DC000143039F40E94780CC53008F4E5CEC4E044
:100DD000E3CE0E949C0CD7018D937D011F5FEECF67
:100DE000C23021F40E941E04419AEDCEC33081F539
:100DF000E0910901F0910A0112968C910995809376
:100E00001C01E0910901F0910A01D80113968C911F
:100E1000099580931D01E0910901F0910A01D80123
:100E200014968C91099580931E01E0910901F0912F
:100E30000A01D80115968C91099580931F01109293
:100E40002001109221011092220110922301BFCFA4
:100E5000C53019F40E942504F2CE62E0C43009F4D2
:100E6000D4C063E0C73009F4D0C0C63049F58091E2
:100E70000B0181110FC0F80182819381092E000CB2
:100E8000AA0BBB0B8093160190931701A093180136
:100E9000B0931901D80114968C91149715969C91D2
:100EA000159780930E0190930F018093130116966E
:100EB0008D919C91909315018093140181E0A6CEB1
:100EC000C83009F580910B0181110FC0F8018281B2
:100ED0009381092E000CAA0BBB0B809316019093F3
:100EE0001701A0931801B093190110920F011092ED
:100EF0000E01D80116968D919C91909315018093C7
:100F0000140184E083CEC930A9F481E080930B0101
:100F1000F8016281738184819581609316017093D9
:100F2000170180931801909319010E946804109290
:100F30001C0113CFCA3069F412968C9180931A0168
:100F4000811103C010920C0108CF81E080930C0145
:100F500004CFC131B1F480911A0180931D018091B9
:100F6000010180931E018091080180931F018091EF
:100F700000018093200180911B0180932101C6E034
:100F80000BCECB30B1F4FC0182819381909351015F
:100F90008093500110920B012A9A229A83E00E94BA
:100FA00072052A98409880E10E9472050E94B9015A
:100FB0000ACECC30C1F480EC0E94CA0180E00E94CD
:100FC000CA018AE00E9472052A9A85E00E94720591
:100FD0002A9885E00E94720584B1837D84B985B129
:100FE000837D85B9F0CDCD3019F40E94EE0127CE76
:100FF000CE3029F412968C910E94CA0198CF65E0F8
:10100000CF3019F0C03129F466E0C8010E947A059A
:10101000EBCDCF3709F0D7CD83E180931C0181E878
:1010200080931D018FEC80931F01D1CE4F925F9270
:101030006F927F928F929F92AF92BF92CF92DF92E8
:10104000EF92FF920F931F93CF93DF93D82EC92E69
:1010500080911B019EEF980F923048F0853039F057
:10106000833329F0893319F0863309F041C170E0E8
:10107000E0901401F09015016E157F0508F47B01D6
:10108000CE2D419880911B01853059F54E2D6D2D47
:101090007C2D80911601909117010E94070280918A
:1010A000160190911701A0911801B09119018E0DB0
:1010B0009F1DA11DB11D8093160190931701A09350
:1010C0001801B093190180911401909115018E19A6
:1010D0009F099093150180931401892B09F053C047
:1010E00050C0DD2D0D2D1C2D833391F1863309F079
:1010F0005BC00091140110911501E016F10608F48F
:101100008701C02FAD2CBC2CF12CE12C6801E1E053
:10111000CE1AD108EC16D0F18091140190911501EE
:10112000801B910B9093150180931401892B59F525
:101130000E94EC0B26C0E0910901F0910A0180E0C9
:101140000995F80181938F01F5E0FA95F1F7000018
:10115000802F8D1B8C1778F38091140190911501CD
:101160008E199F099093150180931401892B59F4CE
:1011700080910201882329F02A9A85E08A95F1F767
:10118000000010921B01419A409AB4C081E0CE1435
:10119000DF0409F080E00E94320CF50181935F01C9
:1011A000FFEFEF1AFF0AB6CF8933D1F1823009F091
:1011B00062C08090160190901701A0901801B09025
:1011C0001901C0911401D0911501EC16FD0608F427
:1011D000E701FC2EC501B4010E9468042401350119
:1011E000FA948FEFF81230C08C0E9D1EA11CB11C1A
:1011F0008092160190921701A0921801B0921901E5
:1012000080911401909115018C1B9D0B62CF0E945F
:101210009C0CF80181938F01F5E0FA95F1F700003D
:10122000802F8D1B8C1798F38091140190911501DC
:101230008E199F099093150180931401892B09F051
:10124000A2CF0E94780C9DCF0D2D1C2DC2010E94B3
:101250008C04F80181938F01FFEF4F1A5F0A6F0A28
:101260007F0A4114510421F4C301B2010E946804B1
:10127000D02EC12EB5CF8330D9F500911401109135
:101280001501E016F10608F48701F02EFA94EFEF4D
:10129000FE1210C08091140190911501801B910BDA
:1012A0009093150180931401892B11F410921B0166
:1012B000C02F69CF8091160190911701A09118015C
:1012C000B0911901AC01BD014F5F5F4F6F4F7F4F70
:1012D0004093160150931701609318017093190100
:1012E000CD2DDC2D0E942F058993DC2ECD2ECECF67
:1012F000419ACFEF8C2FDF91CF911F910F91FF90EB
:10130000EF90DF90CF90BF90AF909F908F907F90A5
:101310006F905F904F9008950F931F93CF93DF933B
:10132000EC018C01060F111DC017D10731F480E0CC
:10133000DF91CF911F910F91089568E089910E94EC
:101340007B0C882389F381E0F3CF8F929F92AF9239
:10135000BF92CF92DF92EF92FF921F93CF93DF93D2
:10136000EC0180911B01882309F4CAC1813059F036
:10137000982F9D7F943039F0982F977F923319F0F2
:10138000853309F0BDC170E0E0901401F0901501C3
:101390006E157F0508F47B01BE2C419810911B014E
:1013A0001630C1F54E2DBE018091160190911701A6
:1013B0000E9411028091160190911701A0911801CD
:1013C000B09119018E0D9F1DA11DB11D80931601B5
:1013D00090931701A0931801B09319018091140103
:1013E000909115018E199F09909315018093140116
:1013F000892B49F110E0419A409A812FDF91CF91DA
:101400001F91FF90EF90DF90CF90BF90AF909F9093
:101410008F900895123319F51C2FC12EDD2E8C2DBF
:10142000811B8B1598F080911401909115018E19F4
:101430009F099093150180931401892BD9F680910F
:10144000020181112A9A10921B01D4CFE091090167
:10145000F0910A01D6018D916D010995E0CF153308
:1014600069F5C0901401D0901501EC14FD0408F446
:1014700067011C2DBC2EEC2EFD2E8E2D8B19811795
:10148000A0F080911401909115018C199D09909301
:10149000150180931401892B09F0ACCF8091520182
:1014A000882349F00E94EC0BCECFD7018D917D01AE
:1014B0000E94010CE2CF0E94D70BC5CF1A33C1F5B1
:1014C0008091120195E0892E912CA12CB12C04C0A1
:1014D000880C991CAA1CBB1C8A95D2F7809110011C
:1014E00090911101882A0E94710C609112016D5F28
:1014F000882D0E947B0C6E2DCE010E948C09182F26
:10150000882321F00E94780C1DEF75CF8091140183
:10151000909115018E199F099093150180931401E4
:10152000892B09F067CF0E94780C10921B0163CFC2
:10153000113009F0AAC08090160190901701A09078
:101540001801B0901901C501B4010E94680480918E
:101550000E0190910F016E01CE0CDF1C892B09F456
:1015600053C0CC15DD0509F452C040E06991C401B7
:101570000E94B004811130C0EFEF8E1A9E0AAE0AAD
:10158000BE0A80911301815080931301811174C0B0
:1015900080910E0190910F0191958195910994018F
:1015A00021503109822393230E94F704882309F4F0
:1015B0005FC010921B018092160190921701A092B9
:1015C0001801B09219011AEF16CF41E06991C401D8
:1015D0000E94B004882361F010921B0180921601D2
:1015E00090921701A0921801B09219011BEF03CF3E
:1015F000BFEF8B1A9B0AAB0ABB0A8114910421F43A
:10160000C501B4010E946804CC16DD06F1F6809293
:10161000160190921701A0921801B09219018091C1
:101620001401909115018E199F09909315018093D3
:101630001401892B09F0DECE10921B0180910E015E
:1016400090910F01009709F4D6CE2091130128172D
:10165000190609F4D0CEF1E08F1A91089195819581
:101660009109882199210E94F7048111ACCFC3CE42
:1016700080910E01809313018114910409F071CFC0
:10168000C501B4010E9468046CCF6E01CE0CDF1C52
:10169000143011F11FEFAFCE699180911601909136
:1016A00017010E944C05882321F010921B011CEFAA
:1016B000A2CE8091160190911701A0911801B091CE
:1016C00019010196A11DB11D809316019093170178
:1016D000A0931801B0931901CC15DD05E9F68091AE
:1016E0001401909115018E199F0990931501809313
:1016F0001401892B09F07ECE10921B0111E07BCEE4
:101700001FEF7BCEA0E8B0E01C92E1E8F0E0108291
:1017100080818860808380818260808388EE93E00E
:1017200090938900809388008C9180648C930895B5
:101730001BB88BB18B778BB98AB184688AB92FEFCC
:1017400030E782E0215030408040E1F700C00000E7
:101750008AB18B778AB914B8219A93E097B93A98ED
:1017600088B18C6388B940982FEF31EE84E0215026
:1017700030408040E1F700C00000409A41982FEFD0
:1017800031EE84E0215030408040E1F700C000009D
:10179000419A95BD0E94820B0E94390378940E9461
:1017A0002402FDCF24982C9A23982B9A08952498EC
:1017B0002C9A23982B9A8AE18A95F1F700C0249AF3
:1017C0002C988AE18A95F1F700C0239A2B988AE138
:1017D0008A95F1F700C00895239A2B98249A2C98A3
:1017E0008AE08A95F1F700C023982B9A8AE08A95BF
:1017F000F1F700C024982C9A8AE18A95F1F700C08D
:10180000089598E0239A2B982AE02A95F1F700C0D2
:1018100087FF25C024982C9A2AE02A95F1F700C06A
:1018200023982B9A2AE12A95F1F700C0880F91504E
:1018300049F7239A2B9824982C9A8AE08A95F1F7F5
:1018400000C023982B9A2AE12A95F1F700C083B1B2
:10185000239A2B9882958F70809581700895249A91
:101860002C98DACF282F24982C9A98E080E0239A9D
:101870002B983AE13A95F1F700C023982B9A3AE178
:101880003A95F1F700C0880F1C998160915079F763
:10189000239A2B98211111C0249A2C989AE09A959A
:1018A000F1F700C023982B9A3AE03A95F1F700C07F
:1018B000239A2B9824982C9A089524982C9AEECF4A
:1018C000880F613009F481600C94010C2D98089503
:1018D00084B18C6284B924980E94660C2B982A9853
:1018E00008952A982D980E94C9032A9A0C94C90336
:1018F0002A980C94660CCF93DF93D82F6150770B06
:10190000C1E001C0CC0F6A95EAF7C11104C080E0C4
:10191000DF91CF9108950E94660C8C2F8D2351F09A
:101920002B9A0E94C9032D9A0E94C9030E94660C3B
:10193000C695EBCF2B98F5CFCF93DF93D8E0C0E0DF
:101940000E94660C0E94C9032D9A83B18295817012
:10195000CC0FC82B0E94C9030E94660CD15081F79E
:101960008C2FDF91CF910895CF930E94680C2A9A13
:1019700085E38A95F1F700000E94C903C3B10E9474
:10198000780CC295C17081E08C27CF910895CF93D8
:101990000E94680C2A9A85E38A95F1F7000068E0B6
:1019A00080EC0E947B0CC0E00E94660C0E94C90380
:1019B0002D9A0E94C9031C9908C0CA5F0E94660C38
:1019C0000E94780C8C2FCF9108950E94660CCF5FF7
:0C19D000C73051F7CFEFF4CFF894FFCFF1
:0419DC00FF0D0100FA
:00000001FF
