:1000000063C0000098C000007CC000007AC00000FF
:1000100078C0000076C0000074C0000072C000000C
:1000200070C000006EC000006CC000006AC000001C
:1000300068C0000066C0000064C0000062C000002C
:1000400060C000005EC000005CC000005AC000003C
:1000500058C0000056C0000054C0000052C000004C
:1000600050C000004EC0000009021200010100A0B3
:100070001909040000000000000012011001FF0037
:100080000008C016DC050701010200010E0355003F
:10009000530042006100730070001C03770077007A
:1000A00077002E00660069007300630068006C0032
:1000B0002E0064006500040309040D0C0B0A0908F6
:1000C000070605040302010011241FBECFEFD8E08C
:1000D000DEBFCDBF11E0A0E0B1E0E2E3FCE102C091
:1000E00005900D92A430B107D9F721E0A4E0B1E06A
:1000F00001C01D92A235B207E1F70E94AF0C0C942B
:10010000170E7ECFA82FB92F80E090E041E050EA93
:10011000609530E009C02D9182279795879510F062
:1001200084279527305EC8F36F5FA8F30895EADF50
:100130008D939D930895CF93CFB7CF93DF93C395BE
:100140004F9BE9F74F9B0BC04F9B09C04F9B07C0CC
:100150004F9B05C04F9B03C04F9B01C089C06F934D
:10016000C0912E01DD27CA5CDE4F2F9365E54F9BC2
:1001700003C02F916F91E6CF0F931F934F9320E011
:1001800040E15F9309B1047807FB27F93F9350E002
:100190003BE039C0147840642F77012F5F5F1EC0A9
:1001A000406819B114782F7752501FC0406409B1CC
:1001B0002F770478D1F15F5F00C023C0406219B18E
:1001C0002F77147891F15F5F00C025C00478102765
:1001D000515012F45D5F0000115027952C3F19B16A
:1001E000C8F614780127015027952C3FC8F64227FE
:1001F000499309B1047810274F73115027952C3F6C
:10020000A8F64695469519B1147879F00127015062
:1002100027952C3F98F66B5A60F3315009B1B0F630
:1002200000C011E01CBB002717C03B503195C31B19
:10023000D04011E01CBB0881033CF9F00B34E9F01D
:1002400020912C011981110F1213EDCF093651F1B4
:100250000D3211F0013E39F7009334013F915F9167
:100260004F911F910F912F916F91CCB3C0FD67CF2C
:10027000DF91CF91CFBFCF911895209134012223E8
:1002800069F310913201112339F534303AF130938A
:10029000320120932D0110912E013BE0311B309350
:1002A0002E011CC0009132010130B4F40AE53091F6
:1002B0002F0134FD14C000932F01C1E2D1E013C01F
:1002C000052710E000C000000BB91AC0052710E098
:1002D000221F1DC010E021C04AE502C032ED432FAD
:1002E000C4E1D0E032E01AB114685F9A0BB11AB9D8
:1002F00054E820E865E320FF05270BB927951795FB
:100300001C3FF0F66695B8F7B1F720FF05270BB94B
:10031000279517951C3FD0F62795179517FF0527AA
:1003200000001C3F0BB9B0F629913A9519F70B77ED
:1003300010913301110FC651D0400BB911F0109339
:100340002C0111E01CBB00681AB11B77402F4B77C2
:1003500054E05A95F1F70BB91AB94BB97FCF259AEA
:1003600023982B9A50E218D05A95E9F70895AC01DA
:1003700088E606D0842F04D089E602D0852F00C0FD
:100380000FD028E030E0382780FB869506D02A95EC
:10039000D1F730FB02D000C0689423982B9A16F056
:1003A0002B98239AE0915001F09151013197F0F789
:1003B0002D9AE3B1E3FBE0915001F09151013197A7
:1003C000F0F72D98089520ECE7DF46F42A95E1F741
:1003D00080E02AE1E5DF2A95E9F7DECF28E030E08A
:1003E000DBDF869587F938272A95D1F7D5DF27F9FE
:1003F000322772F3D1DFD0CFDB01742FB8DF84E274
:10040000BFDFE1DF8D937A95D1F70895DB01742F7B
:10041000AEDF83EFB5DF8DE1B3DF84E6B1DF8D9131
:10042000AFDF82E7ADDFCFDF8078D9F77A9589F744
:100430000895CF93DF9360913201635067FD90C0C0
:1004400080912E01CCE0D0E0C81BD109CA5CDE4F00
:1004500080912D018D3209F0BFC0683009F07EC057
:1004600083EC809321018AE580932F01109204018F
:100470008881807671F0CE0105D48F3F09F466C083
:100480009F81911169C09E81981708F065C0892FDE
:1004900063C02A8110922A01998191110AC0109299
:1004A0002B012AE231E082E03093310120933001C8
:1004B000E7CF953029F4209333012AE231E0F4CFDD
:1004C000963099F59B81913059F48AE790E09093AA
:1004D00031018093300182E190E490930401D0CF08
:1004E000923019F488E690E0F2CF9330A9F7211109
:1004F00008C086EB90E0909331018093300184E056
:10050000EBCF213041F48AE990E090933101809360
:1005100030018CE1E1CF2230F9F68CE890E0909345
:100520003101809330018EE0D7CF983059F0993067
:1005300019F420933501C1CF81E09A3009F4BDCF81
:1005400080E0BBCF25E331E081E0AECF988197FD1D
:100550008E8190E8909304018093050110923201FE
:1005600080912F0184FF2BC0C0910501CF3F39F14D
:100570006C2FC93008F068E08C2F861B8093050132
:100580008091210198E8892780932101CC2359F09B
:100590002091040127FF32C082E291E02ED5C82FBE
:1005A000893008F052C06C2F82E291E0C0DDCC5F50
:1005B000CC3019F08FEF80930501C0932F0184E1B7
:1005C00099B1947831F48150D9F710923301109297
:1005D0002C01DF91CF9108958091040187FFBECF58
:1005E000CE0137D78F3F21F48EE180932F01B6CF14
:1005F000882309F4B3CF10920501B0CF8091300168
:100600009091310126FF17C0FC01A2E2B1E0262F34
:10061000280F34913D9331962E13FBCF2FEF260FE9
:1006200030E02F5F3F4F820F931F909331018093F3
:100630003001C62FB8CFA2E2B1E0FC01262F280F6F
:1006400031913D932E13FCCFE9CF8FEF80930501BD
:10065000CEE1B3CF8AE580932F018FEF8093050120
:10066000E9E6F0E0808182608083E89A08958EBD9B
:100670000DB407FEFDCF8EB5089580914D018CBD60
:1006800080914C018DBD08958823B1F0883050F1E0
:1006900027E333E0309308012093070110924C01C7
:1006A00091E090934E018A30B9F040F48830C1F067
:1006B0008930A1F081E507C08CE0EACF8C3031F0C1
:1006C0008D30C1F780E580934D01089581E58093D9
:1006D0004D0190934C01089582E5F9CF82E5F3CF67
:1006E00083E5F1CF2AED33E0309308012093070131
:1006F0008430A1F030F48230A9F0833089F08AEFA1
:1007000006C0863039F040F08730C9F784E0809326
:100710004E01089588E0FBCF80E1F9CF8FE1F7CF5C
:100720008FE3F5CF8DE7F3CF0F931F93CF93DF9335
:10073000C82FAADF11E0DFE3C83010F41FE0DAEFC2
:10074000C3E02A9A812F19D22A988D2F16D2E091D0
:100750000701F09108018CEA0995E0910701F091F9
:10076000080183E50995E0910701F091080180E017
:100770000995082FE0910701F091080180E00995A3
:10078000033511F4882349F08FE19EE40197F1F7D6
:1007900000C00000C150A9F681E0DF91CF911F9108
:1007A0000F91089526B590914E0186B5821B891749
:1007B000E0F308951F93CF93DF93182F2D98D8E07F
:1007C000C0E017FF13C02B9A110FECDF2D9AEADF60
:1007D00083B182958170CC0FC82B2D98E3DFD15067
:1007E00081F78C2FDF91CF911F9108952B98ECCF3B
:1007F00084B18C6284B924982A982D9881E0BDD167
:100800002A9A81E0BAD12A98809107019091080133
:100810008753934009F431DF8FEF809300010895EF
:1008200084B18C6284B9809107019091080187534B
:10083000934009F422DF8FEF809300012A9A0895F4
:1008400084B1837D84B985B1837D85B91092170108
:1008500008950F931F93CF93DF9380910601882310
:1008600071F062DF811109C0909106019093170128
:10087000DF91CF911F910F91089510920601809101
:100880001701CAEBD0E00C2F035F882329F0DF911A
:10089000CF911F910F9148CFFE011491812F44DF1A
:1008A000811105C01093170110930601E1CF219625
:1008B0000C13F2CF109217018AE0E6DE81E0D8CF68
:1008C0000F931F938B019C012450310901151105D1
:1008D0002440310550F5DC01CB0121E1B695A79507
:1008E000979587952A95D1F7209100012817E9F06F
:1008F00080930001E0910701F09108018DE40995D2
:10090000E0910701F091080180E00995E09107016D
:10091000F0910801809100010995E0910701F091A3
:10092000080180E01F910F9109941F910F91089584
:10093000CF92DF92EF92FF926B017C01862F880F9E
:10094000880F880F8870E0910701F091080180629C
:100950000995D701C60129E0B695A7959795879582
:100960002A95D1F7E0910701F09108010995D70187
:10097000C601B695A79597958795E0910701F091E7
:1009800008010995E0910701F091080180E0FF90CE
:10099000EF90DF90CF900994CF92DF92EF92FF9289
:1009A0006B017C018DDFC701B601FF90EF90DF90F6
:1009B000CF90BECFCF92DF92EF92FF92CF93DF9393
:1009C0006B017C01D42FC22F7BDF8C2D880F880F09
:1009D000880F8870E0910701F09108018064099503
:1009E000D701C60129E0B695A795979587952A95D1
:1009F000D1F7E0910701F09108010995D701C601EF
:100A0000B695A79597958795E0910701F091080114
:100A10000995E0910701F09108018D2F0995C11109
:100A200008C080E0DF91CF91FF90EF90DF90CF90F2
:100A30000895DF3F61F0CEE181E09FD0C701B601AC
:100A4000ABDF8D1771F3C15041F481E0EBCFC701EB
:100A5000B601A2DF8F3F79F7E4CFC53168F784E0B4
:100A6000CB3058F382E0E9CFCF92DF92EF92FF9242
:100A7000CF936B017C0124DFE0910701F091080125
:100A80008CE40995D701C60129E0B695A7959795FD
:100A900087952A95D1F7E0910701F0910801099512
:100AA000D701C601B695A79597958795E09107015F
:100AB000F09108010995E0910701F091080180E0AB
:100AC0000995C9E181E059D0C701B60165DF8F3FC3
:100AD00081F4C15039F481E0CF91FF90EF90DF9025
:100AE000CF900895C03170F784E0C63060F382E0A3
:100AF000EACF80E0F1CFCF93DF93EC01E0910701E3
:100B0000F091080180EA0995E0910701F091080150
:100B10008D2F0995E0910701F09108018C2F09951F
:100B2000E0910701F091080180E0DF91CF910994F5
:100B30001F93CF93DF93D82F192FC62FE091070172
:100B4000F091080180EC0995E0910701F09108010E
:100B5000812F0995E0910701F09108018D2F0995EA
:100B6000E0910701F09108018C2F09958BE005D0E9
:100B700080E0DF91CF911F91089526B596B5921B25
:100B80009035E0F38150C9F70895262FFC0142818A
:100B90005381052E000C660B770B40931201509386
:100BA00013016093140170931501868197819093CE
:100BB0001101809310012093180108950F931F9342
:100BC000522F2091160121110FC0FC0102811381C7
:100BD000012E000C220B330B009312011093130112
:100BE0002093140130931501242F30E030930E012F
:100BF00020930D0150FD40930F01FC0186819781E8
:100C00009093110180931001609318011F910F912F
:100C100008950F931F93FC01838191E0811101C01E
:100C200090E090930B0180930A01928190930201CE
:100C3000882381F08230E1F404811581012E000CBB
:100C4000220B330B00931201109313012093140114
:100C50003093150186819781909311018093100143
:100C6000609318018FEFFA0180831F910F9108950F
:100C700000E010E09801813029F7048110E030E0B5
:100C800020E0E0CFCF92DF92FF920F931F93CF939C
:100C9000DF930F92CDB7DEB78C011982DC0111967C
:100CA0008C9111978130A1F480911701EDDC1092A5
:100CB000160140989DDDCDDD80930C01882319F04D
:100CC000BFDD1092060180910C01809319018AC04A
:100CD0008431A9F480911701D7DC4098A1DD89E126
:100CE00091E0909331018093300189810F90DF91E1
:100CF000CF911F910F91FF90DF90CF900895853194
:100D000081F42A98F801828180930301868197817A
:100D1000909311018093100183E3809318018FEF6A
:100D200022C1863179F42A9812968C911297809379
:100D3000030116968D919C9190931101809310015F
:100D400082E3EBCF8E3119F4409842D6C8CF8F3171
:100D500011F443D6C4CF803211F454D6C0CF8232BE
:100D600021F4F801828163D6B0CF833221F4129648
:100D70008C918ED6AACF843249F410920101AE0133
:100D80004F5F5F4F66E3C80144DFA9CF853259F456
:100D9000F80184818093010110920901AE014F5F37
:100DA0005F4F65E3F0CF8B3249F416968D919C919D
:100DB00090931101809310018AE3AFCF8A3249F4F6
:100DC000F80186819781909311018093100189E346
:100DD000A4CF8C3249F4D9D691E0811101C090E0C2
:100DE0009093190181E0BFC08D3211F4DFD66DCF31
:100DF0008832C1F5409884D6D80112968C9112970A
:100E000013963C91139714962C91149715969C91D8
:100E1000159780931201309313012093140190933E
:100E2000150116966C916F717BD6F801F680F294DD
:100E3000F69487E0F822F68299E1C92E91E0D92E46
:100E400010E0F11611F0143039F468D68F2D85308A
:100E500008F489C084E087C082D6D6018D936D01E5
:100E60001F5FEFCF823021F4EBDC419A409A37CFFD
:100E7000833041F5E0910701F091080112968C91C1
:100E8000099580931901E0910701F0910801D801BB
:100E900013968C91099580931A01E0910701F091C6
:100EA0000801D80114968C91099580931B01E0915B
:100EB0000701F0910801D80115968C91099580934E
:100EC0001C01C8CF62E0843009F487C063E087303A
:100ED00009F483C0853011F4BCDCF7CE863041F4D0
:100EE000F80125812F70448161E0C80167DE17CFCA
:100EF000883021F420E040E064E0F7CF893089F4C5
:100F000081E080931601F80182819381A481B581EB
:100F10008093120190931301A0931401B0931501D3
:100F2000DECE8A3039F412968C918093170110929C
:100F3000190158CF8131C9F410921901809117011C
:100F400080931A018091060180931B0180914E01CC
:100F500080931C018091000180931D0180911801F4
:100F600080931E0186E08983BACE8B3089F4F80124
:100F70008281938190935101809350012A9A229A01
:100F800083E0FBDD2A98409880E1F7DDE8D9A7CE21
:100F90008C3099F480ECF4D980E0F2D98AE0EDDD70
:100FA0002A9A85E0EADD2A9885E0E7DD84B1837D31
:100FB00084B985B1837D85B992CE8D3011F403DA81
:100FC00084CE8E3021F412968C91DAD9B0CF65E0C0
:100FD0008F3019F0803121F466E0C801D6DD9FCE54
:100FE0008F3709F07CCE89E18093190181E88093E5
:100FF0001A0110921B018FE062CFAF92BF92CF9285
:10100000DF92EF92FF920F931F93CF93DF93EC0148
:10101000809118019EEF980F923048F0853039F09A
:10102000833329F0893319F0863309F0D5C170E094
:1010300000911001109111016017710708F48B01E4
:10104000F02E419880911801853061F5402FBE0146
:101050008091120190911301CFD98091120190914A
:101060001301A0911401B0911501800F911FA11DD2
:10107000B11D8093120190931301A0931401B093BA
:1010800015018091100190911101801B910B90939B
:10109000110180931001892B11F410921801419ACB
:1010A000409881C0833359F5EC2ECC2EDD2E8C2D4B
:1010B0008E198F15B0F08091100190911101801B55
:1010C000910B9093110180931001892B41F780912E
:1010D0000301882311F32A9A25E02A95F1F70000ED
:1010E000DCCFE0910701F091080180E00995F6015D
:1010F00081936F01F5E0FA95F1F70000D8CF8633C0
:1011000009F084C080910901811132C0E090020190
:10111000D0900A0180910B01882389F080911201FF
:1011200090911301A0911401B09115012FE0B69593
:10113000A795979587952A95D1F78E70E82A4DD473
:101140008E2D75D4811159C0DD2049F08091130195
:101150006ED481E08D1518F48091120168D43DD4CD
:101160008E2D816064D4811148C081E08093090193
:10117000D12CC12C5801E1E0AE1AB108CF14F8F01F
:101180008091100190911101801B910B909311019E
:1011900080931001892B39F435D4109218011092E4
:1011A0000B01109209018F2DDF91CF911F910F91AB
:1011B000FF90EF90DF90CF90BF90AF90089581E0C7
:1011C000AC14BD0409F080E063D4899380911201CE
:1011D00090911301A0911401B09115010196A11DE8
:1011E000B11D8093120190931301A0931401B09349
:1011F0001501FFEFCF1ADF0AC1CF04D410921801F6
:1012000010920B0110920901F12CCDCF8933F9F422
:10121000EC2ECC2EDD2E8C2D8E198F1578F0809132
:10122000100190911101801B910B909311018093FB
:101230001001892B09F033CF71D42FCF90D4F60150
:1012400081936F01F5E0FA95F1F70000E4CF823069
:1012500009F090C08091120190911301A0911401A6
:10126000B09115010197A109B109800F911FA11D2E
:10127000B11D0097A240B10508F07AC0EC2ECC2E2B
:10128000DD2E8C2D8E198F1508F0FBCE609112018A
:1012900070911301809114019091150149DBF601C1
:1012A00081936F018091120190911301A09114011B
:1012B000B09115010196A11DB11D8093120190936B
:1012C0001301A0931401B0931501DBCF60911201BB
:1012D000709113018091140190911501F1DA409100
:1012E0001201509113016091140170911501DF2CCE
:1012F000DE18DB01CA0188279927AE7F1296841B6E
:10130000950BA60BB70B4D2D50E070E060E0481731
:1013100059076A077B0708F0D82E5E01AE0CB11C96
:10132000C12CCD1004C0EC0CEF1480F2AACE609159
:101330001201709113018091140190911501F8DA56
:10134000F50181935F018091120190911301A091A9
:101350001401B09115010196A11DB11D80931201D8
:1013600090931301A0931401B0931501C394D9CFA6
:10137000E12CDACF833081F5EC2ECC2EDD2E8C2DB6
:101380008E198F1508F07DCE809112019091130176
:10139000A0911401B09115018115E0E19E07A1050E
:1013A000B105C0F4A8DBF60181936F0180911201B1
:1013B00090911301A0911401B09115010196A11D06
:1013C000B11D8093120190931301A0931401B09367
:1013D0001501D5CF8FEFE7CF419AFF24FA94E3CEE2
:1013E0006115710522E08207910598F46115710578
:1013F00021E08207910578F4611520E872078105E4
:10140000910558F4611570448105910540F080E123
:10141000089580E8089580E4089580E2089588E0C2
:1014200008950F931F93CF93DF93EC018C01060F68
:10143000111DC017D10731F480E0DF91CF911F91CA
:101440000F91089568E089916BD3882391F381E02F
:10145000F4CF3F924F925F926F927F928F929F92C2
:10146000AF92BF92CF92DF92EF92FF920F931F93B2
:10147000CF93DF93F82E392E80911801882309F439
:1014800056C2813059F0982F9D7F943039F0982FB3
:10149000977F923319F0853309F049C270E0C0910B
:1014A0001001D09111016C177D0708F4EB011C2F7E
:1014B0004198E090180106E0E0122FC04C2F6F2DEC
:1014C000732D80911201909113010E940602809168
:1014D000120190911301A0911401B09115018C0F8C
:1014E0009D1FA11DB11D8093120190931301A09324
:1014F0001401B093150180911001909111018C1B82
:101500009D0B9093110180931001892B09F4A4C0C5
:1015100000E0419A409A102F02C122E30F2DCF2CF8
:10152000D32CE21609F483C0B5E3EB122DC1009170
:101530000B01EF2C002309F40FC180901201909051
:101540001301A0901401B0901501C501B40148DF4A
:10155000482E512C712C612CC501B401A3019201BC
:1015600044D393018201061B170B280B390BB901D9
:10157000A8018091100190911101C817D90708F4B2
:10158000CE01B0E0A0E084179507A607B70708F4DE
:10159000AC01142F80910901811169C01ED2809184
:1015A0000201409112015091130160911401709158
:1015B00015014115510521E06207710548F09FE0D2
:1015C00076956795579547959A95D1F74E70842BE8
:1015D0002ED2811112C08091120190911301A0911D
:1015E0001401B0911501009731E0A307B105B8F5DA
:1015F000809112011CD28823B9F104D210921801F3
:1016000010920B01109209018EEF8093190189E16C
:1016100091E0909331018093300111E080C0E0911E
:101620000701F0910801D6018D916D0109958C2D6E
:10163000801B8117A0F380911001909111018C1BE8
:101640009D0B9093110180931001892B09F060CFBD
:101650008091030181112A9A1092180159CF892F84
:10166000E6D1882329F2C9CF81E0809309010F2DAB
:10167000CF2DD32D8C2F801B811780F180911001ED
:1016800090911101811B9109909311018093100198
:10169000892B79F0609112017091130180911401EE
:1016A00090911501A3019201A0D2672B682B692BA1
:1016B00069F5A8D18FE19EE40197F1F700C0000021
:1016C0008091100190911101892B01F51092180160
:1016D00010920B0181E0809319011AC08991A7D162
:1016E00081118BCF8091120190911301A09114016F
:1016F000B09115010196A11DB11D80931201909327
:101700001301A0931401B0931501B4CF10931901E4
:1017100011E089E191E09093310180933001812FB4
:10172000DF91CF911F910F91FF90EF90DF90CF90BD
:10173000BF90AF909F908F907F906F905F904F90F1
:101740003F900895D6018D916D0171D1882321F0CC
:101750008EEF80931901DDCE8C2D8E19811790F3B9
:1017600080911001909111018C1B9D0B90931101A0
:1017700080931001892B69F680910101813009F471
:1017800041D110921801A6CFBAE3EB1219C06C2F09
:101790008F2D932D46DE082F1DEF8111C0CF809134
:1017A0001001909111018C1B9D0B9093110180935E
:1017B0001001892B09F0ACCEB1D110921801A9CE3D
:1017C000E1E0EE1631F0F4E00CEFEF1619F00FEF58
:1017D000A0CE0BEF7F2CCF2CD32C8C2D871981170B
:1017E000A8F080911001909111018C1B9D0B90939A
:1017F000110180931001892B09F08ACEF1E0EF16D8
:1018000009F466C01092180101E083CED6014D9113
:101810006D018091120190911301A0911401B0917A
:101820001501E1E0EE1237C021E060910D017091E9
:101830000E01672B09F020E0BC01CD01BBD881115E
:1018400068CE80910D0190910E01009741F1409179
:1018500012015091130160911401709115012091B2
:101860000F01215020930F01211119C091958195ED
:101870009109B0E0A0E04C015D0184229522A622EE
:10188000B722C501B4011CD8C501B401EDD8882325
:10189000D1F00AEF3ECE642F4BD981113ACE809120
:1018A000120190911301A0911401B09115010196BC
:1018B000A11DB11D8093120190931301A0931401F7
:1018C000B09315018ACF80910D0180930F01E7CF6E
:1018D00020910D0130910E012115310509F492CFAF
:1018E00080910F018217130609F48CCFC09012016A
:1018F000D0901301E0901401F090150101E0C01A9E
:10190000D108E108F108319521953109C901B0E00C
:10191000A0E0C222D922EA22FB22C701B6010E941E
:101920006004C701B601A0D88111B3CF6BCF1FEF00
:10193000F6CEA0E8B0E01C92E1E8F0E010828081F1
:101940008860808380818260808388EE93E09093BA
:101950008900809388008C9180648C9308951BB8D3
:101960008BB18B778BB98AB184688AB92FEF30E756
:1019700082E0215030408040E1F700C000008AB191
:101980008B778AB914B8219A93E097B93A9888B1BD
:101990008C6388B940982FEF31EE84E021503040BD
:1019A0008040E1F700C00000409A41982FEF31EEEF
:1019B00084E0215030408040E1F700C00000419AAF
:1019C00095BDB7DF0E942A0378940E941902FDCFCB
:1019D00024982C9A23982B9A089524982C9A23982B
:1019E0002B9A8AE18A95F1F700C0249A2C988AE113
:1019F0008A95F1F700C0239A2B988AE18A95F1F72E
:101A000000C00895239A2B98249A2C988AE08A95EE
:101A1000F1F700C023982B9A8AE08A95F1F700C06D
:101A200024982C9A8AE18A95F1F700C0089598E0ED
:101A3000239A2B982AE02A95F1F700C087FF25C04A
:101A400024982C9A2AE02A95F1F700C023982B9A23
:101A50002AE12A95F1F700C0880F915049F7239A9F
:101A60002B9824982C9A8AE08A95F1F700C0239845
:101A70002B9A2AE12A95F1F700C083B1239A2B987B
:101A800082958F70809581700895249A2C98DACF72
:101A9000282F24982C9A98E080E0239A2B983AE1FA
:101AA0003A95F1F700C023982B9A3AE13A95F1F76D
:101AB00000C0880F1C998160915079F7239A2B9868
:101AC000211111C0249A2C989AE09A95F1F700C040
:101AD00023982B9A3AE03A95F1F700C0239A2B9875
:101AE00024982C9A089524982C9AEECF2D98089536
:101AF00084B18C6284B92498F9DF2B982A980895D0
:101B00002A982D980E94D2032A9A2B9A0E94D203D7
:101B10002D9A0E94D2032D980C94D2032A98E6CFD6
:101B2000CF93DF93D82F6150770BC1E001C0CC0F6A
:101B30006A95EAF7C11104C080E0DF91CF91089562
:101B4000D5DF8C2F8D2349F02B9A0E94D2032D9A3A
:101B50000E94D203CBDFC695EDCF2B98F6CFCF9363
:101B6000DF93D8E0C0E0C2DF0E94D2032D9A83B198
:101B700082958170CC0FC82B0E94D203B7DFD15061
:101B800091F78C2FDF91CF910895CF93B1DF2A9AEF
:101B900085E38A95F1F700000E94D203C3B1BEDF4E
:101BA000C295C17081E08C27CF910895CF93A0DFBB
:101BB0002A9A85E38A95F1F7000068E080ECB0DFAF
:101BC000C0E094DF0E94D2032D9A0E94D2031C9998
:101BD00006C0CA5F8BDFA2DF8C2FCF91089586DF0E
:101BE000CF5FC73071F7CFEFF6CFA1E21A2EAA1B55
:101BF000BB1BFD010DC0AA1FBB1FEE1FFF1FA217BD
:101C0000B307E407F50720F0A21BB30BE40BF50BB9
:101C1000661F771F881F991F1A9469F76095709542
:101C2000809590959B01AC01BD01CF010895F8947A
:021C3000FFCFE4
:041C3200FF01A0010D
:00000001FF
